{
	"contracts/Twitter.sol": {
		"Twitter": {
			"abi": [
				{
					"inputs": [],
					"stateMutability": "nonpayable",
					"type": "constructor"
				},
				{
					"anonymous": false,
					"inputs": [
						{
							"indexed": false,
							"internalType": "uint256",
							"name": "id",
							"type": "uint256"
						},
						{
							"indexed": false,
							"internalType": "address",
							"name": "author",
							"type": "address"
						},
						{
							"indexed": false,
							"internalType": "string",
							"name": "content",
							"type": "string"
						},
						{
							"indexed": false,
							"internalType": "uint256",
							"name": "timestamp",
							"type": "uint256"
						}
					],
					"name": "TweetCreated",
					"type": "event"
				},
				{
					"anonymous": false,
					"inputs": [
						{
							"indexed": false,
							"internalType": "address",
							"name": "liker",
							"type": "address"
						},
						{
							"indexed": false,
							"internalType": "address",
							"name": "author",
							"type": "address"
						},
						{
							"indexed": false,
							"internalType": "uint256",
							"name": "id",
							"type": "uint256"
						},
						{
							"indexed": false,
							"internalType": "uint256",
							"name": "likeCount",
							"type": "uint256"
						}
					],
					"name": "TweetLiked",
					"type": "event"
				},
				{
					"anonymous": false,
					"inputs": [
						{
							"indexed": false,
							"internalType": "address",
							"name": "unliker",
							"type": "address"
						},
						{
							"indexed": false,
							"internalType": "address",
							"name": "author",
							"type": "address"
						},
						{
							"indexed": false,
							"internalType": "uint256",
							"name": "id",
							"type": "uint256"
						},
						{
							"indexed": false,
							"internalType": "uint256",
							"name": "likeCount",
							"type": "uint256"
						}
					],
					"name": "TweetUnLiked",
					"type": "event"
				},
				{
					"inputs": [],
					"name": "MAX_TWEET_LENGTH",
					"outputs": [
						{
							"internalType": "uint16",
							"name": "",
							"type": "uint16"
						}
					],
					"stateMutability": "view",
					"type": "function"
				},
				{
					"inputs": [
						{
							"internalType": "uint16",
							"name": "len",
							"type": "uint16"
						}
					],
					"name": "changeTweetLength",
					"outputs": [],
					"stateMutability": "nonpayable",
					"type": "function"
				},
				{
					"inputs": [
						{
							"internalType": "string",
							"name": "_tweet",
							"type": "string"
						}
					],
					"name": "createTweet",
					"outputs": [],
					"stateMutability": "nonpayable",
					"type": "function"
				},
				{
					"inputs": [],
					"name": "getAllTweets",
					"outputs": [
						{
							"components": [
								{
									"internalType": "uint256",
									"name": "id",
									"type": "uint256"
								},
								{
									"internalType": "address",
									"name": "author",
									"type": "address"
								},
								{
									"internalType": "string",
									"name": "content",
									"type": "string"
								},
								{
									"internalType": "uint256",
									"name": "timestamp",
									"type": "uint256"
								},
								{
									"internalType": "uint256",
									"name": "likes",
									"type": "uint256"
								}
							],
							"internalType": "struct Twitter.Tweet[]",
							"name": "",
							"type": "tuple[]"
						}
					],
					"stateMutability": "view",
					"type": "function"
				},
				{
					"inputs": [
						{
							"internalType": "address",
							"name": "_author",
							"type": "address"
						}
					],
					"name": "getTotalLikes",
					"outputs": [
						{
							"internalType": "uint256",
							"name": "",
							"type": "uint256"
						}
					],
					"stateMutability": "view",
					"type": "function"
				},
				{
					"inputs": [
						{
							"internalType": "uint256",
							"name": "ind",
							"type": "uint256"
						}
					],
					"name": "getTweets",
					"outputs": [
						{
							"components": [
								{
									"internalType": "uint256",
									"name": "id",
									"type": "uint256"
								},
								{
									"internalType": "address",
									"name": "author",
									"type": "address"
								},
								{
									"internalType": "string",
									"name": "content",
									"type": "string"
								},
								{
									"internalType": "uint256",
									"name": "timestamp",
									"type": "uint256"
								},
								{
									"internalType": "uint256",
									"name": "likes",
									"type": "uint256"
								}
							],
							"internalType": "struct Twitter.Tweet",
							"name": "",
							"type": "tuple"
						}
					],
					"stateMutability": "view",
					"type": "function"
				},
				{
					"inputs": [
						{
							"internalType": "uint256",
							"name": "id",
							"type": "uint256"
						},
						{
							"internalType": "address",
							"name": "author",
							"type": "address"
						}
					],
					"name": "likeTweet",
					"outputs": [],
					"stateMutability": "nonpayable",
					"type": "function"
				},
				{
					"inputs": [],
					"name": "owner",
					"outputs": [
						{
							"internalType": "address",
							"name": "",
							"type": "address"
						}
					],
					"stateMutability": "view",
					"type": "function"
				},
				{
					"inputs": [
						{
							"internalType": "address",
							"name": "",
							"type": "address"
						},
						{
							"internalType": "uint256",
							"name": "",
							"type": "uint256"
						}
					],
					"name": "tweets",
					"outputs": [
						{
							"internalType": "uint256",
							"name": "id",
							"type": "uint256"
						},
						{
							"internalType": "address",
							"name": "author",
							"type": "address"
						},
						{
							"internalType": "string",
							"name": "content",
							"type": "string"
						},
						{
							"internalType": "uint256",
							"name": "timestamp",
							"type": "uint256"
						},
						{
							"internalType": "uint256",
							"name": "likes",
							"type": "uint256"
						}
					],
					"stateMutability": "view",
					"type": "function"
				},
				{
					"inputs": [
						{
							"internalType": "uint256",
							"name": "id",
							"type": "uint256"
						},
						{
							"internalType": "address",
							"name": "author",
							"type": "address"
						}
					],
					"name": "unlikeTweet",
					"outputs": [],
					"stateMutability": "nonpayable",
					"type": "function"
				}
			],
			"devdoc": {
				"kind": "dev",
				"methods": {},
				"version": 1
			},
			"evm": {
				"assembly": "    /* \"contracts/Twitter.sol\":61:2540  contract Twitter{... */\n  mstore(0x40, 0x80)\n    /* \"contracts/Twitter.sol\":119:121  20 */\n  0x14\n    /* \"contracts/Twitter.sol\":86:121  uint16 public MAX_TWEET_LENGTH = 20 */\n  0x00\n  dup1\n  0x0100\n  exp\n  dup2\n  sload\n  dup2\n  0xffff\n  mul\n  not\n  and\n  swap1\n  dup4\n  0xffff\n  and\n  mul\n  or\n  swap1\n  sstore\n  pop\n    /* \"contracts/Twitter.sol\":309:360  constructor (){... */\n  callvalue\n  dup1\n  iszero\n  tag_1\n  jumpi\n  0x00\n  dup1\n  revert\ntag_1:\n  pop\n    /* \"contracts/Twitter.sol\":342:352  msg.sender */\n  caller\n    /* \"contracts/Twitter.sol\":334:339  owner */\n  0x00\n  0x02\n    /* \"contracts/Twitter.sol\":334:352  owner = msg.sender */\n  0x0100\n  exp\n  dup2\n  sload\n  dup2\n  0xffffffffffffffffffffffffffffffffffffffff\n  mul\n  not\n  and\n  swap1\n  dup4\n  0xffffffffffffffffffffffffffffffffffffffff\n  and\n  mul\n  or\n  swap1\n  sstore\n  pop\n    /* \"contracts/Twitter.sol\":61:2540  contract Twitter{... */\n  dataSize(sub_0)\n  dup1\n  dataOffset(sub_0)\n  0x00\n  codecopy\n  0x00\n  return\nstop\n\nsub_0: assembly {\n        /* \"contracts/Twitter.sol\":61:2540  contract Twitter{... */\n      mstore(0x40, 0x80)\n      callvalue\n      dup1\n      iszero\n      tag_1\n      jumpi\n      0x00\n      dup1\n      revert\n    tag_1:\n      pop\n      jumpi(tag_2, lt(calldatasize, 0x04))\n      shr(0xe0, calldataload(0x00))\n      dup1\n      0x820785cc\n      gt\n      tag_13\n      jumpi\n      dup1\n      0x820785cc\n      eq\n      tag_8\n      jumpi\n      dup1\n      0x8da5cb5b\n      eq\n      tag_9\n      jumpi\n      dup1\n      0xa1488f7c\n      eq\n      tag_10\n      jumpi\n      dup1\n      0xd04ddaa0\n      eq\n      tag_11\n      jumpi\n      dup1\n      0xed9bb8d7\n      eq\n      tag_12\n      jumpi\n      jump(tag_2)\n    tag_13:\n      dup1\n      0x05a1b4a9\n      eq\n      tag_3\n      jumpi\n      dup1\n      0x53256135\n      eq\n      tag_4\n      jumpi\n      dup1\n      0x58bfa4ab\n      eq\n      tag_5\n      jumpi\n      dup1\n      0x6eb10797\n      eq\n      tag_6\n      jumpi\n      dup1\n      0x7c9cd2bc\n      eq\n      tag_7\n      jumpi\n    tag_2:\n      0x00\n      dup1\n      revert\n        /* \"contracts/Twitter.sol\":370:411  mapping(address => Tweet[]) public tweets */\n    tag_3:\n      tag_14\n      0x04\n      dup1\n      calldatasize\n      sub\n      dup2\n      add\n      swap1\n      tag_15\n      swap2\n      swap1\n      tag_16\n      jump\t// in\n    tag_15:\n      tag_17\n      jump\t// in\n    tag_14:\n      mload(0x40)\n      tag_18\n      swap6\n      swap5\n      swap4\n      swap3\n      swap2\n      swap1\n      tag_19\n      jump\t// in\n    tag_18:\n      mload(0x40)\n      dup1\n      swap2\n      sub\n      swap1\n      return\n        /* \"contracts/Twitter.sol\":1542:1649  function getAllTweets() public view returns (Tweet [] memory){... */\n    tag_4:\n      tag_20\n      tag_21\n      jump\t// in\n    tag_20:\n      mload(0x40)\n      tag_22\n      swap2\n      swap1\n      tag_23\n      jump\t// in\n    tag_22:\n      mload(0x40)\n      dup1\n      swap2\n      sub\n      swap1\n      return\n        /* \"contracts/Twitter.sol\":783:878  function changeTweetLength(uint16 len) public isOwner {... */\n    tag_5:\n      tag_24\n      0x04\n      dup1\n      calldatasize\n      sub\n      dup2\n      add\n      swap1\n      tag_25\n      swap2\n      swap1\n      tag_26\n      jump\t// in\n    tag_25:\n      tag_27\n      jump\t// in\n    tag_24:\n      stop\n        /* \"contracts/Twitter.sol\":86:121  uint16 public MAX_TWEET_LENGTH = 20 */\n    tag_6:\n      tag_28\n      tag_29\n      jump\t// in\n    tag_28:\n      mload(0x40)\n      tag_30\n      swap2\n      swap1\n      tag_31\n      jump\t// in\n    tag_30:\n      mload(0x40)\n      dup1\n      swap2\n      sub\n      swap1\n      return\n        /* \"contracts/Twitter.sol\":886:1411  function createTweet(string memory _tweet) public {... */\n    tag_7:\n      tag_32\n      0x04\n      dup1\n      calldatasize\n      sub\n      dup2\n      add\n      swap1\n      tag_33\n      swap2\n      swap1\n      tag_34\n      jump\t// in\n    tag_33:\n      tag_35\n      jump\t// in\n    tag_32:\n      stop\n        /* \"contracts/Twitter.sol\":2257:2535  function getTotalLikes(address _author) external view returns(uint256){... */\n    tag_8:\n      tag_36\n      0x04\n      dup1\n      calldatasize\n      sub\n      dup2\n      add\n      swap1\n      tag_37\n      swap2\n      swap1\n      tag_38\n      jump\t// in\n    tag_37:\n      tag_39\n      jump\t// in\n    tag_36:\n      mload(0x40)\n      tag_40\n      swap2\n      swap1\n      tag_41\n      jump\t// in\n    tag_40:\n      mload(0x40)\n      dup1\n      swap2\n      sub\n      swap1\n      return\n        /* \"contracts/Twitter.sol\":128:148  address public owner */\n    tag_9:\n      tag_42\n      tag_43\n      jump\t// in\n    tag_42:\n      mload(0x40)\n      tag_44\n      swap2\n      swap1\n      tag_45\n      jump\t// in\n    tag_44:\n      mload(0x40)\n      dup1\n      swap2\n      sub\n      swap1\n      return\n        /* \"contracts/Twitter.sol\":1919:2249  function unlikeTweet(uint256 id , address author) external {... */\n    tag_10:\n      tag_46\n      0x04\n      dup1\n      calldatasize\n      sub\n      dup2\n      add\n      swap1\n      tag_47\n      swap2\n      swap1\n      tag_48\n      jump\t// in\n    tag_47:\n      tag_49\n      jump\t// in\n    tag_46:\n      stop\n        /* \"contracts/Twitter.sol\":1657:1911  function likeTweet(uint256 id , address author) external {... */\n    tag_11:\n      tag_50\n      0x04\n      dup1\n      calldatasize\n      sub\n      dup2\n      add\n      swap1\n      tag_51\n      swap2\n      swap1\n      tag_48\n      jump\t// in\n    tag_51:\n      tag_52\n      jump\t// in\n    tag_50:\n      stop\n        /* \"contracts/Twitter.sol\":1419:1534  function getTweets(uint ind) public view returns (Tweet memory) {... */\n    tag_12:\n      tag_53\n      0x04\n      dup1\n      calldatasize\n      sub\n      dup2\n      add\n      swap1\n      tag_54\n      swap2\n      swap1\n      tag_55\n      jump\t// in\n    tag_54:\n      tag_56\n      jump\t// in\n    tag_53:\n      mload(0x40)\n      tag_57\n      swap2\n      swap1\n      tag_58\n      jump\t// in\n    tag_57:\n      mload(0x40)\n      dup1\n      swap2\n      sub\n      swap1\n      return\n        /* \"contracts/Twitter.sol\":370:411  mapping(address => Tweet[]) public tweets */\n    tag_17:\n      mstore(0x20, 0x01)\n      dup2\n      0x00\n      mstore\n      keccak256(0x00, 0x40)\n      dup2\n      dup2\n      sload\n      dup2\n      lt\n      tag_59\n      jumpi\n      0x00\n      dup1\n      revert\n    tag_59:\n      swap1\n      0x00\n      mstore\n      keccak256(0x00, 0x20)\n      swap1\n      0x05\n      mul\n      add\n      0x00\n      swap2\n      pop\n      swap2\n      pop\n      pop\n      dup1\n      0x00\n      add\n      sload\n      swap1\n      dup1\n      0x01\n      add\n      0x00\n      swap1\n      sload\n      swap1\n      0x0100\n      exp\n      swap1\n      div\n      0xffffffffffffffffffffffffffffffffffffffff\n      and\n      swap1\n      dup1\n      0x02\n      add\n      dup1\n      sload\n      tag_61\n      swap1\n      tag_62\n      jump\t// in\n    tag_61:\n      dup1\n      0x1f\n      add\n      0x20\n      dup1\n      swap2\n      div\n      mul\n      0x20\n      add\n      mload(0x40)\n      swap1\n      dup2\n      add\n      0x40\n      mstore\n      dup1\n      swap3\n      swap2\n      swap1\n      dup2\n      dup2\n      mstore\n      0x20\n      add\n      dup3\n      dup1\n      sload\n      tag_63\n      swap1\n      tag_62\n      jump\t// in\n    tag_63:\n      dup1\n      iszero\n      tag_64\n      jumpi\n      dup1\n      0x1f\n      lt\n      tag_65\n      jumpi\n      0x0100\n      dup1\n      dup4\n      sload\n      div\n      mul\n      dup4\n      mstore\n      swap2\n      0x20\n      add\n      swap2\n      jump(tag_64)\n    tag_65:\n      dup3\n      add\n      swap2\n      swap1\n      0x00\n      mstore\n      keccak256(0x00, 0x20)\n      swap1\n    tag_66:\n      dup2\n      sload\n      dup2\n      mstore\n      swap1\n      0x01\n      add\n      swap1\n      0x20\n      add\n      dup1\n      dup4\n      gt\n      tag_66\n      jumpi\n      dup3\n      swap1\n      sub\n      0x1f\n      and\n      dup3\n      add\n      swap2\n    tag_64:\n      pop\n      pop\n      pop\n      pop\n      pop\n      swap1\n      dup1\n      0x03\n      add\n      sload\n      swap1\n      dup1\n      0x04\n      add\n      sload\n      swap1\n      pop\n      dup6\n      jump\t// out\n        /* \"contracts/Twitter.sol\":1542:1649  function getAllTweets() public view returns (Tweet [] memory){... */\n    tag_21:\n        /* \"contracts/Twitter.sol\":1587:1602  Tweet [] memory */\n      0x60\n        /* \"contracts/Twitter.sol\":1623:1629  tweets */\n      0x01\n        /* \"contracts/Twitter.sol\":1623:1641  tweets[msg.sender] */\n      0x00\n        /* \"contracts/Twitter.sol\":1630:1640  msg.sender */\n      caller\n        /* \"contracts/Twitter.sol\":1623:1641  tweets[msg.sender] */\n      0xffffffffffffffffffffffffffffffffffffffff\n      and\n      0xffffffffffffffffffffffffffffffffffffffff\n      and\n      dup2\n      mstore\n      0x20\n      add\n      swap1\n      dup2\n      mstore\n      0x20\n      add\n      0x00\n      keccak256\n        /* \"contracts/Twitter.sol\":1616:1641  return tweets[msg.sender] */\n      dup1\n      sload\n      dup1\n      0x20\n      mul\n      0x20\n      add\n      mload(0x40)\n      swap1\n      dup2\n      add\n      0x40\n      mstore\n      dup1\n      swap3\n      swap2\n      swap1\n      dup2\n      dup2\n      mstore\n      0x20\n      add\n      0x00\n      swap1\n    tag_68:\n      dup3\n      dup3\n      lt\n      iszero\n      tag_69\n      jumpi\n      dup4\n      dup3\n      swap1\n      0x00\n      mstore\n      keccak256(0x00, 0x20)\n      swap1\n      0x05\n      mul\n      add\n      mload(0x40)\n      dup1\n      0xa0\n      add\n      0x40\n      mstore\n      swap1\n      dup2\n      0x00\n      dup3\n      add\n      sload\n      dup2\n      mstore\n      0x20\n      add\n      0x01\n      dup3\n      add\n      0x00\n      swap1\n      sload\n      swap1\n      0x0100\n      exp\n      swap1\n      div\n      0xffffffffffffffffffffffffffffffffffffffff\n      and\n      0xffffffffffffffffffffffffffffffffffffffff\n      and\n      0xffffffffffffffffffffffffffffffffffffffff\n      and\n      dup2\n      mstore\n      0x20\n      add\n      0x02\n      dup3\n      add\n      dup1\n      sload\n      tag_71\n      swap1\n      tag_62\n      jump\t// in\n    tag_71:\n      dup1\n      0x1f\n      add\n      0x20\n      dup1\n      swap2\n      div\n      mul\n      0x20\n      add\n      mload(0x40)\n      swap1\n      dup2\n      add\n      0x40\n      mstore\n      dup1\n      swap3\n      swap2\n      swap1\n      dup2\n      dup2\n      mstore\n      0x20\n      add\n      dup3\n      dup1\n      sload\n      tag_72\n      swap1\n      tag_62\n      jump\t// in\n    tag_72:\n      dup1\n      iszero\n      tag_73\n      jumpi\n      dup1\n      0x1f\n      lt\n      tag_74\n      jumpi\n      0x0100\n      dup1\n      dup4\n      sload\n      div\n      mul\n      dup4\n      mstore\n      swap2\n      0x20\n      add\n      swap2\n      jump(tag_73)\n    tag_74:\n      dup3\n      add\n      swap2\n      swap1\n      0x00\n      mstore\n      keccak256(0x00, 0x20)\n      swap1\n    tag_75:\n      dup2\n      sload\n      dup2\n      mstore\n      swap1\n      0x01\n      add\n      swap1\n      0x20\n      add\n      dup1\n      dup4\n      gt\n      tag_75\n      jumpi\n      dup3\n      swap1\n      sub\n      0x1f\n      and\n      dup3\n      add\n      swap2\n    tag_73:\n      pop\n      pop\n      pop\n      pop\n      pop\n      dup2\n      mstore\n      0x20\n      add\n      0x03\n      dup3\n      add\n      sload\n      dup2\n      mstore\n      0x20\n      add\n      0x04\n      dup3\n      add\n      sload\n      dup2\n      mstore\n      pop\n      pop\n      dup2\n      mstore\n      0x20\n      add\n      swap1\n      0x01\n      add\n      swap1\n      jump(tag_68)\n    tag_69:\n      pop\n      pop\n      pop\n      pop\n      swap1\n      pop\n        /* \"contracts/Twitter.sol\":1542:1649  function getAllTweets() public view returns (Tweet [] memory){... */\n      swap1\n      jump\t// out\n        /* \"contracts/Twitter.sol\":783:878  function changeTweetLength(uint16 len) public isOwner {... */\n    tag_27:\n        /* \"contracts/Twitter.sol\":751:756  owner */\n      0x00\n      0x02\n      swap1\n      sload\n      swap1\n      0x0100\n      exp\n      swap1\n      div\n      0xffffffffffffffffffffffffffffffffffffffff\n      and\n        /* \"contracts/Twitter.sol\":737:756  msg.sender == owner */\n      0xffffffffffffffffffffffffffffffffffffffff\n      and\n        /* \"contracts/Twitter.sol\":737:747  msg.sender */\n      caller\n        /* \"contracts/Twitter.sol\":737:756  msg.sender == owner */\n      0xffffffffffffffffffffffffffffffffffffffff\n      and\n      eq\n        /* \"contracts/Twitter.sol\":729:757  require(msg.sender == owner) */\n      tag_77\n      jumpi\n      0x00\n      dup1\n      revert\n    tag_77:\n        /* \"contracts/Twitter.sol\":867:870  len */\n      dup1\n        /* \"contracts/Twitter.sol\":848:864  MAX_TWEET_LENGTH */\n      0x00\n      dup1\n        /* \"contracts/Twitter.sol\":848:870  MAX_TWEET_LENGTH = len */\n      0x0100\n      exp\n      dup2\n      sload\n      dup2\n      0xffff\n      mul\n      not\n      and\n      swap1\n      dup4\n      0xffff\n      and\n      mul\n      or\n      swap1\n      sstore\n      pop\n        /* \"contracts/Twitter.sol\":783:878  function changeTweetLength(uint16 len) public isOwner {... */\n      pop\n      jump\t// out\n        /* \"contracts/Twitter.sol\":86:121  uint16 public MAX_TWEET_LENGTH = 20 */\n    tag_29:\n      0x00\n      dup1\n      sload\n      swap1\n      0x0100\n      exp\n      swap1\n      div\n      0xffff\n      and\n      dup2\n      jump\t// out\n        /* \"contracts/Twitter.sol\":886:1411  function createTweet(string memory _tweet) public {... */\n    tag_35:\n        /* \"contracts/Twitter.sol\":990:1006  MAX_TWEET_LENGTH */\n      0x00\n      dup1\n      sload\n      swap1\n      0x0100\n      exp\n      swap1\n      div\n      0xffff\n      and\n        /* \"contracts/Twitter.sol\":966:1006  bytes(_tweet).length <= MAX_TWEET_LENGTH */\n      0xffff\n      and\n        /* \"contracts/Twitter.sol\":972:978  _tweet */\n      dup2\n        /* \"contracts/Twitter.sol\":966:986  bytes(_tweet).length */\n      mload\n        /* \"contracts/Twitter.sol\":966:1006  bytes(_tweet).length <= MAX_TWEET_LENGTH */\n      gt\n      iszero\n        /* \"contracts/Twitter.sol\":957:1029  require( bytes(_tweet).length <= MAX_TWEET_LENGTH, \"tweet is too long!\") */\n      tag_80\n      jumpi\n      mload(0x40)\n      0x08c379a000000000000000000000000000000000000000000000000000000000\n      dup2\n      mstore\n      0x04\n      add\n      tag_81\n      swap1\n      tag_82\n      jump\t// in\n    tag_81:\n      mload(0x40)\n      dup1\n      swap2\n      sub\n      swap1\n      revert\n    tag_80:\n        /* \"contracts/Twitter.sol\":1042:1063  Tweet memory newTweet */\n      0x00\n        /* \"contracts/Twitter.sol\":1066:1259  Tweet ({... */\n      mload(0x40)\n      dup1\n      0xa0\n      add\n      0x40\n      mstore\n      dup1\n        /* \"contracts/Twitter.sol\":1093:1099  tweets */\n      0x01\n        /* \"contracts/Twitter.sol\":1093:1111  tweets[msg.sender] */\n      0x00\n        /* \"contracts/Twitter.sol\":1100:1110  msg.sender */\n      caller\n        /* \"contracts/Twitter.sol\":1093:1111  tweets[msg.sender] */\n      0xffffffffffffffffffffffffffffffffffffffff\n      and\n      0xffffffffffffffffffffffffffffffffffffffff\n      and\n      dup2\n      mstore\n      0x20\n      add\n      swap1\n      dup2\n      mstore\n      0x20\n      add\n      0x00\n      keccak256\n        /* \"contracts/Twitter.sol\":1093:1118  tweets[msg.sender].length */\n      dup1\n      sload\n      swap1\n      pop\n        /* \"contracts/Twitter.sol\":1066:1259  Tweet ({... */\n      dup2\n      mstore\n      0x20\n      add\n        /* \"contracts/Twitter.sol\":1142:1152  msg.sender */\n      caller\n        /* \"contracts/Twitter.sol\":1066:1259  Tweet ({... */\n      0xffffffffffffffffffffffffffffffffffffffff\n      and\n      dup2\n      mstore\n      0x20\n      add\n        /* \"contracts/Twitter.sol\":1176:1182  _tweet */\n      dup4\n        /* \"contracts/Twitter.sol\":1066:1259  Tweet ({... */\n      dup2\n      mstore\n      0x20\n      add\n        /* \"contracts/Twitter.sol\":1208:1223  block.timestamp */\n      timestamp\n        /* \"contracts/Twitter.sol\":1066:1259  Tweet ({... */\n      dup2\n      mstore\n      0x20\n      add\n        /* \"contracts/Twitter.sol\":1246:1247  0 */\n      0x00\n        /* \"contracts/Twitter.sol\":1066:1259  Tweet ({... */\n      dup2\n      mstore\n      pop\n        /* \"contracts/Twitter.sol\":1042:1259  Tweet memory newTweet = Tweet ({... */\n      swap1\n      pop\n        /* \"contracts/Twitter.sol\":1272:1278  tweets */\n      0x01\n        /* \"contracts/Twitter.sol\":1272:1290  tweets[msg.sender] */\n      0x00\n        /* \"contracts/Twitter.sol\":1279:1289  msg.sender */\n      caller\n        /* \"contracts/Twitter.sol\":1272:1290  tweets[msg.sender] */\n      0xffffffffffffffffffffffffffffffffffffffff\n      and\n      0xffffffffffffffffffffffffffffffffffffffff\n      and\n      dup2\n      mstore\n      0x20\n      add\n      swap1\n      dup2\n      mstore\n      0x20\n      add\n      0x00\n      keccak256\n        /* \"contracts/Twitter.sol\":1296:1304  newTweet */\n      dup2\n        /* \"contracts/Twitter.sol\":1272:1305  tweets[msg.sender].push(newTweet) */\n      swap1\n      dup1\n      0x01\n      dup2\n      sload\n      add\n      dup1\n      dup3\n      sstore\n      dup1\n      swap2\n      pop\n      pop\n      0x01\n      swap1\n      sub\n      swap1\n      0x00\n      mstore\n      keccak256(0x00, 0x20)\n      swap1\n      0x05\n      mul\n      add\n      0x00\n      swap1\n      swap2\n      swap1\n      swap2\n      swap1\n      swap2\n      pop\n      0x00\n      dup3\n      add\n      mload\n      dup2\n      0x00\n      add\n      sstore\n      0x20\n      dup3\n      add\n      mload\n      dup2\n      0x01\n      add\n      exp(0x0100, 0x00)\n      dup2\n      sload\n      dup2\n      0xffffffffffffffffffffffffffffffffffffffff\n      mul\n      not\n      and\n      swap1\n      dup4\n      0xffffffffffffffffffffffffffffffffffffffff\n      and\n      mul\n      or\n      swap1\n      sstore\n      pop\n      0x40\n      dup3\n      add\n      mload\n      dup2\n      0x02\n      add\n      swap1\n      dup2\n      tag_84\n      swap2\n      swap1\n      tag_85\n      jump\t// in\n    tag_84:\n      pop\n      0x60\n      dup3\n      add\n      mload\n      dup2\n      0x03\n      add\n      sstore\n      0x80\n      dup3\n      add\n      mload\n      dup2\n      0x04\n      add\n      sstore\n      pop\n      pop\n        /* \"contracts/Twitter.sol\":1321:1401  TweetCreated(newTweet.id, newTweet.author, newTweet.content, newTweet.timestamp) */\n      0x16fd3c13e9d46923e0a8bce11c7b473ec508a72e6c96cd2404b29ce972afc29e\n        /* \"contracts/Twitter.sol\":1334:1342  newTweet */\n      dup2\n        /* \"contracts/Twitter.sol\":1334:1345  newTweet.id */\n      0x00\n      add\n      mload\n        /* \"contracts/Twitter.sol\":1347:1355  newTweet */\n      dup3\n        /* \"contracts/Twitter.sol\":1347:1362  newTweet.author */\n      0x20\n      add\n      mload\n        /* \"contracts/Twitter.sol\":1364:1372  newTweet */\n      dup4\n        /* \"contracts/Twitter.sol\":1364:1380  newTweet.content */\n      0x40\n      add\n      mload\n        /* \"contracts/Twitter.sol\":1382:1390  newTweet */\n      dup5\n        /* \"contracts/Twitter.sol\":1382:1400  newTweet.timestamp */\n      0x60\n      add\n      mload\n        /* \"contracts/Twitter.sol\":1321:1401  TweetCreated(newTweet.id, newTweet.author, newTweet.content, newTweet.timestamp) */\n      mload(0x40)\n      tag_86\n      swap5\n      swap4\n      swap3\n      swap2\n      swap1\n      tag_87\n      jump\t// in\n    tag_86:\n      mload(0x40)\n      dup1\n      swap2\n      sub\n      swap1\n      log1\n        /* \"contracts/Twitter.sol\":936:1411  {... */\n      pop\n        /* \"contracts/Twitter.sol\":886:1411  function createTweet(string memory _tweet) public {... */\n      pop\n      jump\t// out\n        /* \"contracts/Twitter.sol\":2257:2535  function getTotalLikes(address _author) external view returns(uint256){... */\n    tag_39:\n        /* \"contracts/Twitter.sol\":2319:2326  uint256 */\n      0x00\n        /* \"contracts/Twitter.sol\":2340:2358  uint256 totalLikes */\n      dup1\n        /* \"contracts/Twitter.sol\":2377:2383  uint i */\n      0x00\n        /* \"contracts/Twitter.sol\":2372:2498  for (uint i = 0 ; i < tweets[_author].length; i++) ... */\n    tag_89:\n        /* \"contracts/Twitter.sol\":2394:2400  tweets */\n      0x01\n        /* \"contracts/Twitter.sol\":2394:2409  tweets[_author] */\n      0x00\n        /* \"contracts/Twitter.sol\":2401:2408  _author */\n      dup6\n        /* \"contracts/Twitter.sol\":2394:2409  tweets[_author] */\n      0xffffffffffffffffffffffffffffffffffffffff\n      and\n      0xffffffffffffffffffffffffffffffffffffffff\n      and\n      dup2\n      mstore\n      0x20\n      add\n      swap1\n      dup2\n      mstore\n      0x20\n      add\n      0x00\n      keccak256\n        /* \"contracts/Twitter.sol\":2394:2416  tweets[_author].length */\n      dup1\n      sload\n      swap1\n      pop\n        /* \"contracts/Twitter.sol\":2390:2391  i */\n      dup2\n        /* \"contracts/Twitter.sol\":2390:2416  i < tweets[_author].length */\n      lt\n        /* \"contracts/Twitter.sol\":2372:2498  for (uint i = 0 ; i < tweets[_author].length; i++) ... */\n      iszero\n      tag_90\n      jumpi\n        /* \"contracts/Twitter.sol\":2462:2468  tweets */\n      0x01\n        /* \"contracts/Twitter.sol\":2462:2477  tweets[_author] */\n      0x00\n        /* \"contracts/Twitter.sol\":2469:2476  _author */\n      dup6\n        /* \"contracts/Twitter.sol\":2462:2477  tweets[_author] */\n      0xffffffffffffffffffffffffffffffffffffffff\n      and\n      0xffffffffffffffffffffffffffffffffffffffff\n      and\n      dup2\n      mstore\n      0x20\n      add\n      swap1\n      dup2\n      mstore\n      0x20\n      add\n      0x00\n      keccak256\n        /* \"contracts/Twitter.sol\":2478:2479  i */\n      dup2\n        /* \"contracts/Twitter.sol\":2462:2480  tweets[_author][i] */\n      dup2\n      sload\n      dup2\n      lt\n      tag_92\n      jumpi\n      tag_93\n      tag_94\n      jump\t// in\n    tag_93:\n    tag_92:\n      swap1\n      0x00\n      mstore\n      keccak256(0x00, 0x20)\n      swap1\n      0x05\n      mul\n      add\n        /* \"contracts/Twitter.sol\":2462:2486  tweets[_author][i].likes */\n      0x04\n      add\n      sload\n        /* \"contracts/Twitter.sol\":2448:2486  totalLikes += tweets[_author][i].likes */\n      dup3\n      tag_96\n      swap2\n      swap1\n      tag_97\n      jump\t// in\n    tag_96:\n      swap2\n      pop\n        /* \"contracts/Twitter.sol\":2418:2421  i++ */\n      dup1\n      dup1\n      0x01\n      add\n      swap2\n      pop\n      pop\n        /* \"contracts/Twitter.sol\":2372:2498  for (uint i = 0 ; i < tweets[_author].length; i++) ... */\n      jump(tag_89)\n    tag_90:\n      pop\n        /* \"contracts/Twitter.sol\":2517:2527  totalLikes */\n      dup1\n        /* \"contracts/Twitter.sol\":2510:2527  return totalLikes */\n      swap2\n      pop\n      pop\n        /* \"contracts/Twitter.sol\":2257:2535  function getTotalLikes(address _author) external view returns(uint256){... */\n      swap2\n      swap1\n      pop\n      jump\t// out\n        /* \"contracts/Twitter.sol\":128:148  address public owner */\n    tag_43:\n      0x00\n      0x02\n      swap1\n      sload\n      swap1\n      0x0100\n      exp\n      swap1\n      div\n      0xffffffffffffffffffffffffffffffffffffffff\n      and\n      dup2\n      jump\t// out\n        /* \"contracts/Twitter.sol\":1919:2249  function unlikeTweet(uint256 id , address author) external {... */\n    tag_49:\n        /* \"contracts/Twitter.sol\":2024:2026  id */\n      dup2\n        /* \"contracts/Twitter.sol\":1999:2005  tweets */\n      0x01\n        /* \"contracts/Twitter.sol\":1999:2013  tweets[author] */\n      0x00\n        /* \"contracts/Twitter.sol\":2006:2012  author */\n      dup4\n        /* \"contracts/Twitter.sol\":1999:2013  tweets[author] */\n      0xffffffffffffffffffffffffffffffffffffffff\n      and\n      0xffffffffffffffffffffffffffffffffffffffff\n      and\n      dup2\n      mstore\n      0x20\n      add\n      swap1\n      dup2\n      mstore\n      0x20\n      add\n      0x00\n      keccak256\n        /* \"contracts/Twitter.sol\":2014:2016  id */\n      dup4\n        /* \"contracts/Twitter.sol\":1999:2017  tweets[author][id] */\n      dup2\n      sload\n      dup2\n      lt\n      tag_99\n      jumpi\n      tag_100\n      tag_94\n      jump\t// in\n    tag_100:\n    tag_99:\n      swap1\n      0x00\n      mstore\n      keccak256(0x00, 0x20)\n      swap1\n      0x05\n      mul\n      add\n        /* \"contracts/Twitter.sol\":1999:2020  tweets[author][id].id */\n      0x00\n      add\n      sload\n        /* \"contracts/Twitter.sol\":1999:2026  tweets[author][id].id == id */\n      eq\n        /* \"contracts/Twitter.sol\":1991:2050  require(tweets[author][id].id == id ,\"tweet doesnot exist\") */\n      tag_102\n      jumpi\n      mload(0x40)\n      0x08c379a000000000000000000000000000000000000000000000000000000000\n      dup2\n      mstore\n      0x04\n      add\n      tag_103\n      swap1\n      tag_104\n      jump\t// in\n    tag_103:\n      mload(0x40)\n      dup1\n      swap2\n      sub\n      swap1\n      revert\n    tag_102:\n        /* \"contracts/Twitter.sol\":2096:2097  0 */\n      0x00\n        /* \"contracts/Twitter.sol\":2069:2075  tweets */\n      0x01\n        /* \"contracts/Twitter.sol\":2069:2083  tweets[author] */\n      0x00\n        /* \"contracts/Twitter.sol\":2076:2082  author */\n      dup4\n        /* \"contracts/Twitter.sol\":2069:2083  tweets[author] */\n      0xffffffffffffffffffffffffffffffffffffffff\n      and\n      0xffffffffffffffffffffffffffffffffffffffff\n      and\n      dup2\n      mstore\n      0x20\n      add\n      swap1\n      dup2\n      mstore\n      0x20\n      add\n      0x00\n      keccak256\n        /* \"contracts/Twitter.sol\":2084:2086  id */\n      dup4\n        /* \"contracts/Twitter.sol\":2069:2087  tweets[author][id] */\n      dup2\n      sload\n      dup2\n      lt\n      tag_105\n      jumpi\n      tag_106\n      tag_94\n      jump\t// in\n    tag_106:\n    tag_105:\n      swap1\n      0x00\n      mstore\n      keccak256(0x00, 0x20)\n      swap1\n      0x05\n      mul\n      add\n        /* \"contracts/Twitter.sol\":2069:2093  tweets[author][id].likes */\n      0x04\n      add\n      sload\n        /* \"contracts/Twitter.sol\":2069:2097  tweets[author][id].likes > 0 */\n      gt\n        /* \"contracts/Twitter.sol\":2061:2116  require(tweets[author][id].likes > 0 ,\"cannot dislike\") */\n      tag_108\n      jumpi\n      mload(0x40)\n      0x08c379a000000000000000000000000000000000000000000000000000000000\n      dup2\n      mstore\n      0x04\n      add\n      tag_109\n      swap1\n      tag_110\n      jump\t// in\n    tag_109:\n      mload(0x40)\n      dup1\n      swap2\n      sub\n      swap1\n      revert\n    tag_108:\n        /* \"contracts/Twitter.sol\":2156:2157  1 */\n      0x01\n        /* \"contracts/Twitter.sol\":2129:2135  tweets */\n      dup1\n        /* \"contracts/Twitter.sol\":2129:2143  tweets[author] */\n      0x00\n        /* \"contracts/Twitter.sol\":2136:2142  author */\n      dup4\n        /* \"contracts/Twitter.sol\":2129:2143  tweets[author] */\n      0xffffffffffffffffffffffffffffffffffffffff\n      and\n      0xffffffffffffffffffffffffffffffffffffffff\n      and\n      dup2\n      mstore\n      0x20\n      add\n      swap1\n      dup2\n      mstore\n      0x20\n      add\n      0x00\n      keccak256\n        /* \"contracts/Twitter.sol\":2144:2146  id */\n      dup4\n        /* \"contracts/Twitter.sol\":2129:2147  tweets[author][id] */\n      dup2\n      sload\n      dup2\n      lt\n      tag_111\n      jumpi\n      tag_112\n      tag_94\n      jump\t// in\n    tag_112:\n    tag_111:\n      swap1\n      0x00\n      mstore\n      keccak256(0x00, 0x20)\n      swap1\n      0x05\n      mul\n      add\n        /* \"contracts/Twitter.sol\":2129:2153  tweets[author][id].likes */\n      0x04\n      add\n      0x00\n        /* \"contracts/Twitter.sol\":2129:2157  tweets[author][id].likes -=1 */\n      dup3\n      dup3\n      sload\n      tag_114\n      swap2\n      swap1\n      tag_115\n      jump\t// in\n    tag_114:\n      swap3\n      pop\n      pop\n      dup2\n      swap1\n      sstore\n      pop\n        /* \"contracts/Twitter.sol\":2175:2239  TweetUnLiked( msg.sender, author, id, tweets[author][id].likes ) */\n      0x273883c252143c4abce776697615e41ca9bc1aac5968c585d1c8ba8ffaa8b3c1\n        /* \"contracts/Twitter.sol\":2189:2199  msg.sender */\n      caller\n        /* \"contracts/Twitter.sol\":2201:2207  author */\n      dup3\n        /* \"contracts/Twitter.sol\":2209:2211  id */\n      dup5\n        /* \"contracts/Twitter.sol\":2213:2219  tweets */\n      0x01\n        /* \"contracts/Twitter.sol\":2213:2227  tweets[author] */\n      0x00\n        /* \"contracts/Twitter.sol\":2220:2226  author */\n      dup7\n        /* \"contracts/Twitter.sol\":2213:2227  tweets[author] */\n      0xffffffffffffffffffffffffffffffffffffffff\n      and\n      0xffffffffffffffffffffffffffffffffffffffff\n      and\n      dup2\n      mstore\n      0x20\n      add\n      swap1\n      dup2\n      mstore\n      0x20\n      add\n      0x00\n      keccak256\n        /* \"contracts/Twitter.sol\":2228:2230  id */\n      dup7\n        /* \"contracts/Twitter.sol\":2213:2231  tweets[author][id] */\n      dup2\n      sload\n      dup2\n      lt\n      tag_116\n      jumpi\n      tag_117\n      tag_94\n      jump\t// in\n    tag_117:\n    tag_116:\n      swap1\n      0x00\n      mstore\n      keccak256(0x00, 0x20)\n      swap1\n      0x05\n      mul\n      add\n        /* \"contracts/Twitter.sol\":2213:2237  tweets[author][id].likes */\n      0x04\n      add\n      sload\n        /* \"contracts/Twitter.sol\":2175:2239  TweetUnLiked( msg.sender, author, id, tweets[author][id].likes ) */\n      mload(0x40)\n      tag_119\n      swap5\n      swap4\n      swap3\n      swap2\n      swap1\n      tag_120\n      jump\t// in\n    tag_119:\n      mload(0x40)\n      dup1\n      swap2\n      sub\n      swap1\n      log1\n        /* \"contracts/Twitter.sol\":1919:2249  function unlikeTweet(uint256 id , address author) external {... */\n      pop\n      pop\n      jump\t// out\n        /* \"contracts/Twitter.sol\":1657:1911  function likeTweet(uint256 id , address author) external {... */\n    tag_52:\n        /* \"contracts/Twitter.sol\":1760:1762  id */\n      dup2\n        /* \"contracts/Twitter.sol\":1735:1741  tweets */\n      0x01\n        /* \"contracts/Twitter.sol\":1735:1749  tweets[author] */\n      0x00\n        /* \"contracts/Twitter.sol\":1742:1748  author */\n      dup4\n        /* \"contracts/Twitter.sol\":1735:1749  tweets[author] */\n      0xffffffffffffffffffffffffffffffffffffffff\n      and\n      0xffffffffffffffffffffffffffffffffffffffff\n      and\n      dup2\n      mstore\n      0x20\n      add\n      swap1\n      dup2\n      mstore\n      0x20\n      add\n      0x00\n      keccak256\n        /* \"contracts/Twitter.sol\":1750:1752  id */\n      dup4\n        /* \"contracts/Twitter.sol\":1735:1753  tweets[author][id] */\n      dup2\n      sload\n      dup2\n      lt\n      tag_122\n      jumpi\n      tag_123\n      tag_94\n      jump\t// in\n    tag_123:\n    tag_122:\n      swap1\n      0x00\n      mstore\n      keccak256(0x00, 0x20)\n      swap1\n      0x05\n      mul\n      add\n        /* \"contracts/Twitter.sol\":1735:1756  tweets[author][id].id */\n      0x00\n      add\n      sload\n        /* \"contracts/Twitter.sol\":1735:1762  tweets[author][id].id == id */\n      eq\n        /* \"contracts/Twitter.sol\":1727:1786  require(tweets[author][id].id == id ,\"tweet doesnot exist\") */\n      tag_125\n      jumpi\n      mload(0x40)\n      0x08c379a000000000000000000000000000000000000000000000000000000000\n      dup2\n      mstore\n      0x04\n      add\n      tag_126\n      swap1\n      tag_104\n      jump\t// in\n    tag_126:\n      mload(0x40)\n      dup1\n      swap2\n      sub\n      swap1\n      revert\n    tag_125:\n        /* \"contracts/Twitter.sol\":1824:1825  1 */\n      0x01\n        /* \"contracts/Twitter.sol\":1797:1803  tweets */\n      dup1\n        /* \"contracts/Twitter.sol\":1797:1811  tweets[author] */\n      0x00\n        /* \"contracts/Twitter.sol\":1804:1810  author */\n      dup4\n        /* \"contracts/Twitter.sol\":1797:1811  tweets[author] */\n      0xffffffffffffffffffffffffffffffffffffffff\n      and\n      0xffffffffffffffffffffffffffffffffffffffff\n      and\n      dup2\n      mstore\n      0x20\n      add\n      swap1\n      dup2\n      mstore\n      0x20\n      add\n      0x00\n      keccak256\n        /* \"contracts/Twitter.sol\":1812:1814  id */\n      dup4\n        /* \"contracts/Twitter.sol\":1797:1815  tweets[author][id] */\n      dup2\n      sload\n      dup2\n      lt\n      tag_127\n      jumpi\n      tag_128\n      tag_94\n      jump\t// in\n    tag_128:\n    tag_127:\n      swap1\n      0x00\n      mstore\n      keccak256(0x00, 0x20)\n      swap1\n      0x05\n      mul\n      add\n        /* \"contracts/Twitter.sol\":1797:1821  tweets[author][id].likes */\n      0x04\n      add\n      0x00\n        /* \"contracts/Twitter.sol\":1797:1825  tweets[author][id].likes +=1 */\n      dup3\n      dup3\n      sload\n      tag_130\n      swap2\n      swap1\n      tag_97\n      jump\t// in\n    tag_130:\n      swap3\n      pop\n      pop\n      dup2\n      swap1\n      sstore\n      pop\n        /* \"contracts/Twitter.sol\":1841:1903  TweetLiked( msg.sender, author, id, tweets[author][id].likes ) */\n      0xe8a76fc0f16d11a00d1e93b689b63d76cf60af914dd3d915375dc41d01a0c3c8\n        /* \"contracts/Twitter.sol\":1853:1863  msg.sender */\n      caller\n        /* \"contracts/Twitter.sol\":1865:1871  author */\n      dup3\n        /* \"contracts/Twitter.sol\":1873:1875  id */\n      dup5\n        /* \"contracts/Twitter.sol\":1877:1883  tweets */\n      0x01\n        /* \"contracts/Twitter.sol\":1877:1891  tweets[author] */\n      0x00\n        /* \"contracts/Twitter.sol\":1884:1890  author */\n      dup7\n        /* \"contracts/Twitter.sol\":1877:1891  tweets[author] */\n      0xffffffffffffffffffffffffffffffffffffffff\n      and\n      0xffffffffffffffffffffffffffffffffffffffff\n      and\n      dup2\n      mstore\n      0x20\n      add\n      swap1\n      dup2\n      mstore\n      0x20\n      add\n      0x00\n      keccak256\n        /* \"contracts/Twitter.sol\":1892:1894  id */\n      dup7\n        /* \"contracts/Twitter.sol\":1877:1895  tweets[author][id] */\n      dup2\n      sload\n      dup2\n      lt\n      tag_131\n      jumpi\n      tag_132\n      tag_94\n      jump\t// in\n    tag_132:\n    tag_131:\n      swap1\n      0x00\n      mstore\n      keccak256(0x00, 0x20)\n      swap1\n      0x05\n      mul\n      add\n        /* \"contracts/Twitter.sol\":1877:1901  tweets[author][id].likes */\n      0x04\n      add\n      sload\n        /* \"contracts/Twitter.sol\":1841:1903  TweetLiked( msg.sender, author, id, tweets[author][id].likes ) */\n      mload(0x40)\n      tag_134\n      swap5\n      swap4\n      swap3\n      swap2\n      swap1\n      tag_120\n      jump\t// in\n    tag_134:\n      mload(0x40)\n      dup1\n      swap2\n      sub\n      swap1\n      log1\n        /* \"contracts/Twitter.sol\":1657:1911  function likeTweet(uint256 id , address author) external {... */\n      pop\n      pop\n      jump\t// out\n        /* \"contracts/Twitter.sol\":1419:1534  function getTweets(uint ind) public view returns (Tweet memory) {... */\n    tag_56:\n        /* \"contracts/Twitter.sol\":1469:1481  Tweet memory */\n      tag_135\n      tag_136\n      jump\t// in\n    tag_135:\n        /* \"contracts/Twitter.sol\":1503:1509  tweets */\n      0x01\n        /* \"contracts/Twitter.sol\":1503:1521  tweets[msg.sender] */\n      0x00\n        /* \"contracts/Twitter.sol\":1510:1520  msg.sender */\n      caller\n        /* \"contracts/Twitter.sol\":1503:1521  tweets[msg.sender] */\n      0xffffffffffffffffffffffffffffffffffffffff\n      and\n      0xffffffffffffffffffffffffffffffffffffffff\n      and\n      dup2\n      mstore\n      0x20\n      add\n      swap1\n      dup2\n      mstore\n      0x20\n      add\n      0x00\n      keccak256\n        /* \"contracts/Twitter.sol\":1522:1525  ind */\n      dup3\n        /* \"contracts/Twitter.sol\":1503:1526  tweets[msg.sender][ind] */\n      dup2\n      sload\n      dup2\n      lt\n      tag_138\n      jumpi\n      tag_139\n      tag_94\n      jump\t// in\n    tag_139:\n    tag_138:\n      swap1\n      0x00\n      mstore\n      keccak256(0x00, 0x20)\n      swap1\n      0x05\n      mul\n      add\n        /* \"contracts/Twitter.sol\":1496:1526  return tweets[msg.sender][ind] */\n      mload(0x40)\n      dup1\n      0xa0\n      add\n      0x40\n      mstore\n      swap1\n      dup2\n      0x00\n      dup3\n      add\n      sload\n      dup2\n      mstore\n      0x20\n      add\n      0x01\n      dup3\n      add\n      0x00\n      swap1\n      sload\n      swap1\n      0x0100\n      exp\n      swap1\n      div\n      0xffffffffffffffffffffffffffffffffffffffff\n      and\n      0xffffffffffffffffffffffffffffffffffffffff\n      and\n      0xffffffffffffffffffffffffffffffffffffffff\n      and\n      dup2\n      mstore\n      0x20\n      add\n      0x02\n      dup3\n      add\n      dup1\n      sload\n      tag_141\n      swap1\n      tag_62\n      jump\t// in\n    tag_141:\n      dup1\n      0x1f\n      add\n      0x20\n      dup1\n      swap2\n      div\n      mul\n      0x20\n      add\n      mload(0x40)\n      swap1\n      dup2\n      add\n      0x40\n      mstore\n      dup1\n      swap3\n      swap2\n      swap1\n      dup2\n      dup2\n      mstore\n      0x20\n      add\n      dup3\n      dup1\n      sload\n      tag_142\n      swap1\n      tag_62\n      jump\t// in\n    tag_142:\n      dup1\n      iszero\n      tag_143\n      jumpi\n      dup1\n      0x1f\n      lt\n      tag_144\n      jumpi\n      0x0100\n      dup1\n      dup4\n      sload\n      div\n      mul\n      dup4\n      mstore\n      swap2\n      0x20\n      add\n      swap2\n      jump(tag_143)\n    tag_144:\n      dup3\n      add\n      swap2\n      swap1\n      0x00\n      mstore\n      keccak256(0x00, 0x20)\n      swap1\n    tag_145:\n      dup2\n      sload\n      dup2\n      mstore\n      swap1\n      0x01\n      add\n      swap1\n      0x20\n      add\n      dup1\n      dup4\n      gt\n      tag_145\n      jumpi\n      dup3\n      swap1\n      sub\n      0x1f\n      and\n      dup3\n      add\n      swap2\n    tag_143:\n      pop\n      pop\n      pop\n      pop\n      pop\n      dup2\n      mstore\n      0x20\n      add\n      0x03\n      dup3\n      add\n      sload\n      dup2\n      mstore\n      0x20\n      add\n      0x04\n      dup3\n      add\n      sload\n      dup2\n      mstore\n      pop\n      pop\n      swap1\n      pop\n        /* \"contracts/Twitter.sol\":1419:1534  function getTweets(uint ind) public view returns (Tweet memory) {... */\n      swap2\n      swap1\n      pop\n      jump\t// out\n    tag_136:\n      mload(0x40)\n      dup1\n      0xa0\n      add\n      0x40\n      mstore\n      dup1\n      0x00\n      dup2\n      mstore\n      0x20\n      add\n      and(0xffffffffffffffffffffffffffffffffffffffff, 0x00)\n      dup2\n      mstore\n      0x20\n      add\n      0x60\n      dup2\n      mstore\n      0x20\n      add\n      0x00\n      dup2\n      mstore\n      0x20\n      add\n      0x00\n      dup2\n      mstore\n      pop\n      swap1\n      jump\t// out\n        /* \"#utility.yul\":7:82   */\n    tag_146:\n        /* \"#utility.yul\":40:46   */\n      0x00\n        /* \"#utility.yul\":73:75   */\n      0x40\n        /* \"#utility.yul\":67:76   */\n      mload\n        /* \"#utility.yul\":57:76   */\n      swap1\n      pop\n        /* \"#utility.yul\":7:82   */\n      swap1\n      jump\t// out\n        /* \"#utility.yul\":88:205   */\n    tag_147:\n        /* \"#utility.yul\":197:198   */\n      0x00\n        /* \"#utility.yul\":194:195   */\n      dup1\n        /* \"#utility.yul\":187:199   */\n      revert\n        /* \"#utility.yul\":211:328   */\n    tag_148:\n        /* \"#utility.yul\":320:321   */\n      0x00\n        /* \"#utility.yul\":317:318   */\n      dup1\n        /* \"#utility.yul\":310:322   */\n      revert\n        /* \"#utility.yul\":334:460   */\n    tag_149:\n        /* \"#utility.yul\":371:378   */\n      0x00\n        /* \"#utility.yul\":411:453   */\n      0xffffffffffffffffffffffffffffffffffffffff\n        /* \"#utility.yul\":404:409   */\n      dup3\n        /* \"#utility.yul\":400:454   */\n      and\n        /* \"#utility.yul\":389:454   */\n      swap1\n      pop\n        /* \"#utility.yul\":334:460   */\n      swap2\n      swap1\n      pop\n      jump\t// out\n        /* \"#utility.yul\":466:562   */\n    tag_150:\n        /* \"#utility.yul\":503:510   */\n      0x00\n        /* \"#utility.yul\":532:556   */\n      tag_217\n        /* \"#utility.yul\":550:555   */\n      dup3\n        /* \"#utility.yul\":532:556   */\n      tag_149\n      jump\t// in\n    tag_217:\n        /* \"#utility.yul\":521:556   */\n      swap1\n      pop\n        /* \"#utility.yul\":466:562   */\n      swap2\n      swap1\n      pop\n      jump\t// out\n        /* \"#utility.yul\":568:690   */\n    tag_151:\n        /* \"#utility.yul\":641:665   */\n      tag_219\n        /* \"#utility.yul\":659:664   */\n      dup2\n        /* \"#utility.yul\":641:665   */\n      tag_150\n      jump\t// in\n    tag_219:\n        /* \"#utility.yul\":634:639   */\n      dup2\n        /* \"#utility.yul\":631:666   */\n      eq\n        /* \"#utility.yul\":621:684   */\n      tag_220\n      jumpi\n        /* \"#utility.yul\":680:681   */\n      0x00\n        /* \"#utility.yul\":677:678   */\n      dup1\n        /* \"#utility.yul\":670:682   */\n      revert\n        /* \"#utility.yul\":621:684   */\n    tag_220:\n        /* \"#utility.yul\":568:690   */\n      pop\n      jump\t// out\n        /* \"#utility.yul\":696:835   */\n    tag_152:\n        /* \"#utility.yul\":742:747   */\n      0x00\n        /* \"#utility.yul\":780:786   */\n      dup2\n        /* \"#utility.yul\":767:787   */\n      calldataload\n        /* \"#utility.yul\":758:787   */\n      swap1\n      pop\n        /* \"#utility.yul\":796:829   */\n      tag_222\n        /* \"#utility.yul\":823:828   */\n      dup2\n        /* \"#utility.yul\":796:829   */\n      tag_151\n      jump\t// in\n    tag_222:\n        /* \"#utility.yul\":696:835   */\n      swap3\n      swap2\n      pop\n      pop\n      jump\t// out\n        /* \"#utility.yul\":841:918   */\n    tag_153:\n        /* \"#utility.yul\":878:885   */\n      0x00\n        /* \"#utility.yul\":907:912   */\n      dup2\n        /* \"#utility.yul\":896:912   */\n      swap1\n      pop\n        /* \"#utility.yul\":841:918   */\n      swap2\n      swap1\n      pop\n      jump\t// out\n        /* \"#utility.yul\":924:1046   */\n    tag_154:\n        /* \"#utility.yul\":997:1021   */\n      tag_225\n        /* \"#utility.yul\":1015:1020   */\n      dup2\n        /* \"#utility.yul\":997:1021   */\n      tag_153\n      jump\t// in\n    tag_225:\n        /* \"#utility.yul\":990:995   */\n      dup2\n        /* \"#utility.yul\":987:1022   */\n      eq\n        /* \"#utility.yul\":977:1040   */\n      tag_226\n      jumpi\n        /* \"#utility.yul\":1036:1037   */\n      0x00\n        /* \"#utility.yul\":1033:1034   */\n      dup1\n        /* \"#utility.yul\":1026:1038   */\n      revert\n        /* \"#utility.yul\":977:1040   */\n    tag_226:\n        /* \"#utility.yul\":924:1046   */\n      pop\n      jump\t// out\n        /* \"#utility.yul\":1052:1191   */\n    tag_155:\n        /* \"#utility.yul\":1098:1103   */\n      0x00\n        /* \"#utility.yul\":1136:1142   */\n      dup2\n        /* \"#utility.yul\":1123:1143   */\n      calldataload\n        /* \"#utility.yul\":1114:1143   */\n      swap1\n      pop\n        /* \"#utility.yul\":1152:1185   */\n      tag_228\n        /* \"#utility.yul\":1179:1184   */\n      dup2\n        /* \"#utility.yul\":1152:1185   */\n      tag_154\n      jump\t// in\n    tag_228:\n        /* \"#utility.yul\":1052:1191   */\n      swap3\n      swap2\n      pop\n      pop\n      jump\t// out\n        /* \"#utility.yul\":1197:1671   */\n    tag_16:\n        /* \"#utility.yul\":1265:1271   */\n      0x00\n        /* \"#utility.yul\":1273:1279   */\n      dup1\n        /* \"#utility.yul\":1322:1324   */\n      0x40\n        /* \"#utility.yul\":1310:1319   */\n      dup4\n        /* \"#utility.yul\":1301:1308   */\n      dup6\n        /* \"#utility.yul\":1297:1320   */\n      sub\n        /* \"#utility.yul\":1293:1325   */\n      slt\n        /* \"#utility.yul\":1290:1409   */\n      iszero\n      tag_230\n      jumpi\n        /* \"#utility.yul\":1328:1407   */\n      tag_231\n      tag_147\n      jump\t// in\n    tag_231:\n        /* \"#utility.yul\":1290:1409   */\n    tag_230:\n        /* \"#utility.yul\":1448:1449   */\n      0x00\n        /* \"#utility.yul\":1473:1526   */\n      tag_232\n        /* \"#utility.yul\":1518:1525   */\n      dup6\n        /* \"#utility.yul\":1509:1515   */\n      dup3\n        /* \"#utility.yul\":1498:1507   */\n      dup7\n        /* \"#utility.yul\":1494:1516   */\n      add\n        /* \"#utility.yul\":1473:1526   */\n      tag_152\n      jump\t// in\n    tag_232:\n        /* \"#utility.yul\":1463:1526   */\n      swap3\n      pop\n        /* \"#utility.yul\":1419:1536   */\n      pop\n        /* \"#utility.yul\":1575:1577   */\n      0x20\n        /* \"#utility.yul\":1601:1654   */\n      tag_233\n        /* \"#utility.yul\":1646:1653   */\n      dup6\n        /* \"#utility.yul\":1637:1643   */\n      dup3\n        /* \"#utility.yul\":1626:1635   */\n      dup7\n        /* \"#utility.yul\":1622:1644   */\n      add\n        /* \"#utility.yul\":1601:1654   */\n      tag_155\n      jump\t// in\n    tag_233:\n        /* \"#utility.yul\":1591:1654   */\n      swap2\n      pop\n        /* \"#utility.yul\":1546:1664   */\n      pop\n        /* \"#utility.yul\":1197:1671   */\n      swap3\n      pop\n      swap3\n      swap1\n      pop\n      jump\t// out\n        /* \"#utility.yul\":1677:1795   */\n    tag_156:\n        /* \"#utility.yul\":1764:1788   */\n      tag_235\n        /* \"#utility.yul\":1782:1787   */\n      dup2\n        /* \"#utility.yul\":1764:1788   */\n      tag_153\n      jump\t// in\n    tag_235:\n        /* \"#utility.yul\":1759:1762   */\n      dup3\n        /* \"#utility.yul\":1752:1789   */\n      mstore\n        /* \"#utility.yul\":1677:1795   */\n      pop\n      pop\n      jump\t// out\n        /* \"#utility.yul\":1801:1919   */\n    tag_157:\n        /* \"#utility.yul\":1888:1912   */\n      tag_237\n        /* \"#utility.yul\":1906:1911   */\n      dup2\n        /* \"#utility.yul\":1888:1912   */\n      tag_150\n      jump\t// in\n    tag_237:\n        /* \"#utility.yul\":1883:1886   */\n      dup3\n        /* \"#utility.yul\":1876:1913   */\n      mstore\n        /* \"#utility.yul\":1801:1919   */\n      pop\n      pop\n      jump\t// out\n        /* \"#utility.yul\":1925:2024   */\n    tag_158:\n        /* \"#utility.yul\":1977:1983   */\n      0x00\n        /* \"#utility.yul\":2011:2016   */\n      dup2\n        /* \"#utility.yul\":2005:2017   */\n      mload\n        /* \"#utility.yul\":1995:2017   */\n      swap1\n      pop\n        /* \"#utility.yul\":1925:2024   */\n      swap2\n      swap1\n      pop\n      jump\t// out\n        /* \"#utility.yul\":2030:2199   */\n    tag_159:\n        /* \"#utility.yul\":2114:2125   */\n      0x00\n        /* \"#utility.yul\":2148:2154   */\n      dup3\n        /* \"#utility.yul\":2143:2146   */\n      dup3\n        /* \"#utility.yul\":2136:2155   */\n      mstore\n        /* \"#utility.yul\":2188:2192   */\n      0x20\n        /* \"#utility.yul\":2183:2186   */\n      dup3\n        /* \"#utility.yul\":2179:2193   */\n      add\n        /* \"#utility.yul\":2164:2193   */\n      swap1\n      pop\n        /* \"#utility.yul\":2030:2199   */\n      swap3\n      swap2\n      pop\n      pop\n      jump\t// out\n        /* \"#utility.yul\":2205:2344   */\n    tag_160:\n        /* \"#utility.yul\":2294:2300   */\n      dup3\n        /* \"#utility.yul\":2289:2292   */\n      dup2\n        /* \"#utility.yul\":2284:2287   */\n      dup4\n        /* \"#utility.yul\":2278:2301   */\n      mcopy\n        /* \"#utility.yul\":2335:2336   */\n      0x00\n        /* \"#utility.yul\":2326:2332   */\n      dup4\n        /* \"#utility.yul\":2321:2324   */\n      dup4\n        /* \"#utility.yul\":2317:2333   */\n      add\n        /* \"#utility.yul\":2310:2337   */\n      mstore\n        /* \"#utility.yul\":2205:2344   */\n      pop\n      pop\n      pop\n      jump\t// out\n        /* \"#utility.yul\":2350:2452   */\n    tag_161:\n        /* \"#utility.yul\":2391:2397   */\n      0x00\n        /* \"#utility.yul\":2442:2444   */\n      0x1f\n        /* \"#utility.yul\":2438:2445   */\n      not\n        /* \"#utility.yul\":2433:2435   */\n      0x1f\n        /* \"#utility.yul\":2426:2431   */\n      dup4\n        /* \"#utility.yul\":2422:2436   */\n      add\n        /* \"#utility.yul\":2418:2446   */\n      and\n        /* \"#utility.yul\":2408:2446   */\n      swap1\n      pop\n        /* \"#utility.yul\":2350:2452   */\n      swap2\n      swap1\n      pop\n      jump\t// out\n        /* \"#utility.yul\":2458:2835   */\n    tag_162:\n        /* \"#utility.yul\":2546:2549   */\n      0x00\n        /* \"#utility.yul\":2574:2613   */\n      tag_243\n        /* \"#utility.yul\":2607:2612   */\n      dup3\n        /* \"#utility.yul\":2574:2613   */\n      tag_158\n      jump\t// in\n    tag_243:\n        /* \"#utility.yul\":2629:2700   */\n      tag_244\n        /* \"#utility.yul\":2693:2699   */\n      dup2\n        /* \"#utility.yul\":2688:2691   */\n      dup6\n        /* \"#utility.yul\":2629:2700   */\n      tag_159\n      jump\t// in\n    tag_244:\n        /* \"#utility.yul\":2622:2700   */\n      swap4\n      pop\n        /* \"#utility.yul\":2709:2774   */\n      tag_245\n        /* \"#utility.yul\":2767:2773   */\n      dup2\n        /* \"#utility.yul\":2762:2765   */\n      dup6\n        /* \"#utility.yul\":2755:2759   */\n      0x20\n        /* \"#utility.yul\":2748:2753   */\n      dup7\n        /* \"#utility.yul\":2744:2760   */\n      add\n        /* \"#utility.yul\":2709:2774   */\n      tag_160\n      jump\t// in\n    tag_245:\n        /* \"#utility.yul\":2799:2828   */\n      tag_246\n        /* \"#utility.yul\":2821:2827   */\n      dup2\n        /* \"#utility.yul\":2799:2828   */\n      tag_161\n      jump\t// in\n    tag_246:\n        /* \"#utility.yul\":2794:2797   */\n      dup5\n        /* \"#utility.yul\":2790:2829   */\n      add\n        /* \"#utility.yul\":2783:2829   */\n      swap2\n      pop\n        /* \"#utility.yul\":2550:2835   */\n      pop\n        /* \"#utility.yul\":2458:2835   */\n      swap3\n      swap2\n      pop\n      pop\n      jump\t// out\n        /* \"#utility.yul\":2841:3596   */\n    tag_19:\n        /* \"#utility.yul\":3066:3070   */\n      0x00\n        /* \"#utility.yul\":3104:3107   */\n      0xa0\n        /* \"#utility.yul\":3093:3102   */\n      dup3\n        /* \"#utility.yul\":3089:3108   */\n      add\n        /* \"#utility.yul\":3081:3108   */\n      swap1\n      pop\n        /* \"#utility.yul\":3118:3189   */\n      tag_248\n        /* \"#utility.yul\":3186:3187   */\n      0x00\n        /* \"#utility.yul\":3175:3184   */\n      dup4\n        /* \"#utility.yul\":3171:3188   */\n      add\n        /* \"#utility.yul\":3162:3168   */\n      dup9\n        /* \"#utility.yul\":3118:3189   */\n      tag_156\n      jump\t// in\n    tag_248:\n        /* \"#utility.yul\":3199:3271   */\n      tag_249\n        /* \"#utility.yul\":3267:3269   */\n      0x20\n        /* \"#utility.yul\":3256:3265   */\n      dup4\n        /* \"#utility.yul\":3252:3270   */\n      add\n        /* \"#utility.yul\":3243:3249   */\n      dup8\n        /* \"#utility.yul\":3199:3271   */\n      tag_157\n      jump\t// in\n    tag_249:\n        /* \"#utility.yul\":3318:3327   */\n      dup2\n        /* \"#utility.yul\":3312:3316   */\n      dup2\n        /* \"#utility.yul\":3308:3328   */\n      sub\n        /* \"#utility.yul\":3303:3305   */\n      0x40\n        /* \"#utility.yul\":3292:3301   */\n      dup4\n        /* \"#utility.yul\":3288:3306   */\n      add\n        /* \"#utility.yul\":3281:3329   */\n      mstore\n        /* \"#utility.yul\":3346:3424   */\n      tag_250\n        /* \"#utility.yul\":3419:3423   */\n      dup2\n        /* \"#utility.yul\":3410:3416   */\n      dup7\n        /* \"#utility.yul\":3346:3424   */\n      tag_162\n      jump\t// in\n    tag_250:\n        /* \"#utility.yul\":3338:3424   */\n      swap1\n      pop\n        /* \"#utility.yul\":3434:3506   */\n      tag_251\n        /* \"#utility.yul\":3502:3504   */\n      0x60\n        /* \"#utility.yul\":3491:3500   */\n      dup4\n        /* \"#utility.yul\":3487:3505   */\n      add\n        /* \"#utility.yul\":3478:3484   */\n      dup6\n        /* \"#utility.yul\":3434:3506   */\n      tag_156\n      jump\t// in\n    tag_251:\n        /* \"#utility.yul\":3516:3589   */\n      tag_252\n        /* \"#utility.yul\":3584:3587   */\n      0x80\n        /* \"#utility.yul\":3573:3582   */\n      dup4\n        /* \"#utility.yul\":3569:3588   */\n      add\n        /* \"#utility.yul\":3560:3566   */\n      dup5\n        /* \"#utility.yul\":3516:3589   */\n      tag_156\n      jump\t// in\n    tag_252:\n        /* \"#utility.yul\":2841:3596   */\n      swap7\n      swap6\n      pop\n      pop\n      pop\n      pop\n      pop\n      pop\n      jump\t// out\n        /* \"#utility.yul\":3602:3737   */\n    tag_163:\n        /* \"#utility.yul\":3690:3696   */\n      0x00\n        /* \"#utility.yul\":3724:3729   */\n      dup2\n        /* \"#utility.yul\":3718:3730   */\n      mload\n        /* \"#utility.yul\":3708:3730   */\n      swap1\n      pop\n        /* \"#utility.yul\":3602:3737   */\n      swap2\n      swap1\n      pop\n      jump\t// out\n        /* \"#utility.yul\":3743:3948   */\n    tag_164:\n        /* \"#utility.yul\":3863:3874   */\n      0x00\n        /* \"#utility.yul\":3897:3903   */\n      dup3\n        /* \"#utility.yul\":3892:3895   */\n      dup3\n        /* \"#utility.yul\":3885:3904   */\n      mstore\n        /* \"#utility.yul\":3937:3941   */\n      0x20\n        /* \"#utility.yul\":3932:3935   */\n      dup3\n        /* \"#utility.yul\":3928:3942   */\n      add\n        /* \"#utility.yul\":3913:3942   */\n      swap1\n      pop\n        /* \"#utility.yul\":3743:3948   */\n      swap3\n      swap2\n      pop\n      pop\n      jump\t// out\n        /* \"#utility.yul\":3954:4107   */\n    tag_165:\n        /* \"#utility.yul\":4042:4046   */\n      0x00\n        /* \"#utility.yul\":4065:4068   */\n      dup2\n        /* \"#utility.yul\":4057:4068   */\n      swap1\n      pop\n        /* \"#utility.yul\":4095:4099   */\n      0x20\n        /* \"#utility.yul\":4090:4093   */\n      dup3\n        /* \"#utility.yul\":4086:4100   */\n      add\n        /* \"#utility.yul\":4078:4100   */\n      swap1\n      pop\n        /* \"#utility.yul\":3954:4107   */\n      swap2\n      swap1\n      pop\n      jump\t// out\n        /* \"#utility.yul\":4113:4221   */\n    tag_166:\n        /* \"#utility.yul\":4190:4214   */\n      tag_257\n        /* \"#utility.yul\":4208:4213   */\n      dup2\n        /* \"#utility.yul\":4190:4214   */\n      tag_153\n      jump\t// in\n    tag_257:\n        /* \"#utility.yul\":4185:4188   */\n      dup3\n        /* \"#utility.yul\":4178:4215   */\n      mstore\n        /* \"#utility.yul\":4113:4221   */\n      pop\n      pop\n      jump\t// out\n        /* \"#utility.yul\":4227:4335   */\n    tag_167:\n        /* \"#utility.yul\":4304:4328   */\n      tag_259\n        /* \"#utility.yul\":4322:4327   */\n      dup2\n        /* \"#utility.yul\":4304:4328   */\n      tag_150\n      jump\t// in\n    tag_259:\n        /* \"#utility.yul\":4299:4302   */\n      dup3\n        /* \"#utility.yul\":4292:4329   */\n      mstore\n        /* \"#utility.yul\":4227:4335   */\n      pop\n      pop\n      jump\t// out\n        /* \"#utility.yul\":4341:4500   */\n    tag_168:\n        /* \"#utility.yul\":4415:4426   */\n      0x00\n        /* \"#utility.yul\":4449:4455   */\n      dup3\n        /* \"#utility.yul\":4444:4447   */\n      dup3\n        /* \"#utility.yul\":4437:4456   */\n      mstore\n        /* \"#utility.yul\":4489:4493   */\n      0x20\n        /* \"#utility.yul\":4484:4487   */\n      dup3\n        /* \"#utility.yul\":4480:4494   */\n      add\n        /* \"#utility.yul\":4465:4494   */\n      swap1\n      pop\n        /* \"#utility.yul\":4341:4500   */\n      swap3\n      swap2\n      pop\n      pop\n      jump\t// out\n        /* \"#utility.yul\":4506:4863   */\n    tag_169:\n        /* \"#utility.yul\":4584:4587   */\n      0x00\n        /* \"#utility.yul\":4612:4651   */\n      tag_262\n        /* \"#utility.yul\":4645:4650   */\n      dup3\n        /* \"#utility.yul\":4612:4651   */\n      tag_158\n      jump\t// in\n    tag_262:\n        /* \"#utility.yul\":4667:4728   */\n      tag_263\n        /* \"#utility.yul\":4721:4727   */\n      dup2\n        /* \"#utility.yul\":4716:4719   */\n      dup6\n        /* \"#utility.yul\":4667:4728   */\n      tag_168\n      jump\t// in\n    tag_263:\n        /* \"#utility.yul\":4660:4728   */\n      swap4\n      pop\n        /* \"#utility.yul\":4737:4802   */\n      tag_264\n        /* \"#utility.yul\":4795:4801   */\n      dup2\n        /* \"#utility.yul\":4790:4793   */\n      dup6\n        /* \"#utility.yul\":4783:4787   */\n      0x20\n        /* \"#utility.yul\":4776:4781   */\n      dup7\n        /* \"#utility.yul\":4772:4788   */\n      add\n        /* \"#utility.yul\":4737:4802   */\n      tag_160\n      jump\t// in\n    tag_264:\n        /* \"#utility.yul\":4827:4856   */\n      tag_265\n        /* \"#utility.yul\":4849:4855   */\n      dup2\n        /* \"#utility.yul\":4827:4856   */\n      tag_161\n      jump\t// in\n    tag_265:\n        /* \"#utility.yul\":4822:4825   */\n      dup5\n        /* \"#utility.yul\":4818:4857   */\n      add\n        /* \"#utility.yul\":4811:4857   */\n      swap2\n      pop\n        /* \"#utility.yul\":4588:4863   */\n      pop\n        /* \"#utility.yul\":4506:4863   */\n      swap3\n      swap2\n      pop\n      pop\n      jump\t// out\n        /* \"#utility.yul\":4921:6040   */\n    tag_170:\n        /* \"#utility.yul\":5022:5025   */\n      0x00\n        /* \"#utility.yul\":5058:5062   */\n      0xa0\n        /* \"#utility.yul\":5053:5056   */\n      dup4\n        /* \"#utility.yul\":5049:5063   */\n      add\n        /* \"#utility.yul\":5143:5147   */\n      0x00\n        /* \"#utility.yul\":5136:5141   */\n      dup4\n        /* \"#utility.yul\":5132:5148   */\n      add\n        /* \"#utility.yul\":5126:5149   */\n      mload\n        /* \"#utility.yul\":5162:5225   */\n      tag_267\n        /* \"#utility.yul\":5219:5223   */\n      0x00\n        /* \"#utility.yul\":5214:5217   */\n      dup7\n        /* \"#utility.yul\":5210:5224   */\n      add\n        /* \"#utility.yul\":5196:5208   */\n      dup3\n        /* \"#utility.yul\":5162:5225   */\n      tag_166\n      jump\t// in\n    tag_267:\n        /* \"#utility.yul\":5073:5235   */\n      pop\n        /* \"#utility.yul\":5319:5323   */\n      0x20\n        /* \"#utility.yul\":5312:5317   */\n      dup4\n        /* \"#utility.yul\":5308:5324   */\n      add\n        /* \"#utility.yul\":5302:5325   */\n      mload\n        /* \"#utility.yul\":5338:5401   */\n      tag_268\n        /* \"#utility.yul\":5395:5399   */\n      0x20\n        /* \"#utility.yul\":5390:5393   */\n      dup7\n        /* \"#utility.yul\":5386:5400   */\n      add\n        /* \"#utility.yul\":5372:5384   */\n      dup3\n        /* \"#utility.yul\":5338:5401   */\n      tag_167\n      jump\t// in\n    tag_268:\n        /* \"#utility.yul\":5245:5411   */\n      pop\n        /* \"#utility.yul\":5496:5500   */\n      0x40\n        /* \"#utility.yul\":5489:5494   */\n      dup4\n        /* \"#utility.yul\":5485:5501   */\n      add\n        /* \"#utility.yul\":5479:5502   */\n      mload\n        /* \"#utility.yul\":5549:5552   */\n      dup5\n        /* \"#utility.yul\":5543:5547   */\n      dup3\n        /* \"#utility.yul\":5539:5553   */\n      sub\n        /* \"#utility.yul\":5532:5536   */\n      0x40\n        /* \"#utility.yul\":5527:5530   */\n      dup7\n        /* \"#utility.yul\":5523:5537   */\n      add\n        /* \"#utility.yul\":5516:5554   */\n      mstore\n        /* \"#utility.yul\":5575:5648   */\n      tag_269\n        /* \"#utility.yul\":5643:5647   */\n      dup3\n        /* \"#utility.yul\":5629:5641   */\n      dup3\n        /* \"#utility.yul\":5575:5648   */\n      tag_169\n      jump\t// in\n    tag_269:\n        /* \"#utility.yul\":5567:5648   */\n      swap2\n      pop\n        /* \"#utility.yul\":5421:5659   */\n      pop\n        /* \"#utility.yul\":5746:5750   */\n      0x60\n        /* \"#utility.yul\":5739:5744   */\n      dup4\n        /* \"#utility.yul\":5735:5751   */\n      add\n        /* \"#utility.yul\":5729:5752   */\n      mload\n        /* \"#utility.yul\":5765:5828   */\n      tag_270\n        /* \"#utility.yul\":5822:5826   */\n      0x60\n        /* \"#utility.yul\":5817:5820   */\n      dup7\n        /* \"#utility.yul\":5813:5827   */\n      add\n        /* \"#utility.yul\":5799:5811   */\n      dup3\n        /* \"#utility.yul\":5765:5828   */\n      tag_166\n      jump\t// in\n    tag_270:\n        /* \"#utility.yul\":5669:5838   */\n      pop\n        /* \"#utility.yul\":5921:5925   */\n      0x80\n        /* \"#utility.yul\":5914:5919   */\n      dup4\n        /* \"#utility.yul\":5910:5926   */\n      add\n        /* \"#utility.yul\":5904:5927   */\n      mload\n        /* \"#utility.yul\":5940:6003   */\n      tag_271\n        /* \"#utility.yul\":5997:6001   */\n      0x80\n        /* \"#utility.yul\":5992:5995   */\n      dup7\n        /* \"#utility.yul\":5988:6002   */\n      add\n        /* \"#utility.yul\":5974:5986   */\n      dup3\n        /* \"#utility.yul\":5940:6003   */\n      tag_166\n      jump\t// in\n    tag_271:\n        /* \"#utility.yul\":5848:6013   */\n      pop\n        /* \"#utility.yul\":6030:6034   */\n      dup1\n        /* \"#utility.yul\":6023:6034   */\n      swap2\n      pop\n        /* \"#utility.yul\":5027:6040   */\n      pop\n        /* \"#utility.yul\":4921:6040   */\n      swap3\n      swap2\n      pop\n      pop\n      jump\t// out\n        /* \"#utility.yul\":6046:6286   */\n    tag_171:\n        /* \"#utility.yul\":6157:6167   */\n      0x00\n        /* \"#utility.yul\":6192:6280   */\n      tag_273\n        /* \"#utility.yul\":6276:6279   */\n      dup4\n        /* \"#utility.yul\":6268:6274   */\n      dup4\n        /* \"#utility.yul\":6192:6280   */\n      tag_170\n      jump\t// in\n    tag_273:\n        /* \"#utility.yul\":6178:6280   */\n      swap1\n      pop\n        /* \"#utility.yul\":6046:6286   */\n      swap3\n      swap2\n      pop\n      pop\n      jump\t// out\n        /* \"#utility.yul\":6292:6426   */\n    tag_172:\n        /* \"#utility.yul\":6383:6387   */\n      0x00\n        /* \"#utility.yul\":6415:6419   */\n      0x20\n        /* \"#utility.yul\":6410:6413   */\n      dup3\n        /* \"#utility.yul\":6406:6420   */\n      add\n        /* \"#utility.yul\":6398:6420   */\n      swap1\n      pop\n        /* \"#utility.yul\":6292:6426   */\n      swap2\n      swap1\n      pop\n      jump\t// out\n        /* \"#utility.yul\":6488:7567   */\n    tag_173:\n        /* \"#utility.yul\":6649:6652   */\n      0x00\n        /* \"#utility.yul\":6678:6753   */\n      tag_276\n        /* \"#utility.yul\":6747:6752   */\n      dup3\n        /* \"#utility.yul\":6678:6753   */\n      tag_163\n      jump\t// in\n    tag_276:\n        /* \"#utility.yul\":6769:6876   */\n      tag_277\n        /* \"#utility.yul\":6869:6875   */\n      dup2\n        /* \"#utility.yul\":6864:6867   */\n      dup6\n        /* \"#utility.yul\":6769:6876   */\n      tag_164\n      jump\t// in\n    tag_277:\n        /* \"#utility.yul\":6762:6876   */\n      swap4\n      pop\n        /* \"#utility.yul\":6902:6905   */\n      dup4\n        /* \"#utility.yul\":6947:6951   */\n      0x20\n        /* \"#utility.yul\":6939:6945   */\n      dup3\n        /* \"#utility.yul\":6935:6952   */\n      mul\n        /* \"#utility.yul\":6930:6933   */\n      dup6\n        /* \"#utility.yul\":6926:6953   */\n      add\n        /* \"#utility.yul\":6977:7054   */\n      tag_278\n        /* \"#utility.yul\":7048:7053   */\n      dup6\n        /* \"#utility.yul\":6977:7054   */\n      tag_165\n      jump\t// in\n    tag_278:\n        /* \"#utility.yul\":7077:7084   */\n      dup1\n        /* \"#utility.yul\":7108:7109   */\n      0x00\n        /* \"#utility.yul\":7093:7522   */\n    tag_279:\n        /* \"#utility.yul\":7118:7124   */\n      dup6\n        /* \"#utility.yul\":7115:7116   */\n      dup2\n        /* \"#utility.yul\":7112:7125   */\n      lt\n        /* \"#utility.yul\":7093:7522   */\n      iszero\n      tag_281\n      jumpi\n        /* \"#utility.yul\":7189:7198   */\n      dup5\n        /* \"#utility.yul\":7183:7187   */\n      dup5\n        /* \"#utility.yul\":7179:7199   */\n      sub\n        /* \"#utility.yul\":7174:7177   */\n      dup10\n        /* \"#utility.yul\":7167:7200   */\n      mstore\n        /* \"#utility.yul\":7240:7246   */\n      dup2\n        /* \"#utility.yul\":7234:7247   */\n      mload\n        /* \"#utility.yul\":7268:7374   */\n      tag_282\n        /* \"#utility.yul\":7369:7373   */\n      dup6\n        /* \"#utility.yul\":7354:7367   */\n      dup3\n        /* \"#utility.yul\":7268:7374   */\n      tag_171\n      jump\t// in\n    tag_282:\n        /* \"#utility.yul\":7260:7374   */\n      swap5\n      pop\n        /* \"#utility.yul\":7397:7478   */\n      tag_283\n        /* \"#utility.yul\":7471:7477   */\n      dup4\n        /* \"#utility.yul\":7397:7478   */\n      tag_172\n      jump\t// in\n    tag_283:\n        /* \"#utility.yul\":7387:7478   */\n      swap3\n      pop\n        /* \"#utility.yul\":7507:7511   */\n      0x20\n        /* \"#utility.yul\":7502:7505   */\n      dup11\n        /* \"#utility.yul\":7498:7512   */\n      add\n        /* \"#utility.yul\":7491:7512   */\n      swap10\n      pop\n        /* \"#utility.yul\":7153:7522   */\n      pop\n        /* \"#utility.yul\":7140:7141   */\n      0x01\n        /* \"#utility.yul\":7137:7138   */\n      dup2\n        /* \"#utility.yul\":7133:7142   */\n      add\n        /* \"#utility.yul\":7128:7142   */\n      swap1\n      pop\n        /* \"#utility.yul\":7093:7522   */\n      jump(tag_279)\n    tag_281:\n        /* \"#utility.yul\":7097:7111   */\n      pop\n        /* \"#utility.yul\":7538:7542   */\n      dup3\n        /* \"#utility.yul\":7531:7542   */\n      swap8\n      pop\n        /* \"#utility.yul\":7558:7561   */\n      dup8\n        /* \"#utility.yul\":7551:7561   */\n      swap6\n      pop\n        /* \"#utility.yul\":6654:7567   */\n      pop\n      pop\n      pop\n      pop\n      pop\n        /* \"#utility.yul\":6488:7567   */\n      swap3\n      swap2\n      pop\n      pop\n      jump\t// out\n        /* \"#utility.yul\":7573:8030   */\n    tag_23:\n        /* \"#utility.yul\":7758:7762   */\n      0x00\n        /* \"#utility.yul\":7796:7798   */\n      0x20\n        /* \"#utility.yul\":7785:7794   */\n      dup3\n        /* \"#utility.yul\":7781:7799   */\n      add\n        /* \"#utility.yul\":7773:7799   */\n      swap1\n      pop\n        /* \"#utility.yul\":7845:7854   */\n      dup2\n        /* \"#utility.yul\":7839:7843   */\n      dup2\n        /* \"#utility.yul\":7835:7855   */\n      sub\n        /* \"#utility.yul\":7831:7832   */\n      0x00\n        /* \"#utility.yul\":7820:7829   */\n      dup4\n        /* \"#utility.yul\":7816:7833   */\n      add\n        /* \"#utility.yul\":7809:7856   */\n      mstore\n        /* \"#utility.yul\":7873:8023   */\n      tag_285\n        /* \"#utility.yul\":8018:8022   */\n      dup2\n        /* \"#utility.yul\":8009:8015   */\n      dup5\n        /* \"#utility.yul\":7873:8023   */\n      tag_173\n      jump\t// in\n    tag_285:\n        /* \"#utility.yul\":7865:8023   */\n      swap1\n      pop\n        /* \"#utility.yul\":7573:8030   */\n      swap3\n      swap2\n      pop\n      pop\n      jump\t// out\n        /* \"#utility.yul\":8036:8125   */\n    tag_174:\n        /* \"#utility.yul\":8072:8079   */\n      0x00\n        /* \"#utility.yul\":8112:8118   */\n      0xffff\n        /* \"#utility.yul\":8105:8110   */\n      dup3\n        /* \"#utility.yul\":8101:8119   */\n      and\n        /* \"#utility.yul\":8090:8119   */\n      swap1\n      pop\n        /* \"#utility.yul\":8036:8125   */\n      swap2\n      swap1\n      pop\n      jump\t// out\n        /* \"#utility.yul\":8131:8251   */\n    tag_175:\n        /* \"#utility.yul\":8203:8226   */\n      tag_288\n        /* \"#utility.yul\":8220:8225   */\n      dup2\n        /* \"#utility.yul\":8203:8226   */\n      tag_174\n      jump\t// in\n    tag_288:\n        /* \"#utility.yul\":8196:8201   */\n      dup2\n        /* \"#utility.yul\":8193:8227   */\n      eq\n        /* \"#utility.yul\":8183:8245   */\n      tag_289\n      jumpi\n        /* \"#utility.yul\":8241:8242   */\n      0x00\n        /* \"#utility.yul\":8238:8239   */\n      dup1\n        /* \"#utility.yul\":8231:8243   */\n      revert\n        /* \"#utility.yul\":8183:8245   */\n    tag_289:\n        /* \"#utility.yul\":8131:8251   */\n      pop\n      jump\t// out\n        /* \"#utility.yul\":8257:8394   */\n    tag_176:\n        /* \"#utility.yul\":8302:8307   */\n      0x00\n        /* \"#utility.yul\":8340:8346   */\n      dup2\n        /* \"#utility.yul\":8327:8347   */\n      calldataload\n        /* \"#utility.yul\":8318:8347   */\n      swap1\n      pop\n        /* \"#utility.yul\":8356:8388   */\n      tag_291\n        /* \"#utility.yul\":8382:8387   */\n      dup2\n        /* \"#utility.yul\":8356:8388   */\n      tag_175\n      jump\t// in\n    tag_291:\n        /* \"#utility.yul\":8257:8394   */\n      swap3\n      swap2\n      pop\n      pop\n      jump\t// out\n        /* \"#utility.yul\":8400:8727   */\n    tag_26:\n        /* \"#utility.yul\":8458:8464   */\n      0x00\n        /* \"#utility.yul\":8507:8509   */\n      0x20\n        /* \"#utility.yul\":8495:8504   */\n      dup3\n        /* \"#utility.yul\":8486:8493   */\n      dup5\n        /* \"#utility.yul\":8482:8505   */\n      sub\n        /* \"#utility.yul\":8478:8510   */\n      slt\n        /* \"#utility.yul\":8475:8594   */\n      iszero\n      tag_293\n      jumpi\n        /* \"#utility.yul\":8513:8592   */\n      tag_294\n      tag_147\n      jump\t// in\n    tag_294:\n        /* \"#utility.yul\":8475:8594   */\n    tag_293:\n        /* \"#utility.yul\":8633:8634   */\n      0x00\n        /* \"#utility.yul\":8658:8710   */\n      tag_295\n        /* \"#utility.yul\":8702:8709   */\n      dup5\n        /* \"#utility.yul\":8693:8699   */\n      dup3\n        /* \"#utility.yul\":8682:8691   */\n      dup6\n        /* \"#utility.yul\":8678:8700   */\n      add\n        /* \"#utility.yul\":8658:8710   */\n      tag_176\n      jump\t// in\n    tag_295:\n        /* \"#utility.yul\":8648:8710   */\n      swap2\n      pop\n        /* \"#utility.yul\":8604:8720   */\n      pop\n        /* \"#utility.yul\":8400:8727   */\n      swap3\n      swap2\n      pop\n      pop\n      jump\t// out\n        /* \"#utility.yul\":8733:8848   */\n    tag_177:\n        /* \"#utility.yul\":8818:8841   */\n      tag_297\n        /* \"#utility.yul\":8835:8840   */\n      dup2\n        /* \"#utility.yul\":8818:8841   */\n      tag_174\n      jump\t// in\n    tag_297:\n        /* \"#utility.yul\":8813:8816   */\n      dup3\n        /* \"#utility.yul\":8806:8842   */\n      mstore\n        /* \"#utility.yul\":8733:8848   */\n      pop\n      pop\n      jump\t// out\n        /* \"#utility.yul\":8854:9072   */\n    tag_31:\n        /* \"#utility.yul\":8945:8949   */\n      0x00\n        /* \"#utility.yul\":8983:8985   */\n      0x20\n        /* \"#utility.yul\":8972:8981   */\n      dup3\n        /* \"#utility.yul\":8968:8986   */\n      add\n        /* \"#utility.yul\":8960:8986   */\n      swap1\n      pop\n        /* \"#utility.yul\":8996:9065   */\n      tag_299\n        /* \"#utility.yul\":9062:9063   */\n      0x00\n        /* \"#utility.yul\":9051:9060   */\n      dup4\n        /* \"#utility.yul\":9047:9064   */\n      add\n        /* \"#utility.yul\":9038:9044   */\n      dup5\n        /* \"#utility.yul\":8996:9065   */\n      tag_177\n      jump\t// in\n    tag_299:\n        /* \"#utility.yul\":8854:9072   */\n      swap3\n      swap2\n      pop\n      pop\n      jump\t// out\n        /* \"#utility.yul\":9078:9195   */\n    tag_178:\n        /* \"#utility.yul\":9187:9188   */\n      0x00\n        /* \"#utility.yul\":9184:9185   */\n      dup1\n        /* \"#utility.yul\":9177:9189   */\n      revert\n        /* \"#utility.yul\":9201:9318   */\n    tag_179:\n        /* \"#utility.yul\":9310:9311   */\n      0x00\n        /* \"#utility.yul\":9307:9308   */\n      dup1\n        /* \"#utility.yul\":9300:9312   */\n      revert\n        /* \"#utility.yul\":9324:9504   */\n    tag_180:\n        /* \"#utility.yul\":9372:9449   */\n      0x4e487b7100000000000000000000000000000000000000000000000000000000\n        /* \"#utility.yul\":9369:9370   */\n      0x00\n        /* \"#utility.yul\":9362:9450   */\n      mstore\n        /* \"#utility.yul\":9469:9473   */\n      0x41\n        /* \"#utility.yul\":9466:9467   */\n      0x04\n        /* \"#utility.yul\":9459:9474   */\n      mstore\n        /* \"#utility.yul\":9493:9497   */\n      0x24\n        /* \"#utility.yul\":9490:9491   */\n      0x00\n        /* \"#utility.yul\":9483:9498   */\n      revert\n        /* \"#utility.yul\":9510:9791   */\n    tag_181:\n        /* \"#utility.yul\":9593:9620   */\n      tag_304\n        /* \"#utility.yul\":9615:9619   */\n      dup3\n        /* \"#utility.yul\":9593:9620   */\n      tag_161\n      jump\t// in\n    tag_304:\n        /* \"#utility.yul\":9585:9591   */\n      dup2\n        /* \"#utility.yul\":9581:9621   */\n      add\n        /* \"#utility.yul\":9723:9729   */\n      dup2\n        /* \"#utility.yul\":9711:9721   */\n      dup2\n        /* \"#utility.yul\":9708:9730   */\n      lt\n        /* \"#utility.yul\":9687:9705   */\n      0xffffffffffffffff\n        /* \"#utility.yul\":9675:9685   */\n      dup3\n        /* \"#utility.yul\":9672:9706   */\n      gt\n        /* \"#utility.yul\":9669:9731   */\n      or\n        /* \"#utility.yul\":9666:9754   */\n      iszero\n      tag_305\n      jumpi\n        /* \"#utility.yul\":9734:9752   */\n      tag_306\n      tag_180\n      jump\t// in\n    tag_306:\n        /* \"#utility.yul\":9666:9754   */\n    tag_305:\n        /* \"#utility.yul\":9774:9784   */\n      dup1\n        /* \"#utility.yul\":9770:9772   */\n      0x40\n        /* \"#utility.yul\":9763:9785   */\n      mstore\n        /* \"#utility.yul\":9553:9791   */\n      pop\n        /* \"#utility.yul\":9510:9791   */\n      pop\n      pop\n      jump\t// out\n        /* \"#utility.yul\":9797:9926   */\n    tag_182:\n        /* \"#utility.yul\":9831:9837   */\n      0x00\n        /* \"#utility.yul\":9858:9878   */\n      tag_308\n      tag_146\n      jump\t// in\n    tag_308:\n        /* \"#utility.yul\":9848:9878   */\n      swap1\n      pop\n        /* \"#utility.yul\":9887:9920   */\n      tag_309\n        /* \"#utility.yul\":9915:9919   */\n      dup3\n        /* \"#utility.yul\":9907:9913   */\n      dup3\n        /* \"#utility.yul\":9887:9920   */\n      tag_181\n      jump\t// in\n    tag_309:\n        /* \"#utility.yul\":9797:9926   */\n      swap2\n      swap1\n      pop\n      jump\t// out\n        /* \"#utility.yul\":9932:10240   */\n    tag_183:\n        /* \"#utility.yul\":9994:9998   */\n      0x00\n        /* \"#utility.yul\":10084:10102   */\n      0xffffffffffffffff\n        /* \"#utility.yul\":10076:10082   */\n      dup3\n        /* \"#utility.yul\":10073:10103   */\n      gt\n        /* \"#utility.yul\":10070:10126   */\n      iszero\n      tag_311\n      jumpi\n        /* \"#utility.yul\":10106:10124   */\n      tag_312\n      tag_180\n      jump\t// in\n    tag_312:\n        /* \"#utility.yul\":10070:10126   */\n    tag_311:\n        /* \"#utility.yul\":10144:10173   */\n      tag_313\n        /* \"#utility.yul\":10166:10172   */\n      dup3\n        /* \"#utility.yul\":10144:10173   */\n      tag_161\n      jump\t// in\n    tag_313:\n        /* \"#utility.yul\":10136:10173   */\n      swap1\n      pop\n        /* \"#utility.yul\":10228:10232   */\n      0x20\n        /* \"#utility.yul\":10222:10226   */\n      dup2\n        /* \"#utility.yul\":10218:10233   */\n      add\n        /* \"#utility.yul\":10210:10233   */\n      swap1\n      pop\n        /* \"#utility.yul\":9932:10240   */\n      swap2\n      swap1\n      pop\n      jump\t// out\n        /* \"#utility.yul\":10246:10394   */\n    tag_184:\n        /* \"#utility.yul\":10344:10350   */\n      dup3\n        /* \"#utility.yul\":10339:10342   */\n      dup2\n        /* \"#utility.yul\":10334:10337   */\n      dup4\n        /* \"#utility.yul\":10321:10351   */\n      calldatacopy\n        /* \"#utility.yul\":10385:10386   */\n      0x00\n        /* \"#utility.yul\":10376:10382   */\n      dup4\n        /* \"#utility.yul\":10371:10374   */\n      dup4\n        /* \"#utility.yul\":10367:10383   */\n      add\n        /* \"#utility.yul\":10360:10387   */\n      mstore\n        /* \"#utility.yul\":10246:10394   */\n      pop\n      pop\n      pop\n      jump\t// out\n        /* \"#utility.yul\":10400:10825   */\n    tag_185:\n        /* \"#utility.yul\":10478:10483   */\n      0x00\n        /* \"#utility.yul\":10503:10569   */\n      tag_316\n        /* \"#utility.yul\":10519:10568   */\n      tag_317\n        /* \"#utility.yul\":10561:10567   */\n      dup5\n        /* \"#utility.yul\":10519:10568   */\n      tag_183\n      jump\t// in\n    tag_317:\n        /* \"#utility.yul\":10503:10569   */\n      tag_182\n      jump\t// in\n    tag_316:\n        /* \"#utility.yul\":10494:10569   */\n      swap1\n      pop\n        /* \"#utility.yul\":10592:10598   */\n      dup3\n        /* \"#utility.yul\":10585:10590   */\n      dup2\n        /* \"#utility.yul\":10578:10599   */\n      mstore\n        /* \"#utility.yul\":10630:10634   */\n      0x20\n        /* \"#utility.yul\":10623:10628   */\n      dup2\n        /* \"#utility.yul\":10619:10635   */\n      add\n        /* \"#utility.yul\":10668:10671   */\n      dup5\n        /* \"#utility.yul\":10659:10665   */\n      dup5\n        /* \"#utility.yul\":10654:10657   */\n      dup5\n        /* \"#utility.yul\":10650:10666   */\n      add\n        /* \"#utility.yul\":10647:10672   */\n      gt\n        /* \"#utility.yul\":10644:10756   */\n      iszero\n      tag_318\n      jumpi\n        /* \"#utility.yul\":10675:10754   */\n      tag_319\n      tag_179\n      jump\t// in\n    tag_319:\n        /* \"#utility.yul\":10644:10756   */\n    tag_318:\n        /* \"#utility.yul\":10765:10819   */\n      tag_320\n        /* \"#utility.yul\":10812:10818   */\n      dup5\n        /* \"#utility.yul\":10807:10810   */\n      dup3\n        /* \"#utility.yul\":10802:10805   */\n      dup6\n        /* \"#utility.yul\":10765:10819   */\n      tag_184\n      jump\t// in\n    tag_320:\n        /* \"#utility.yul\":10484:10825   */\n      pop\n        /* \"#utility.yul\":10400:10825   */\n      swap4\n      swap3\n      pop\n      pop\n      pop\n      jump\t// out\n        /* \"#utility.yul\":10845:11185   */\n    tag_186:\n        /* \"#utility.yul\":10901:10906   */\n      0x00\n        /* \"#utility.yul\":10950:10953   */\n      dup3\n        /* \"#utility.yul\":10943:10947   */\n      0x1f\n        /* \"#utility.yul\":10935:10941   */\n      dup4\n        /* \"#utility.yul\":10931:10948   */\n      add\n        /* \"#utility.yul\":10927:10954   */\n      slt\n        /* \"#utility.yul\":10917:11039   */\n      tag_322\n      jumpi\n        /* \"#utility.yul\":10958:11037   */\n      tag_323\n      tag_178\n      jump\t// in\n    tag_323:\n        /* \"#utility.yul\":10917:11039   */\n    tag_322:\n        /* \"#utility.yul\":11075:11081   */\n      dup2\n        /* \"#utility.yul\":11062:11082   */\n      calldataload\n        /* \"#utility.yul\":11100:11179   */\n      tag_324\n        /* \"#utility.yul\":11175:11178   */\n      dup5\n        /* \"#utility.yul\":11167:11173   */\n      dup3\n        /* \"#utility.yul\":11160:11164   */\n      0x20\n        /* \"#utility.yul\":11152:11158   */\n      dup7\n        /* \"#utility.yul\":11148:11165   */\n      add\n        /* \"#utility.yul\":11100:11179   */\n      tag_185\n      jump\t// in\n    tag_324:\n        /* \"#utility.yul\":11091:11179   */\n      swap2\n      pop\n        /* \"#utility.yul\":10907:11185   */\n      pop\n        /* \"#utility.yul\":10845:11185   */\n      swap3\n      swap2\n      pop\n      pop\n      jump\t// out\n        /* \"#utility.yul\":11191:11700   */\n    tag_34:\n        /* \"#utility.yul\":11260:11266   */\n      0x00\n        /* \"#utility.yul\":11309:11311   */\n      0x20\n        /* \"#utility.yul\":11297:11306   */\n      dup3\n        /* \"#utility.yul\":11288:11295   */\n      dup5\n        /* \"#utility.yul\":11284:11307   */\n      sub\n        /* \"#utility.yul\":11280:11312   */\n      slt\n        /* \"#utility.yul\":11277:11396   */\n      iszero\n      tag_326\n      jumpi\n        /* \"#utility.yul\":11315:11394   */\n      tag_327\n      tag_147\n      jump\t// in\n    tag_327:\n        /* \"#utility.yul\":11277:11396   */\n    tag_326:\n        /* \"#utility.yul\":11463:11464   */\n      0x00\n        /* \"#utility.yul\":11452:11461   */\n      dup3\n        /* \"#utility.yul\":11448:11465   */\n      add\n        /* \"#utility.yul\":11435:11466   */\n      calldataload\n        /* \"#utility.yul\":11493:11511   */\n      0xffffffffffffffff\n        /* \"#utility.yul\":11485:11491   */\n      dup2\n        /* \"#utility.yul\":11482:11512   */\n      gt\n        /* \"#utility.yul\":11479:11596   */\n      iszero\n      tag_328\n      jumpi\n        /* \"#utility.yul\":11515:11594   */\n      tag_329\n      tag_148\n      jump\t// in\n    tag_329:\n        /* \"#utility.yul\":11479:11596   */\n    tag_328:\n        /* \"#utility.yul\":11620:11683   */\n      tag_330\n        /* \"#utility.yul\":11675:11682   */\n      dup5\n        /* \"#utility.yul\":11666:11672   */\n      dup3\n        /* \"#utility.yul\":11655:11664   */\n      dup6\n        /* \"#utility.yul\":11651:11673   */\n      add\n        /* \"#utility.yul\":11620:11683   */\n      tag_186\n      jump\t// in\n    tag_330:\n        /* \"#utility.yul\":11610:11683   */\n      swap2\n      pop\n        /* \"#utility.yul\":11406:11693   */\n      pop\n        /* \"#utility.yul\":11191:11700   */\n      swap3\n      swap2\n      pop\n      pop\n      jump\t// out\n        /* \"#utility.yul\":11706:12035   */\n    tag_38:\n        /* \"#utility.yul\":11765:11771   */\n      0x00\n        /* \"#utility.yul\":11814:11816   */\n      0x20\n        /* \"#utility.yul\":11802:11811   */\n      dup3\n        /* \"#utility.yul\":11793:11800   */\n      dup5\n        /* \"#utility.yul\":11789:11812   */\n      sub\n        /* \"#utility.yul\":11785:11817   */\n      slt\n        /* \"#utility.yul\":11782:11901   */\n      iszero\n      tag_332\n      jumpi\n        /* \"#utility.yul\":11820:11899   */\n      tag_333\n      tag_147\n      jump\t// in\n    tag_333:\n        /* \"#utility.yul\":11782:11901   */\n    tag_332:\n        /* \"#utility.yul\":11940:11941   */\n      0x00\n        /* \"#utility.yul\":11965:12018   */\n      tag_334\n        /* \"#utility.yul\":12010:12017   */\n      dup5\n        /* \"#utility.yul\":12001:12007   */\n      dup3\n        /* \"#utility.yul\":11990:11999   */\n      dup6\n        /* \"#utility.yul\":11986:12008   */\n      add\n        /* \"#utility.yul\":11965:12018   */\n      tag_152\n      jump\t// in\n    tag_334:\n        /* \"#utility.yul\":11955:12018   */\n      swap2\n      pop\n        /* \"#utility.yul\":11911:12028   */\n      pop\n        /* \"#utility.yul\":11706:12035   */\n      swap3\n      swap2\n      pop\n      pop\n      jump\t// out\n        /* \"#utility.yul\":12041:12263   */\n    tag_41:\n        /* \"#utility.yul\":12134:12138   */\n      0x00\n        /* \"#utility.yul\":12172:12174   */\n      0x20\n        /* \"#utility.yul\":12161:12170   */\n      dup3\n        /* \"#utility.yul\":12157:12175   */\n      add\n        /* \"#utility.yul\":12149:12175   */\n      swap1\n      pop\n        /* \"#utility.yul\":12185:12256   */\n      tag_336\n        /* \"#utility.yul\":12253:12254   */\n      0x00\n        /* \"#utility.yul\":12242:12251   */\n      dup4\n        /* \"#utility.yul\":12238:12255   */\n      add\n        /* \"#utility.yul\":12229:12235   */\n      dup5\n        /* \"#utility.yul\":12185:12256   */\n      tag_156\n      jump\t// in\n    tag_336:\n        /* \"#utility.yul\":12041:12263   */\n      swap3\n      swap2\n      pop\n      pop\n      jump\t// out\n        /* \"#utility.yul\":12269:12491   */\n    tag_45:\n        /* \"#utility.yul\":12362:12366   */\n      0x00\n        /* \"#utility.yul\":12400:12402   */\n      0x20\n        /* \"#utility.yul\":12389:12398   */\n      dup3\n        /* \"#utility.yul\":12385:12403   */\n      add\n        /* \"#utility.yul\":12377:12403   */\n      swap1\n      pop\n        /* \"#utility.yul\":12413:12484   */\n      tag_338\n        /* \"#utility.yul\":12481:12482   */\n      0x00\n        /* \"#utility.yul\":12470:12479   */\n      dup4\n        /* \"#utility.yul\":12466:12483   */\n      add\n        /* \"#utility.yul\":12457:12463   */\n      dup5\n        /* \"#utility.yul\":12413:12484   */\n      tag_157\n      jump\t// in\n    tag_338:\n        /* \"#utility.yul\":12269:12491   */\n      swap3\n      swap2\n      pop\n      pop\n      jump\t// out\n        /* \"#utility.yul\":12497:12971   */\n    tag_48:\n        /* \"#utility.yul\":12565:12571   */\n      0x00\n        /* \"#utility.yul\":12573:12579   */\n      dup1\n        /* \"#utility.yul\":12622:12624   */\n      0x40\n        /* \"#utility.yul\":12610:12619   */\n      dup4\n        /* \"#utility.yul\":12601:12608   */\n      dup6\n        /* \"#utility.yul\":12597:12620   */\n      sub\n        /* \"#utility.yul\":12593:12625   */\n      slt\n        /* \"#utility.yul\":12590:12709   */\n      iszero\n      tag_340\n      jumpi\n        /* \"#utility.yul\":12628:12707   */\n      tag_341\n      tag_147\n      jump\t// in\n    tag_341:\n        /* \"#utility.yul\":12590:12709   */\n    tag_340:\n        /* \"#utility.yul\":12748:12749   */\n      0x00\n        /* \"#utility.yul\":12773:12826   */\n      tag_342\n        /* \"#utility.yul\":12818:12825   */\n      dup6\n        /* \"#utility.yul\":12809:12815   */\n      dup3\n        /* \"#utility.yul\":12798:12807   */\n      dup7\n        /* \"#utility.yul\":12794:12816   */\n      add\n        /* \"#utility.yul\":12773:12826   */\n      tag_155\n      jump\t// in\n    tag_342:\n        /* \"#utility.yul\":12763:12826   */\n      swap3\n      pop\n        /* \"#utility.yul\":12719:12836   */\n      pop\n        /* \"#utility.yul\":12875:12877   */\n      0x20\n        /* \"#utility.yul\":12901:12954   */\n      tag_343\n        /* \"#utility.yul\":12946:12953   */\n      dup6\n        /* \"#utility.yul\":12937:12943   */\n      dup3\n        /* \"#utility.yul\":12926:12935   */\n      dup7\n        /* \"#utility.yul\":12922:12944   */\n      add\n        /* \"#utility.yul\":12901:12954   */\n      tag_152\n      jump\t// in\n    tag_343:\n        /* \"#utility.yul\":12891:12954   */\n      swap2\n      pop\n        /* \"#utility.yul\":12846:12964   */\n      pop\n        /* \"#utility.yul\":12497:12971   */\n      swap3\n      pop\n      swap3\n      swap1\n      pop\n      jump\t// out\n        /* \"#utility.yul\":12977:13306   */\n    tag_55:\n        /* \"#utility.yul\":13036:13042   */\n      0x00\n        /* \"#utility.yul\":13085:13087   */\n      0x20\n        /* \"#utility.yul\":13073:13082   */\n      dup3\n        /* \"#utility.yul\":13064:13071   */\n      dup5\n        /* \"#utility.yul\":13060:13083   */\n      sub\n        /* \"#utility.yul\":13056:13088   */\n      slt\n        /* \"#utility.yul\":13053:13172   */\n      iszero\n      tag_345\n      jumpi\n        /* \"#utility.yul\":13091:13170   */\n      tag_346\n      tag_147\n      jump\t// in\n    tag_346:\n        /* \"#utility.yul\":13053:13172   */\n    tag_345:\n        /* \"#utility.yul\":13211:13212   */\n      0x00\n        /* \"#utility.yul\":13236:13289   */\n      tag_347\n        /* \"#utility.yul\":13281:13288   */\n      dup5\n        /* \"#utility.yul\":13272:13278   */\n      dup3\n        /* \"#utility.yul\":13261:13270   */\n      dup6\n        /* \"#utility.yul\":13257:13279   */\n      add\n        /* \"#utility.yul\":13236:13289   */\n      tag_155\n      jump\t// in\n    tag_347:\n        /* \"#utility.yul\":13226:13289   */\n      swap2\n      pop\n        /* \"#utility.yul\":13182:13299   */\n      pop\n        /* \"#utility.yul\":12977:13306   */\n      swap3\n      swap2\n      pop\n      pop\n      jump\t// out\n        /* \"#utility.yul\":13364:14493   */\n    tag_187:\n        /* \"#utility.yul\":13475:13478   */\n      0x00\n        /* \"#utility.yul\":13511:13515   */\n      0xa0\n        /* \"#utility.yul\":13506:13509   */\n      dup4\n        /* \"#utility.yul\":13502:13516   */\n      add\n        /* \"#utility.yul\":13596:13600   */\n      0x00\n        /* \"#utility.yul\":13589:13594   */\n      dup4\n        /* \"#utility.yul\":13585:13601   */\n      add\n        /* \"#utility.yul\":13579:13602   */\n      mload\n        /* \"#utility.yul\":13615:13678   */\n      tag_349\n        /* \"#utility.yul\":13672:13676   */\n      0x00\n        /* \"#utility.yul\":13667:13670   */\n      dup7\n        /* \"#utility.yul\":13663:13677   */\n      add\n        /* \"#utility.yul\":13649:13661   */\n      dup3\n        /* \"#utility.yul\":13615:13678   */\n      tag_166\n      jump\t// in\n    tag_349:\n        /* \"#utility.yul\":13526:13688   */\n      pop\n        /* \"#utility.yul\":13772:13776   */\n      0x20\n        /* \"#utility.yul\":13765:13770   */\n      dup4\n        /* \"#utility.yul\":13761:13777   */\n      add\n        /* \"#utility.yul\":13755:13778   */\n      mload\n        /* \"#utility.yul\":13791:13854   */\n      tag_350\n        /* \"#utility.yul\":13848:13852   */\n      0x20\n        /* \"#utility.yul\":13843:13846   */\n      dup7\n        /* \"#utility.yul\":13839:13853   */\n      add\n        /* \"#utility.yul\":13825:13837   */\n      dup3\n        /* \"#utility.yul\":13791:13854   */\n      tag_167\n      jump\t// in\n    tag_350:\n        /* \"#utility.yul\":13698:13864   */\n      pop\n        /* \"#utility.yul\":13949:13953   */\n      0x40\n        /* \"#utility.yul\":13942:13947   */\n      dup4\n        /* \"#utility.yul\":13938:13954   */\n      add\n        /* \"#utility.yul\":13932:13955   */\n      mload\n        /* \"#utility.yul\":14002:14005   */\n      dup5\n        /* \"#utility.yul\":13996:14000   */\n      dup3\n        /* \"#utility.yul\":13992:14006   */\n      sub\n        /* \"#utility.yul\":13985:13989   */\n      0x40\n        /* \"#utility.yul\":13980:13983   */\n      dup7\n        /* \"#utility.yul\":13976:13990   */\n      add\n        /* \"#utility.yul\":13969:14007   */\n      mstore\n        /* \"#utility.yul\":14028:14101   */\n      tag_351\n        /* \"#utility.yul\":14096:14100   */\n      dup3\n        /* \"#utility.yul\":14082:14094   */\n      dup3\n        /* \"#utility.yul\":14028:14101   */\n      tag_169\n      jump\t// in\n    tag_351:\n        /* \"#utility.yul\":14020:14101   */\n      swap2\n      pop\n        /* \"#utility.yul\":13874:14112   */\n      pop\n        /* \"#utility.yul\":14199:14203   */\n      0x60\n        /* \"#utility.yul\":14192:14197   */\n      dup4\n        /* \"#utility.yul\":14188:14204   */\n      add\n        /* \"#utility.yul\":14182:14205   */\n      mload\n        /* \"#utility.yul\":14218:14281   */\n      tag_352\n        /* \"#utility.yul\":14275:14279   */\n      0x60\n        /* \"#utility.yul\":14270:14273   */\n      dup7\n        /* \"#utility.yul\":14266:14280   */\n      add\n        /* \"#utility.yul\":14252:14264   */\n      dup3\n        /* \"#utility.yul\":14218:14281   */\n      tag_166\n      jump\t// in\n    tag_352:\n        /* \"#utility.yul\":14122:14291   */\n      pop\n        /* \"#utility.yul\":14374:14378   */\n      0x80\n        /* \"#utility.yul\":14367:14372   */\n      dup4\n        /* \"#utility.yul\":14363:14379   */\n      add\n        /* \"#utility.yul\":14357:14380   */\n      mload\n        /* \"#utility.yul\":14393:14456   */\n      tag_353\n        /* \"#utility.yul\":14450:14454   */\n      0x80\n        /* \"#utility.yul\":14445:14448   */\n      dup7\n        /* \"#utility.yul\":14441:14455   */\n      add\n        /* \"#utility.yul\":14427:14439   */\n      dup3\n        /* \"#utility.yul\":14393:14456   */\n      tag_166\n      jump\t// in\n    tag_353:\n        /* \"#utility.yul\":14301:14466   */\n      pop\n        /* \"#utility.yul\":14483:14487   */\n      dup1\n        /* \"#utility.yul\":14476:14487   */\n      swap2\n      pop\n        /* \"#utility.yul\":13480:14493   */\n      pop\n        /* \"#utility.yul\":13364:14493   */\n      swap3\n      swap2\n      pop\n      pop\n      jump\t// out\n        /* \"#utility.yul\":14499:14856   */\n    tag_58:\n        /* \"#utility.yul\":14634:14638   */\n      0x00\n        /* \"#utility.yul\":14672:14674   */\n      0x20\n        /* \"#utility.yul\":14661:14670   */\n      dup3\n        /* \"#utility.yul\":14657:14675   */\n      add\n        /* \"#utility.yul\":14649:14675   */\n      swap1\n      pop\n        /* \"#utility.yul\":14721:14730   */\n      dup2\n        /* \"#utility.yul\":14715:14719   */\n      dup2\n        /* \"#utility.yul\":14711:14731   */\n      sub\n        /* \"#utility.yul\":14707:14708   */\n      0x00\n        /* \"#utility.yul\":14696:14705   */\n      dup4\n        /* \"#utility.yul\":14692:14709   */\n      add\n        /* \"#utility.yul\":14685:14732   */\n      mstore\n        /* \"#utility.yul\":14749:14849   */\n      tag_355\n        /* \"#utility.yul\":14844:14848   */\n      dup2\n        /* \"#utility.yul\":14835:14841   */\n      dup5\n        /* \"#utility.yul\":14749:14849   */\n      tag_187\n      jump\t// in\n    tag_355:\n        /* \"#utility.yul\":14741:14849   */\n      swap1\n      pop\n        /* \"#utility.yul\":14499:14856   */\n      swap3\n      swap2\n      pop\n      pop\n      jump\t// out\n        /* \"#utility.yul\":14862:15042   */\n    tag_188:\n        /* \"#utility.yul\":14910:14987   */\n      0x4e487b7100000000000000000000000000000000000000000000000000000000\n        /* \"#utility.yul\":14907:14908   */\n      0x00\n        /* \"#utility.yul\":14900:14988   */\n      mstore\n        /* \"#utility.yul\":15007:15011   */\n      0x22\n        /* \"#utility.yul\":15004:15005   */\n      0x04\n        /* \"#utility.yul\":14997:15012   */\n      mstore\n        /* \"#utility.yul\":15031:15035   */\n      0x24\n        /* \"#utility.yul\":15028:15029   */\n      0x00\n        /* \"#utility.yul\":15021:15036   */\n      revert\n        /* \"#utility.yul\":15048:15368   */\n    tag_62:\n        /* \"#utility.yul\":15092:15098   */\n      0x00\n        /* \"#utility.yul\":15129:15130   */\n      0x02\n        /* \"#utility.yul\":15123:15127   */\n      dup3\n        /* \"#utility.yul\":15119:15131   */\n      div\n        /* \"#utility.yul\":15109:15131   */\n      swap1\n      pop\n        /* \"#utility.yul\":15176:15177   */\n      0x01\n        /* \"#utility.yul\":15170:15174   */\n      dup3\n        /* \"#utility.yul\":15166:15178   */\n      and\n        /* \"#utility.yul\":15197:15215   */\n      dup1\n        /* \"#utility.yul\":15187:15268   */\n      tag_358\n      jumpi\n        /* \"#utility.yul\":15253:15257   */\n      0x7f\n        /* \"#utility.yul\":15245:15251   */\n      dup3\n        /* \"#utility.yul\":15241:15258   */\n      and\n        /* \"#utility.yul\":15231:15258   */\n      swap2\n      pop\n        /* \"#utility.yul\":15187:15268   */\n    tag_358:\n        /* \"#utility.yul\":15315:15317   */\n      0x20\n        /* \"#utility.yul\":15307:15313   */\n      dup3\n        /* \"#utility.yul\":15304:15318   */\n      lt\n        /* \"#utility.yul\":15284:15302   */\n      dup2\n        /* \"#utility.yul\":15281:15319   */\n      sub\n        /* \"#utility.yul\":15278:15362   */\n      tag_359\n      jumpi\n        /* \"#utility.yul\":15334:15352   */\n      tag_360\n      tag_188\n      jump\t// in\n    tag_360:\n        /* \"#utility.yul\":15278:15362   */\n    tag_359:\n        /* \"#utility.yul\":15099:15368   */\n      pop\n        /* \"#utility.yul\":15048:15368   */\n      swap2\n      swap1\n      pop\n      jump\t// out\n        /* \"#utility.yul\":15374:15542   */\n    tag_189:\n        /* \"#utility.yul\":15514:15534   */\n      0x747765657420697320746f6f206c6f6e67210000000000000000000000000000\n        /* \"#utility.yul\":15510:15511   */\n      0x00\n        /* \"#utility.yul\":15502:15508   */\n      dup3\n        /* \"#utility.yul\":15498:15512   */\n      add\n        /* \"#utility.yul\":15491:15535   */\n      mstore\n        /* \"#utility.yul\":15374:15542   */\n      pop\n      jump\t// out\n        /* \"#utility.yul\":15548:15914   */\n    tag_190:\n        /* \"#utility.yul\":15690:15693   */\n      0x00\n        /* \"#utility.yul\":15711:15778   */\n      tag_363\n        /* \"#utility.yul\":15775:15777   */\n      0x12\n        /* \"#utility.yul\":15770:15773   */\n      dup4\n        /* \"#utility.yul\":15711:15778   */\n      tag_159\n      jump\t// in\n    tag_363:\n        /* \"#utility.yul\":15704:15778   */\n      swap2\n      pop\n        /* \"#utility.yul\":15787:15880   */\n      tag_364\n        /* \"#utility.yul\":15876:15879   */\n      dup3\n        /* \"#utility.yul\":15787:15880   */\n      tag_189\n      jump\t// in\n    tag_364:\n        /* \"#utility.yul\":15905:15907   */\n      0x20\n        /* \"#utility.yul\":15900:15903   */\n      dup3\n        /* \"#utility.yul\":15896:15908   */\n      add\n        /* \"#utility.yul\":15889:15908   */\n      swap1\n      pop\n        /* \"#utility.yul\":15548:15914   */\n      swap2\n      swap1\n      pop\n      jump\t// out\n        /* \"#utility.yul\":15920:16339   */\n    tag_82:\n        /* \"#utility.yul\":16086:16090   */\n      0x00\n        /* \"#utility.yul\":16124:16126   */\n      0x20\n        /* \"#utility.yul\":16113:16122   */\n      dup3\n        /* \"#utility.yul\":16109:16127   */\n      add\n        /* \"#utility.yul\":16101:16127   */\n      swap1\n      pop\n        /* \"#utility.yul\":16173:16182   */\n      dup2\n        /* \"#utility.yul\":16167:16171   */\n      dup2\n        /* \"#utility.yul\":16163:16183   */\n      sub\n        /* \"#utility.yul\":16159:16160   */\n      0x00\n        /* \"#utility.yul\":16148:16157   */\n      dup4\n        /* \"#utility.yul\":16144:16161   */\n      add\n        /* \"#utility.yul\":16137:16184   */\n      mstore\n        /* \"#utility.yul\":16201:16332   */\n      tag_366\n        /* \"#utility.yul\":16327:16331   */\n      dup2\n        /* \"#utility.yul\":16201:16332   */\n      tag_190\n      jump\t// in\n    tag_366:\n        /* \"#utility.yul\":16193:16332   */\n      swap1\n      pop\n        /* \"#utility.yul\":15920:16339   */\n      swap2\n      swap1\n      pop\n      jump\t// out\n        /* \"#utility.yul\":16345:16486   */\n    tag_191:\n        /* \"#utility.yul\":16394:16398   */\n      0x00\n        /* \"#utility.yul\":16417:16420   */\n      dup2\n        /* \"#utility.yul\":16409:16420   */\n      swap1\n      pop\n        /* \"#utility.yul\":16440:16443   */\n      dup2\n        /* \"#utility.yul\":16437:16438   */\n      0x00\n        /* \"#utility.yul\":16430:16444   */\n      mstore\n        /* \"#utility.yul\":16474:16478   */\n      0x20\n        /* \"#utility.yul\":16471:16472   */\n      0x00\n        /* \"#utility.yul\":16461:16479   */\n      keccak256\n        /* \"#utility.yul\":16453:16479   */\n      swap1\n      pop\n        /* \"#utility.yul\":16345:16486   */\n      swap2\n      swap1\n      pop\n      jump\t// out\n        /* \"#utility.yul\":16492:16585   */\n    tag_192:\n        /* \"#utility.yul\":16529:16535   */\n      0x00\n        /* \"#utility.yul\":16576:16578   */\n      0x20\n        /* \"#utility.yul\":16571:16573   */\n      0x1f\n        /* \"#utility.yul\":16564:16569   */\n      dup4\n        /* \"#utility.yul\":16560:16574   */\n      add\n        /* \"#utility.yul\":16556:16579   */\n      div\n        /* \"#utility.yul\":16546:16579   */\n      swap1\n      pop\n        /* \"#utility.yul\":16492:16585   */\n      swap2\n      swap1\n      pop\n      jump\t// out\n        /* \"#utility.yul\":16591:16698   */\n    tag_193:\n        /* \"#utility.yul\":16635:16643   */\n      0x00\n        /* \"#utility.yul\":16685:16690   */\n      dup3\n        /* \"#utility.yul\":16679:16683   */\n      dup3\n        /* \"#utility.yul\":16675:16691   */\n      shl\n        /* \"#utility.yul\":16654:16691   */\n      swap1\n      pop\n        /* \"#utility.yul\":16591:16698   */\n      swap3\n      swap2\n      pop\n      pop\n      jump\t// out\n        /* \"#utility.yul\":16704:17097   */\n    tag_194:\n        /* \"#utility.yul\":16773:16779   */\n      0x00\n        /* \"#utility.yul\":16823:16824   */\n      0x08\n        /* \"#utility.yul\":16811:16821   */\n      dup4\n        /* \"#utility.yul\":16807:16825   */\n      mul\n        /* \"#utility.yul\":16846:16943   */\n      tag_371\n        /* \"#utility.yul\":16876:16942   */\n      0xffffffffffffffffffffffffffffffffffffffffffffffffffffffffffffffff\n        /* \"#utility.yul\":16865:16874   */\n      dup3\n        /* \"#utility.yul\":16846:16943   */\n      tag_193\n      jump\t// in\n    tag_371:\n        /* \"#utility.yul\":16964:17003   */\n      tag_372\n        /* \"#utility.yul\":16994:17002   */\n      dup7\n        /* \"#utility.yul\":16983:16992   */\n      dup4\n        /* \"#utility.yul\":16964:17003   */\n      tag_193\n      jump\t// in\n    tag_372:\n        /* \"#utility.yul\":16952:17003   */\n      swap6\n      pop\n        /* \"#utility.yul\":17036:17040   */\n      dup1\n        /* \"#utility.yul\":17032:17041   */\n      not\n        /* \"#utility.yul\":17025:17030   */\n      dup5\n        /* \"#utility.yul\":17021:17042   */\n      and\n        /* \"#utility.yul\":17012:17042   */\n      swap4\n      pop\n        /* \"#utility.yul\":17085:17089   */\n      dup1\n        /* \"#utility.yul\":17075:17083   */\n      dup7\n        /* \"#utility.yul\":17071:17090   */\n      and\n        /* \"#utility.yul\":17064:17069   */\n      dup5\n        /* \"#utility.yul\":17061:17091   */\n      or\n        /* \"#utility.yul\":17051:17091   */\n      swap3\n      pop\n        /* \"#utility.yul\":16780:17097   */\n      pop\n      pop\n        /* \"#utility.yul\":16704:17097   */\n      swap4\n      swap3\n      pop\n      pop\n      pop\n      jump\t// out\n        /* \"#utility.yul\":17103:17163   */\n    tag_195:\n        /* \"#utility.yul\":17131:17134   */\n      0x00\n        /* \"#utility.yul\":17152:17157   */\n      dup2\n        /* \"#utility.yul\":17145:17157   */\n      swap1\n      pop\n        /* \"#utility.yul\":17103:17163   */\n      swap2\n      swap1\n      pop\n      jump\t// out\n        /* \"#utility.yul\":17169:17311   */\n    tag_196:\n        /* \"#utility.yul\":17219:17228   */\n      0x00\n        /* \"#utility.yul\":17252:17305   */\n      tag_375\n        /* \"#utility.yul\":17270:17304   */\n      tag_376\n        /* \"#utility.yul\":17279:17303   */\n      tag_377\n        /* \"#utility.yul\":17297:17302   */\n      dup5\n        /* \"#utility.yul\":17279:17303   */\n      tag_153\n      jump\t// in\n    tag_377:\n        /* \"#utility.yul\":17270:17304   */\n      tag_195\n      jump\t// in\n    tag_376:\n        /* \"#utility.yul\":17252:17305   */\n      tag_153\n      jump\t// in\n    tag_375:\n        /* \"#utility.yul\":17239:17305   */\n      swap1\n      pop\n        /* \"#utility.yul\":17169:17311   */\n      swap2\n      swap1\n      pop\n      jump\t// out\n        /* \"#utility.yul\":17317:17392   */\n    tag_197:\n        /* \"#utility.yul\":17360:17363   */\n      0x00\n        /* \"#utility.yul\":17381:17386   */\n      dup2\n        /* \"#utility.yul\":17374:17386   */\n      swap1\n      pop\n        /* \"#utility.yul\":17317:17392   */\n      swap2\n      swap1\n      pop\n      jump\t// out\n        /* \"#utility.yul\":17398:17667   */\n    tag_198:\n        /* \"#utility.yul\":17508:17547   */\n      tag_380\n        /* \"#utility.yul\":17539:17546   */\n      dup4\n        /* \"#utility.yul\":17508:17547   */\n      tag_196\n      jump\t// in\n    tag_380:\n        /* \"#utility.yul\":17569:17660   */\n      tag_381\n        /* \"#utility.yul\":17618:17659   */\n      tag_382\n        /* \"#utility.yul\":17642:17658   */\n      dup3\n        /* \"#utility.yul\":17618:17659   */\n      tag_197\n      jump\t// in\n    tag_382:\n        /* \"#utility.yul\":17610:17616   */\n      dup5\n        /* \"#utility.yul\":17603:17607   */\n      dup5\n        /* \"#utility.yul\":17597:17608   */\n      sload\n        /* \"#utility.yul\":17569:17660   */\n      tag_194\n      jump\t// in\n    tag_381:\n        /* \"#utility.yul\":17563:17567   */\n      dup3\n        /* \"#utility.yul\":17556:17661   */\n      sstore\n        /* \"#utility.yul\":17474:17667   */\n      pop\n        /* \"#utility.yul\":17398:17667   */\n      pop\n      pop\n      pop\n      jump\t// out\n        /* \"#utility.yul\":17673:17746   */\n    tag_199:\n        /* \"#utility.yul\":17718:17721   */\n      0x00\n        /* \"#utility.yul\":17673:17746   */\n      swap1\n      jump\t// out\n        /* \"#utility.yul\":17752:17941   */\n    tag_200:\n        /* \"#utility.yul\":17829:17861   */\n      tag_385\n      tag_199\n      jump\t// in\n    tag_385:\n        /* \"#utility.yul\":17870:17935   */\n      tag_386\n        /* \"#utility.yul\":17928:17934   */\n      dup2\n        /* \"#utility.yul\":17920:17926   */\n      dup5\n        /* \"#utility.yul\":17914:17918   */\n      dup5\n        /* \"#utility.yul\":17870:17935   */\n      tag_198\n      jump\t// in\n    tag_386:\n        /* \"#utility.yul\":17805:17941   */\n      pop\n        /* \"#utility.yul\":17752:17941   */\n      pop\n      pop\n      jump\t// out\n        /* \"#utility.yul\":17947:18133   */\n    tag_201:\n        /* \"#utility.yul\":18007:18127   */\n    tag_388:\n        /* \"#utility.yul\":18024:18027   */\n      dup2\n        /* \"#utility.yul\":18017:18022   */\n      dup2\n        /* \"#utility.yul\":18014:18028   */\n      lt\n        /* \"#utility.yul\":18007:18127   */\n      iszero\n      tag_390\n      jumpi\n        /* \"#utility.yul\":18078:18117   */\n      tag_391\n        /* \"#utility.yul\":18115:18116   */\n      0x00\n        /* \"#utility.yul\":18108:18113   */\n      dup3\n        /* \"#utility.yul\":18078:18117   */\n      tag_200\n      jump\t// in\n    tag_391:\n        /* \"#utility.yul\":18051:18052   */\n      0x01\n        /* \"#utility.yul\":18044:18049   */\n      dup2\n        /* \"#utility.yul\":18040:18053   */\n      add\n        /* \"#utility.yul\":18031:18053   */\n      swap1\n      pop\n        /* \"#utility.yul\":18007:18127   */\n      jump(tag_388)\n    tag_390:\n        /* \"#utility.yul\":17947:18133   */\n      pop\n      pop\n      jump\t// out\n        /* \"#utility.yul\":18139:18682   */\n    tag_202:\n        /* \"#utility.yul\":18240:18242   */\n      0x1f\n        /* \"#utility.yul\":18235:18238   */\n      dup3\n        /* \"#utility.yul\":18232:18243   */\n      gt\n        /* \"#utility.yul\":18229:18675   */\n      iszero\n      tag_393\n      jumpi\n        /* \"#utility.yul\":18274:18312   */\n      tag_394\n        /* \"#utility.yul\":18306:18311   */\n      dup2\n        /* \"#utility.yul\":18274:18312   */\n      tag_191\n      jump\t// in\n    tag_394:\n        /* \"#utility.yul\":18358:18387   */\n      tag_395\n        /* \"#utility.yul\":18376:18386   */\n      dup5\n        /* \"#utility.yul\":18358:18387   */\n      tag_192\n      jump\t// in\n    tag_395:\n        /* \"#utility.yul\":18348:18356   */\n      dup2\n        /* \"#utility.yul\":18344:18388   */\n      add\n        /* \"#utility.yul\":18541:18543   */\n      0x20\n        /* \"#utility.yul\":18529:18539   */\n      dup6\n        /* \"#utility.yul\":18526:18544   */\n      lt\n        /* \"#utility.yul\":18523:18572   */\n      iszero\n      tag_396\n      jumpi\n        /* \"#utility.yul\":18562:18570   */\n      dup2\n        /* \"#utility.yul\":18547:18570   */\n      swap1\n      pop\n        /* \"#utility.yul\":18523:18572   */\n    tag_396:\n        /* \"#utility.yul\":18585:18665   */\n      tag_397\n        /* \"#utility.yul\":18641:18663   */\n      tag_398\n        /* \"#utility.yul\":18659:18662   */\n      dup6\n        /* \"#utility.yul\":18641:18663   */\n      tag_192\n      jump\t// in\n    tag_398:\n        /* \"#utility.yul\":18631:18639   */\n      dup4\n        /* \"#utility.yul\":18627:18664   */\n      add\n        /* \"#utility.yul\":18614:18625   */\n      dup3\n        /* \"#utility.yul\":18585:18665   */\n      tag_201\n      jump\t// in\n    tag_397:\n        /* \"#utility.yul\":18244:18675   */\n      pop\n      pop\n        /* \"#utility.yul\":18229:18675   */\n    tag_393:\n        /* \"#utility.yul\":18139:18682   */\n      pop\n      pop\n      pop\n      jump\t// out\n        /* \"#utility.yul\":18688:18805   */\n    tag_203:\n        /* \"#utility.yul\":18742:18750   */\n      0x00\n        /* \"#utility.yul\":18792:18797   */\n      dup3\n        /* \"#utility.yul\":18786:18790   */\n      dup3\n        /* \"#utility.yul\":18782:18798   */\n      shr\n        /* \"#utility.yul\":18761:18798   */\n      swap1\n      pop\n        /* \"#utility.yul\":18688:18805   */\n      swap3\n      swap2\n      pop\n      pop\n      jump\t// out\n        /* \"#utility.yul\":18811:18980   */\n    tag_204:\n        /* \"#utility.yul\":18855:18861   */\n      0x00\n        /* \"#utility.yul\":18888:18939   */\n      tag_401\n        /* \"#utility.yul\":18936:18937   */\n      0x00\n        /* \"#utility.yul\":18932:18938   */\n      not\n        /* \"#utility.yul\":18924:18929   */\n      dup5\n        /* \"#utility.yul\":18921:18922   */\n      0x08\n        /* \"#utility.yul\":18917:18930   */\n      mul\n        /* \"#utility.yul\":18888:18939   */\n      tag_203\n      jump\t// in\n    tag_401:\n        /* \"#utility.yul\":18884:18940   */\n      not\n        /* \"#utility.yul\":18969:18973   */\n      dup1\n        /* \"#utility.yul\":18963:18967   */\n      dup4\n        /* \"#utility.yul\":18959:18974   */\n      and\n        /* \"#utility.yul\":18949:18974   */\n      swap2\n      pop\n        /* \"#utility.yul\":18862:18980   */\n      pop\n        /* \"#utility.yul\":18811:18980   */\n      swap3\n      swap2\n      pop\n      pop\n      jump\t// out\n        /* \"#utility.yul\":18985:19280   */\n    tag_205:\n        /* \"#utility.yul\":19061:19065   */\n      0x00\n        /* \"#utility.yul\":19207:19236   */\n      tag_403\n        /* \"#utility.yul\":19232:19235   */\n      dup4\n        /* \"#utility.yul\":19226:19230   */\n      dup4\n        /* \"#utility.yul\":19207:19236   */\n      tag_204\n      jump\t// in\n    tag_403:\n        /* \"#utility.yul\":19199:19236   */\n      swap2\n      pop\n        /* \"#utility.yul\":19269:19272   */\n      dup3\n        /* \"#utility.yul\":19266:19267   */\n      0x02\n        /* \"#utility.yul\":19262:19273   */\n      mul\n        /* \"#utility.yul\":19256:19260   */\n      dup3\n        /* \"#utility.yul\":19253:19274   */\n      or\n        /* \"#utility.yul\":19245:19274   */\n      swap1\n      pop\n        /* \"#utility.yul\":18985:19280   */\n      swap3\n      swap2\n      pop\n      pop\n      jump\t// out\n        /* \"#utility.yul\":19285:20680   */\n    tag_85:\n        /* \"#utility.yul\":19402:19439   */\n      tag_405\n        /* \"#utility.yul\":19435:19438   */\n      dup3\n        /* \"#utility.yul\":19402:19439   */\n      tag_158\n      jump\t// in\n    tag_405:\n        /* \"#utility.yul\":19504:19522   */\n      0xffffffffffffffff\n        /* \"#utility.yul\":19496:19502   */\n      dup2\n        /* \"#utility.yul\":19493:19523   */\n      gt\n        /* \"#utility.yul\":19490:19546   */\n      iszero\n      tag_406\n      jumpi\n        /* \"#utility.yul\":19526:19544   */\n      tag_407\n      tag_180\n      jump\t// in\n    tag_407:\n        /* \"#utility.yul\":19490:19546   */\n    tag_406:\n        /* \"#utility.yul\":19570:19608   */\n      tag_408\n        /* \"#utility.yul\":19602:19606   */\n      dup3\n        /* \"#utility.yul\":19596:19607   */\n      sload\n        /* \"#utility.yul\":19570:19608   */\n      tag_62\n      jump\t// in\n    tag_408:\n        /* \"#utility.yul\":19655:19722   */\n      tag_409\n        /* \"#utility.yul\":19715:19721   */\n      dup3\n        /* \"#utility.yul\":19707:19713   */\n      dup3\n        /* \"#utility.yul\":19701:19705   */\n      dup6\n        /* \"#utility.yul\":19655:19722   */\n      tag_202\n      jump\t// in\n    tag_409:\n        /* \"#utility.yul\":19749:19750   */\n      0x00\n        /* \"#utility.yul\":19773:19777   */\n      0x20\n        /* \"#utility.yul\":19760:19777   */\n      swap1\n      pop\n        /* \"#utility.yul\":19805:19807   */\n      0x1f\n        /* \"#utility.yul\":19797:19803   */\n      dup4\n        /* \"#utility.yul\":19794:19808   */\n      gt\n        /* \"#utility.yul\":19822:19823   */\n      0x01\n        /* \"#utility.yul\":19817:20435   */\n      dup2\n      eq\n      tag_411\n      jumpi\n        /* \"#utility.yul\":20479:20480   */\n      0x00\n        /* \"#utility.yul\":20496:20502   */\n      dup5\n        /* \"#utility.yul\":20493:20570   */\n      iszero\n      tag_412\n      jumpi\n        /* \"#utility.yul\":20545:20554   */\n      dup3\n        /* \"#utility.yul\":20540:20543   */\n      dup8\n        /* \"#utility.yul\":20536:20555   */\n      add\n        /* \"#utility.yul\":20530:20556   */\n      mload\n        /* \"#utility.yul\":20521:20556   */\n      swap1\n      pop\n        /* \"#utility.yul\":20493:20570   */\n    tag_412:\n        /* \"#utility.yul\":20596:20663   */\n      tag_413\n        /* \"#utility.yul\":20656:20662   */\n      dup6\n        /* \"#utility.yul\":20649:20654   */\n      dup3\n        /* \"#utility.yul\":20596:20663   */\n      tag_205\n      jump\t// in\n    tag_413:\n        /* \"#utility.yul\":20590:20594   */\n      dup7\n        /* \"#utility.yul\":20583:20664   */\n      sstore\n        /* \"#utility.yul\":20452:20674   */\n      pop\n        /* \"#utility.yul\":19787:20674   */\n      jump(tag_410)\n        /* \"#utility.yul\":19817:20435   */\n    tag_411:\n        /* \"#utility.yul\":19869:19873   */\n      0x1f\n        /* \"#utility.yul\":19865:19874   */\n      not\n        /* \"#utility.yul\":19857:19863   */\n      dup5\n        /* \"#utility.yul\":19853:19875   */\n      and\n        /* \"#utility.yul\":19903:19940   */\n      tag_414\n        /* \"#utility.yul\":19935:19939   */\n      dup7\n        /* \"#utility.yul\":19903:19940   */\n      tag_191\n      jump\t// in\n    tag_414:\n        /* \"#utility.yul\":19962:19963   */\n      0x00\n        /* \"#utility.yul\":19976:20184   */\n    tag_415:\n        /* \"#utility.yul\":19990:19997   */\n      dup3\n        /* \"#utility.yul\":19987:19988   */\n      dup2\n        /* \"#utility.yul\":19984:19998   */\n      lt\n        /* \"#utility.yul\":19976:20184   */\n      iszero\n      tag_417\n      jumpi\n        /* \"#utility.yul\":20069:20078   */\n      dup5\n        /* \"#utility.yul\":20064:20067   */\n      dup10\n        /* \"#utility.yul\":20060:20079   */\n      add\n        /* \"#utility.yul\":20054:20080   */\n      mload\n        /* \"#utility.yul\":20046:20052   */\n      dup3\n        /* \"#utility.yul\":20039:20081   */\n      sstore\n        /* \"#utility.yul\":20120:20121   */\n      0x01\n        /* \"#utility.yul\":20112:20118   */\n      dup3\n        /* \"#utility.yul\":20108:20122   */\n      add\n        /* \"#utility.yul\":20098:20122   */\n      swap2\n      pop\n        /* \"#utility.yul\":20167:20169   */\n      0x20\n        /* \"#utility.yul\":20156:20165   */\n      dup6\n        /* \"#utility.yul\":20152:20170   */\n      add\n        /* \"#utility.yul\":20139:20170   */\n      swap5\n      pop\n        /* \"#utility.yul\":20013:20017   */\n      0x20\n        /* \"#utility.yul\":20010:20011   */\n      dup2\n        /* \"#utility.yul\":20006:20018   */\n      add\n        /* \"#utility.yul\":20001:20018   */\n      swap1\n      pop\n        /* \"#utility.yul\":19976:20184   */\n      jump(tag_415)\n    tag_417:\n        /* \"#utility.yul\":20212:20218   */\n      dup7\n        /* \"#utility.yul\":20203:20210   */\n      dup4\n        /* \"#utility.yul\":20200:20219   */\n      lt\n        /* \"#utility.yul\":20197:20376   */\n      iszero\n      tag_418\n      jumpi\n        /* \"#utility.yul\":20270:20279   */\n      dup5\n        /* \"#utility.yul\":20265:20268   */\n      dup10\n        /* \"#utility.yul\":20261:20280   */\n      add\n        /* \"#utility.yul\":20255:20281   */\n      mload\n        /* \"#utility.yul\":20313:20361   */\n      tag_419\n        /* \"#utility.yul\":20355:20359   */\n      0x1f\n        /* \"#utility.yul\":20347:20353   */\n      dup10\n        /* \"#utility.yul\":20343:20360   */\n      and\n        /* \"#utility.yul\":20332:20341   */\n      dup3\n        /* \"#utility.yul\":20313:20361   */\n      tag_204\n      jump\t// in\n    tag_419:\n        /* \"#utility.yul\":20305:20311   */\n      dup4\n        /* \"#utility.yul\":20298:20362   */\n      sstore\n        /* \"#utility.yul\":20220:20376   */\n      pop\n        /* \"#utility.yul\":20197:20376   */\n    tag_418:\n        /* \"#utility.yul\":20422:20423   */\n      0x01\n        /* \"#utility.yul\":20418:20419   */\n      0x02\n        /* \"#utility.yul\":20410:20416   */\n      dup9\n        /* \"#utility.yul\":20406:20420   */\n      mul\n        /* \"#utility.yul\":20402:20424   */\n      add\n        /* \"#utility.yul\":20396:20400   */\n      dup9\n        /* \"#utility.yul\":20389:20425   */\n      sstore\n        /* \"#utility.yul\":19824:20435   */\n      pop\n      pop\n      pop\n        /* \"#utility.yul\":19787:20674   */\n    tag_410:\n      pop\n        /* \"#utility.yul\":19377:20680   */\n      pop\n      pop\n      pop\n        /* \"#utility.yul\":19285:20680   */\n      pop\n      pop\n      jump\t// out\n        /* \"#utility.yul\":20686:21330   */\n    tag_87:\n        /* \"#utility.yul\":20883:20887   */\n      0x00\n        /* \"#utility.yul\":20921:20924   */\n      0x80\n        /* \"#utility.yul\":20910:20919   */\n      dup3\n        /* \"#utility.yul\":20906:20925   */\n      add\n        /* \"#utility.yul\":20898:20925   */\n      swap1\n      pop\n        /* \"#utility.yul\":20935:21006   */\n      tag_421\n        /* \"#utility.yul\":21003:21004   */\n      0x00\n        /* \"#utility.yul\":20992:21001   */\n      dup4\n        /* \"#utility.yul\":20988:21005   */\n      add\n        /* \"#utility.yul\":20979:20985   */\n      dup8\n        /* \"#utility.yul\":20935:21006   */\n      tag_156\n      jump\t// in\n    tag_421:\n        /* \"#utility.yul\":21016:21088   */\n      tag_422\n        /* \"#utility.yul\":21084:21086   */\n      0x20\n        /* \"#utility.yul\":21073:21082   */\n      dup4\n        /* \"#utility.yul\":21069:21087   */\n      add\n        /* \"#utility.yul\":21060:21066   */\n      dup7\n        /* \"#utility.yul\":21016:21088   */\n      tag_157\n      jump\t// in\n    tag_422:\n        /* \"#utility.yul\":21135:21144   */\n      dup2\n        /* \"#utility.yul\":21129:21133   */\n      dup2\n        /* \"#utility.yul\":21125:21145   */\n      sub\n        /* \"#utility.yul\":21120:21122   */\n      0x40\n        /* \"#utility.yul\":21109:21118   */\n      dup4\n        /* \"#utility.yul\":21105:21123   */\n      add\n        /* \"#utility.yul\":21098:21146   */\n      mstore\n        /* \"#utility.yul\":21163:21241   */\n      tag_423\n        /* \"#utility.yul\":21236:21240   */\n      dup2\n        /* \"#utility.yul\":21227:21233   */\n      dup6\n        /* \"#utility.yul\":21163:21241   */\n      tag_162\n      jump\t// in\n    tag_423:\n        /* \"#utility.yul\":21155:21241   */\n      swap1\n      pop\n        /* \"#utility.yul\":21251:21323   */\n      tag_424\n        /* \"#utility.yul\":21319:21321   */\n      0x60\n        /* \"#utility.yul\":21308:21317   */\n      dup4\n        /* \"#utility.yul\":21304:21322   */\n      add\n        /* \"#utility.yul\":21295:21301   */\n      dup5\n        /* \"#utility.yul\":21251:21323   */\n      tag_156\n      jump\t// in\n    tag_424:\n        /* \"#utility.yul\":20686:21330   */\n      swap6\n      swap5\n      pop\n      pop\n      pop\n      pop\n      pop\n      jump\t// out\n        /* \"#utility.yul\":21336:21516   */\n    tag_94:\n        /* \"#utility.yul\":21384:21461   */\n      0x4e487b7100000000000000000000000000000000000000000000000000000000\n        /* \"#utility.yul\":21381:21382   */\n      0x00\n        /* \"#utility.yul\":21374:21462   */\n      mstore\n        /* \"#utility.yul\":21481:21485   */\n      0x32\n        /* \"#utility.yul\":21478:21479   */\n      0x04\n        /* \"#utility.yul\":21471:21486   */\n      mstore\n        /* \"#utility.yul\":21505:21509   */\n      0x24\n        /* \"#utility.yul\":21502:21503   */\n      0x00\n        /* \"#utility.yul\":21495:21510   */\n      revert\n        /* \"#utility.yul\":21522:21702   */\n    tag_206:\n        /* \"#utility.yul\":21570:21647   */\n      0x4e487b7100000000000000000000000000000000000000000000000000000000\n        /* \"#utility.yul\":21567:21568   */\n      0x00\n        /* \"#utility.yul\":21560:21648   */\n      mstore\n        /* \"#utility.yul\":21667:21671   */\n      0x11\n        /* \"#utility.yul\":21664:21665   */\n      0x04\n        /* \"#utility.yul\":21657:21672   */\n      mstore\n        /* \"#utility.yul\":21691:21695   */\n      0x24\n        /* \"#utility.yul\":21688:21689   */\n      0x00\n        /* \"#utility.yul\":21681:21696   */\n      revert\n        /* \"#utility.yul\":21708:21899   */\n    tag_97:\n        /* \"#utility.yul\":21748:21751   */\n      0x00\n        /* \"#utility.yul\":21767:21787   */\n      tag_428\n        /* \"#utility.yul\":21785:21786   */\n      dup3\n        /* \"#utility.yul\":21767:21787   */\n      tag_153\n      jump\t// in\n    tag_428:\n        /* \"#utility.yul\":21762:21787   */\n      swap2\n      pop\n        /* \"#utility.yul\":21801:21821   */\n      tag_429\n        /* \"#utility.yul\":21819:21820   */\n      dup4\n        /* \"#utility.yul\":21801:21821   */\n      tag_153\n      jump\t// in\n    tag_429:\n        /* \"#utility.yul\":21796:21821   */\n      swap3\n      pop\n        /* \"#utility.yul\":21844:21845   */\n      dup3\n        /* \"#utility.yul\":21841:21842   */\n      dup3\n        /* \"#utility.yul\":21837:21846   */\n      add\n        /* \"#utility.yul\":21830:21846   */\n      swap1\n      pop\n        /* \"#utility.yul\":21865:21868   */\n      dup1\n        /* \"#utility.yul\":21862:21863   */\n      dup3\n        /* \"#utility.yul\":21859:21869   */\n      gt\n        /* \"#utility.yul\":21856:21892   */\n      iszero\n      tag_430\n      jumpi\n        /* \"#utility.yul\":21872:21890   */\n      tag_431\n      tag_206\n      jump\t// in\n    tag_431:\n        /* \"#utility.yul\":21856:21892   */\n    tag_430:\n        /* \"#utility.yul\":21708:21899   */\n      swap3\n      swap2\n      pop\n      pop\n      jump\t// out\n        /* \"#utility.yul\":21905:22074   */\n    tag_207:\n        /* \"#utility.yul\":22045:22066   */\n      0x747765657420646f65736e6f7420657869737400000000000000000000000000\n        /* \"#utility.yul\":22041:22042   */\n      0x00\n        /* \"#utility.yul\":22033:22039   */\n      dup3\n        /* \"#utility.yul\":22029:22043   */\n      add\n        /* \"#utility.yul\":22022:22067   */\n      mstore\n        /* \"#utility.yul\":21905:22074   */\n      pop\n      jump\t// out\n        /* \"#utility.yul\":22080:22446   */\n    tag_208:\n        /* \"#utility.yul\":22222:22225   */\n      0x00\n        /* \"#utility.yul\":22243:22310   */\n      tag_434\n        /* \"#utility.yul\":22307:22309   */\n      0x13\n        /* \"#utility.yul\":22302:22305   */\n      dup4\n        /* \"#utility.yul\":22243:22310   */\n      tag_159\n      jump\t// in\n    tag_434:\n        /* \"#utility.yul\":22236:22310   */\n      swap2\n      pop\n        /* \"#utility.yul\":22319:22412   */\n      tag_435\n        /* \"#utility.yul\":22408:22411   */\n      dup3\n        /* \"#utility.yul\":22319:22412   */\n      tag_207\n      jump\t// in\n    tag_435:\n        /* \"#utility.yul\":22437:22439   */\n      0x20\n        /* \"#utility.yul\":22432:22435   */\n      dup3\n        /* \"#utility.yul\":22428:22440   */\n      add\n        /* \"#utility.yul\":22421:22440   */\n      swap1\n      pop\n        /* \"#utility.yul\":22080:22446   */\n      swap2\n      swap1\n      pop\n      jump\t// out\n        /* \"#utility.yul\":22452:22871   */\n    tag_104:\n        /* \"#utility.yul\":22618:22622   */\n      0x00\n        /* \"#utility.yul\":22656:22658   */\n      0x20\n        /* \"#utility.yul\":22645:22654   */\n      dup3\n        /* \"#utility.yul\":22641:22659   */\n      add\n        /* \"#utility.yul\":22633:22659   */\n      swap1\n      pop\n        /* \"#utility.yul\":22705:22714   */\n      dup2\n        /* \"#utility.yul\":22699:22703   */\n      dup2\n        /* \"#utility.yul\":22695:22715   */\n      sub\n        /* \"#utility.yul\":22691:22692   */\n      0x00\n        /* \"#utility.yul\":22680:22689   */\n      dup4\n        /* \"#utility.yul\":22676:22693   */\n      add\n        /* \"#utility.yul\":22669:22716   */\n      mstore\n        /* \"#utility.yul\":22733:22864   */\n      tag_437\n        /* \"#utility.yul\":22859:22863   */\n      dup2\n        /* \"#utility.yul\":22733:22864   */\n      tag_208\n      jump\t// in\n    tag_437:\n        /* \"#utility.yul\":22725:22864   */\n      swap1\n      pop\n        /* \"#utility.yul\":22452:22871   */\n      swap2\n      swap1\n      pop\n      jump\t// out\n        /* \"#utility.yul\":22877:23041   */\n    tag_209:\n        /* \"#utility.yul\":23017:23033   */\n      0x63616e6e6f74206469736c696b65000000000000000000000000000000000000\n        /* \"#utility.yul\":23013:23014   */\n      0x00\n        /* \"#utility.yul\":23005:23011   */\n      dup3\n        /* \"#utility.yul\":23001:23015   */\n      add\n        /* \"#utility.yul\":22994:23034   */\n      mstore\n        /* \"#utility.yul\":22877:23041   */\n      pop\n      jump\t// out\n        /* \"#utility.yul\":23047:23413   */\n    tag_210:\n        /* \"#utility.yul\":23189:23192   */\n      0x00\n        /* \"#utility.yul\":23210:23277   */\n      tag_440\n        /* \"#utility.yul\":23274:23276   */\n      0x0e\n        /* \"#utility.yul\":23269:23272   */\n      dup4\n        /* \"#utility.yul\":23210:23277   */\n      tag_159\n      jump\t// in\n    tag_440:\n        /* \"#utility.yul\":23203:23277   */\n      swap2\n      pop\n        /* \"#utility.yul\":23286:23379   */\n      tag_441\n        /* \"#utility.yul\":23375:23378   */\n      dup3\n        /* \"#utility.yul\":23286:23379   */\n      tag_209\n      jump\t// in\n    tag_441:\n        /* \"#utility.yul\":23404:23406   */\n      0x20\n        /* \"#utility.yul\":23399:23402   */\n      dup3\n        /* \"#utility.yul\":23395:23407   */\n      add\n        /* \"#utility.yul\":23388:23407   */\n      swap1\n      pop\n        /* \"#utility.yul\":23047:23413   */\n      swap2\n      swap1\n      pop\n      jump\t// out\n        /* \"#utility.yul\":23419:23838   */\n    tag_110:\n        /* \"#utility.yul\":23585:23589   */\n      0x00\n        /* \"#utility.yul\":23623:23625   */\n      0x20\n        /* \"#utility.yul\":23612:23621   */\n      dup3\n        /* \"#utility.yul\":23608:23626   */\n      add\n        /* \"#utility.yul\":23600:23626   */\n      swap1\n      pop\n        /* \"#utility.yul\":23672:23681   */\n      dup2\n        /* \"#utility.yul\":23666:23670   */\n      dup2\n        /* \"#utility.yul\":23662:23682   */\n      sub\n        /* \"#utility.yul\":23658:23659   */\n      0x00\n        /* \"#utility.yul\":23647:23656   */\n      dup4\n        /* \"#utility.yul\":23643:23660   */\n      add\n        /* \"#utility.yul\":23636:23683   */\n      mstore\n        /* \"#utility.yul\":23700:23831   */\n      tag_443\n        /* \"#utility.yul\":23826:23830   */\n      dup2\n        /* \"#utility.yul\":23700:23831   */\n      tag_210\n      jump\t// in\n    tag_443:\n        /* \"#utility.yul\":23692:23831   */\n      swap1\n      pop\n        /* \"#utility.yul\":23419:23838   */\n      swap2\n      swap1\n      pop\n      jump\t// out\n        /* \"#utility.yul\":23844:24038   */\n    tag_115:\n        /* \"#utility.yul\":23884:23888   */\n      0x00\n        /* \"#utility.yul\":23904:23924   */\n      tag_445\n        /* \"#utility.yul\":23922:23923   */\n      dup3\n        /* \"#utility.yul\":23904:23924   */\n      tag_153\n      jump\t// in\n    tag_445:\n        /* \"#utility.yul\":23899:23924   */\n      swap2\n      pop\n        /* \"#utility.yul\":23938:23958   */\n      tag_446\n        /* \"#utility.yul\":23956:23957   */\n      dup4\n        /* \"#utility.yul\":23938:23958   */\n      tag_153\n      jump\t// in\n    tag_446:\n        /* \"#utility.yul\":23933:23958   */\n      swap3\n      pop\n        /* \"#utility.yul\":23982:23983   */\n      dup3\n        /* \"#utility.yul\":23979:23980   */\n      dup3\n        /* \"#utility.yul\":23975:23984   */\n      sub\n        /* \"#utility.yul\":23967:23984   */\n      swap1\n      pop\n        /* \"#utility.yul\":24006:24007   */\n      dup2\n        /* \"#utility.yul\":24000:24004   */\n      dup2\n        /* \"#utility.yul\":23997:24008   */\n      gt\n        /* \"#utility.yul\":23994:24031   */\n      iszero\n      tag_447\n      jumpi\n        /* \"#utility.yul\":24011:24029   */\n      tag_448\n      tag_206\n      jump\t// in\n    tag_448:\n        /* \"#utility.yul\":23994:24031   */\n    tag_447:\n        /* \"#utility.yul\":23844:24038   */\n      swap3\n      swap2\n      pop\n      pop\n      jump\t// out\n        /* \"#utility.yul\":24044:24597   */\n    tag_120:\n        /* \"#utility.yul\":24221:24225   */\n      0x00\n        /* \"#utility.yul\":24259:24262   */\n      0x80\n        /* \"#utility.yul\":24248:24257   */\n      dup3\n        /* \"#utility.yul\":24244:24263   */\n      add\n        /* \"#utility.yul\":24236:24263   */\n      swap1\n      pop\n        /* \"#utility.yul\":24273:24344   */\n      tag_450\n        /* \"#utility.yul\":24341:24342   */\n      0x00\n        /* \"#utility.yul\":24330:24339   */\n      dup4\n        /* \"#utility.yul\":24326:24343   */\n      add\n        /* \"#utility.yul\":24317:24323   */\n      dup8\n        /* \"#utility.yul\":24273:24344   */\n      tag_157\n      jump\t// in\n    tag_450:\n        /* \"#utility.yul\":24354:24426   */\n      tag_451\n        /* \"#utility.yul\":24422:24424   */\n      0x20\n        /* \"#utility.yul\":24411:24420   */\n      dup4\n        /* \"#utility.yul\":24407:24425   */\n      add\n        /* \"#utility.yul\":24398:24404   */\n      dup7\n        /* \"#utility.yul\":24354:24426   */\n      tag_157\n      jump\t// in\n    tag_451:\n        /* \"#utility.yul\":24436:24508   */\n      tag_452\n        /* \"#utility.yul\":24504:24506   */\n      0x40\n        /* \"#utility.yul\":24493:24502   */\n      dup4\n        /* \"#utility.yul\":24489:24507   */\n      add\n        /* \"#utility.yul\":24480:24486   */\n      dup6\n        /* \"#utility.yul\":24436:24508   */\n      tag_156\n      jump\t// in\n    tag_452:\n        /* \"#utility.yul\":24518:24590   */\n      tag_453\n        /* \"#utility.yul\":24586:24588   */\n      0x60\n        /* \"#utility.yul\":24575:24584   */\n      dup4\n        /* \"#utility.yul\":24571:24589   */\n      add\n        /* \"#utility.yul\":24562:24568   */\n      dup5\n        /* \"#utility.yul\":24518:24590   */\n      tag_156\n      jump\t// in\n    tag_453:\n        /* \"#utility.yul\":24044:24597   */\n      swap6\n      swap5\n      pop\n      pop\n      pop\n      pop\n      pop\n      jump\t// out\n\n    auxdata: 0xa264697066735822122023ebcc842453d8323f229575e39fbfba5962f1425affc5bdcefa75399e49f98f64736f6c634300081a0033\n}\n",
				"bytecode": {
					"linkReferences": {},
					"object": "608060405260145f806101000a81548161ffff021916908361ffff160217905550348015602a575f80fd5b50335f60026101000a81548173ffffffffffffffffffffffffffffffffffffffff021916908373ffffffffffffffffffffffffffffffffffffffff160217905550611a12806100785f395ff3fe608060405234801561000f575f80fd5b506004361061009c575f3560e01c8063820785cc11610064578063820785cc146101485780638da5cb5b14610178578063a1488f7c14610196578063d04ddaa0146101b2578063ed9bb8d7146101ce5761009c565b806305a1b4a9146100a057806353256135146100d457806358bfa4ab146100f25780636eb107971461010e5780637c9cd2bc1461012c575b5f80fd5b6100ba60048036038101906100b59190610e60565b6101fe565b6040516100cb959493929190610f2c565b60405180910390f35b6100dc6102ef565b6040516100e99190611118565b60405180910390f35b61010c6004803603810190610107919061116f565b610488565b005b6101166104fe565b60405161012391906111a9565b60405180910390f35b610146600480360381019061014191906112ee565b61050f565b005b610162600480360381019061015d9190611335565b610712565b60405161016f9190611360565b60405180910390f35b6101806107e1565b60405161018d9190611379565b60405180910390f35b6101b060048036038101906101ab9190611392565b610806565b005b6101cc60048036038101906101c79190611392565b610a58565b005b6101e860048036038101906101e391906113d0565b610c0a565b6040516101f5919061146e565b60405180910390f35b6001602052815f5260405f208181548110610217575f80fd5b905f5260205f2090600502015f9150915050805f015490806001015f9054906101000a900473ffffffffffffffffffffffffffffffffffffffff1690806002018054610262906114bb565b80601f016020809104026020016040519081016040528092919081815260200182805461028e906114bb565b80156102d95780601f106102b0576101008083540402835291602001916102d9565b820191905f5260205f20905b8154815290600101906020018083116102bc57829003601f168201915b5050505050908060030154908060040154905085565b606060015f3373ffffffffffffffffffffffffffffffffffffffff1673ffffffffffffffffffffffffffffffffffffffff1681526020019081526020015f20805480602002602001604051908101604052809291908181526020015f905b8282101561047f578382905f5260205f2090600502016040518060a00160405290815f8201548152602001600182015f9054906101000a900473ffffffffffffffffffffffffffffffffffffffff1673ffffffffffffffffffffffffffffffffffffffff1673ffffffffffffffffffffffffffffffffffffffff1681526020016002820180546103dc906114bb565b80601f0160208091040260200160405190810160405280929190818152602001828054610408906114bb565b80156104535780601f1061042a57610100808354040283529160200191610453565b820191905f5260205f20905b81548152906001019060200180831161043657829003601f168201915b50505050508152602001600382015481526020016004820154815250508152602001906001019061034d565b50505050905090565b5f60029054906101000a900473ffffffffffffffffffffffffffffffffffffffff1673ffffffffffffffffffffffffffffffffffffffff163373ffffffffffffffffffffffffffffffffffffffff16146104e0575f80fd5b805f806101000a81548161ffff021916908361ffff16021790555050565b5f8054906101000a900461ffff1681565b5f8054906101000a900461ffff1661ffff1681511115610564576040517f08c379a000000000000000000000000000000000000000000000000000000000815260040161055b90611535565b60405180910390fd5b5f6040518060a0016040528060015f3373ffffffffffffffffffffffffffffffffffffffff1673ffffffffffffffffffffffffffffffffffffffff1681526020019081526020015f208054905081526020013373ffffffffffffffffffffffffffffffffffffffff1681526020018381526020014281526020015f815250905060015f3373ffffffffffffffffffffffffffffffffffffffff1673ffffffffffffffffffffffffffffffffffffffff1681526020019081526020015f2081908060018154018082558091505060019003905f5260205f2090600502015f909190919091505f820151815f01556020820151816001015f6101000a81548173ffffffffffffffffffffffffffffffffffffffff021916908373ffffffffffffffffffffffffffffffffffffffff16021790555060408201518160020190816106ab91906116f0565b50606082015181600301556080820151816004015550507f16fd3c13e9d46923e0a8bce11c7b473ec508a72e6c96cd2404b29ce972afc29e815f015182602001518360400151846060015160405161070694939291906117bf565b60405180910390a15050565b5f805f5b60015f8573ffffffffffffffffffffffffffffffffffffffff1673ffffffffffffffffffffffffffffffffffffffff1681526020019081526020015f20805490508110156107d75760015f8573ffffffffffffffffffffffffffffffffffffffff1673ffffffffffffffffffffffffffffffffffffffff1681526020019081526020015f2081815481106107ad576107ac611809565b5b905f5260205f20906005020160040154826107c89190611863565b91508080600101915050610716565b5080915050919050565b5f60029054906101000a900473ffffffffffffffffffffffffffffffffffffffff1681565b8160015f8373ffffffffffffffffffffffffffffffffffffffff1673ffffffffffffffffffffffffffffffffffffffff1681526020019081526020015f20838154811061085657610855611809565b5b905f5260205f2090600502015f0154146108a5576040517f08c379a000000000000000000000000000000000000000000000000000000000815260040161089c906118e0565b60405180910390fd5b5f60015f8373ffffffffffffffffffffffffffffffffffffffff1673ffffffffffffffffffffffffffffffffffffffff1681526020019081526020015f2083815481106108f5576108f4611809565b5b905f5260205f2090600502016004015411610945576040517f08c379a000000000000000000000000000000000000000000000000000000000815260040161093c90611948565b60405180910390fd5b6001805f8373ffffffffffffffffffffffffffffffffffffffff1673ffffffffffffffffffffffffffffffffffffffff1681526020019081526020015f20838154811061099557610994611809565b5b905f5260205f2090600502016004015f8282546109b29190611966565b925050819055507f273883c252143c4abce776697615e41ca9bc1aac5968c585d1c8ba8ffaa8b3c133828460015f8673ffffffffffffffffffffffffffffffffffffffff1673ffffffffffffffffffffffffffffffffffffffff1681526020019081526020015f208681548110610a2c57610a2b611809565b5b905f5260205f20906005020160040154604051610a4c9493929190611999565b60405180910390a15050565b8160015f8373ffffffffffffffffffffffffffffffffffffffff1673ffffffffffffffffffffffffffffffffffffffff1681526020019081526020015f208381548110610aa857610aa7611809565b5b905f5260205f2090600502015f015414610af7576040517f08c379a0000000000000000000000000000000000000000000000000000000008152600401610aee906118e0565b60405180910390fd5b6001805f8373ffffffffffffffffffffffffffffffffffffffff1673ffffffffffffffffffffffffffffffffffffffff1681526020019081526020015f208381548110610b4757610b46611809565b5b905f5260205f2090600502016004015f828254610b649190611863565b925050819055507fe8a76fc0f16d11a00d1e93b689b63d76cf60af914dd3d915375dc41d01a0c3c833828460015f8673ffffffffffffffffffffffffffffffffffffffff1673ffffffffffffffffffffffffffffffffffffffff1681526020019081526020015f208681548110610bde57610bdd611809565b5b905f5260205f20906005020160040154604051610bfe9493929190611999565b60405180910390a15050565b610c12610d81565b60015f3373ffffffffffffffffffffffffffffffffffffffff1673ffffffffffffffffffffffffffffffffffffffff1681526020019081526020015f208281548110610c6157610c60611809565b5b905f5260205f2090600502016040518060a00160405290815f8201548152602001600182015f9054906101000a900473ffffffffffffffffffffffffffffffffffffffff1673ffffffffffffffffffffffffffffffffffffffff1673ffffffffffffffffffffffffffffffffffffffff168152602001600282018054610ce6906114bb565b80601f0160208091040260200160405190810160405280929190818152602001828054610d12906114bb565b8015610d5d5780601f10610d3457610100808354040283529160200191610d5d565b820191905f5260205f20905b815481529060010190602001808311610d4057829003601f168201915b50505050508152602001600382015481526020016004820154815250509050919050565b6040518060a001604052805f81526020015f73ffffffffffffffffffffffffffffffffffffffff168152602001606081526020015f81526020015f81525090565b5f604051905090565b5f80fd5b5f80fd5b5f73ffffffffffffffffffffffffffffffffffffffff82169050919050565b5f610dfc82610dd3565b9050919050565b610e0c81610df2565b8114610e16575f80fd5b50565b5f81359050610e2781610e03565b92915050565b5f819050919050565b610e3f81610e2d565b8114610e49575f80fd5b50565b5f81359050610e5a81610e36565b92915050565b5f8060408385031215610e7657610e75610dcb565b5b5f610e8385828601610e19565b9250506020610e9485828601610e4c565b9150509250929050565b610ea781610e2d565b82525050565b610eb681610df2565b82525050565b5f81519050919050565b5f82825260208201905092915050565b8281835e5f83830152505050565b5f601f19601f8301169050919050565b5f610efe82610ebc565b610f088185610ec6565b9350610f18818560208601610ed6565b610f2181610ee4565b840191505092915050565b5f60a082019050610f3f5f830188610e9e565b610f4c6020830187610ead565b8181036040830152610f5e8186610ef4565b9050610f6d6060830185610e9e565b610f7a6080830184610e9e565b9695505050505050565b5f81519050919050565b5f82825260208201905092915050565b5f819050602082019050919050565b610fb681610e2d565b82525050565b610fc581610df2565b82525050565b5f82825260208201905092915050565b5f610fe582610ebc565b610fef8185610fcb565b9350610fff818560208601610ed6565b61100881610ee4565b840191505092915050565b5f60a083015f8301516110285f860182610fad565b50602083015161103b6020860182610fbc565b50604083015184820360408601526110538282610fdb565b91505060608301516110686060860182610fad565b50608083015161107b6080860182610fad565b508091505092915050565b5f6110918383611013565b905092915050565b5f602082019050919050565b5f6110af82610f84565b6110b98185610f8e565b9350836020820285016110cb85610f9e565b805f5b8581101561110657848403895281516110e78582611086565b94506110f283611099565b925060208a019950506001810190506110ce565b50829750879550505050505092915050565b5f6020820190508181035f83015261113081846110a5565b905092915050565b5f61ffff82169050919050565b61114e81611138565b8114611158575f80fd5b50565b5f8135905061116981611145565b92915050565b5f6020828403121561118457611183610dcb565b5b5f6111918482850161115b565b91505092915050565b6111a381611138565b82525050565b5f6020820190506111bc5f83018461119a565b92915050565b5f80fd5b5f80fd5b7f4e487b71000000000000000000000000000000000000000000000000000000005f52604160045260245ffd5b61120082610ee4565b810181811067ffffffffffffffff8211171561121f5761121e6111ca565b5b80604052505050565b5f611231610dc2565b905061123d82826111f7565b919050565b5f67ffffffffffffffff82111561125c5761125b6111ca565b5b61126582610ee4565b9050602081019050919050565b828183375f83830152505050565b5f61129261128d84611242565b611228565b9050828152602081018484840111156112ae576112ad6111c6565b5b6112b9848285611272565b509392505050565b5f82601f8301126112d5576112d46111c2565b5b81356112e5848260208601611280565b91505092915050565b5f6020828403121561130357611302610dcb565b5b5f82013567ffffffffffffffff8111156113205761131f610dcf565b5b61132c848285016112c1565b91505092915050565b5f6020828403121561134a57611349610dcb565b5b5f61135784828501610e19565b91505092915050565b5f6020820190506113735f830184610e9e565b92915050565b5f60208201905061138c5f830184610ead565b92915050565b5f80604083850312156113a8576113a7610dcb565b5b5f6113b585828601610e4c565b92505060206113c685828601610e19565b9150509250929050565b5f602082840312156113e5576113e4610dcb565b5b5f6113f284828501610e4c565b91505092915050565b5f60a083015f8301516114105f860182610fad565b5060208301516114236020860182610fbc565b506040830151848203604086015261143b8282610fdb565b91505060608301516114506060860182610fad565b5060808301516114636080860182610fad565b508091505092915050565b5f6020820190508181035f83015261148681846113fb565b905092915050565b7f4e487b71000000000000000000000000000000000000000000000000000000005f52602260045260245ffd5b5f60028204905060018216806114d257607f821691505b6020821081036114e5576114e461148e565b5b50919050565b7f747765657420697320746f6f206c6f6e672100000000000000000000000000005f82015250565b5f61151f601283610ec6565b915061152a826114eb565b602082019050919050565b5f6020820190508181035f83015261154c81611513565b9050919050565b5f819050815f5260205f209050919050565b5f6020601f8301049050919050565b5f82821b905092915050565b5f600883026115af7fffffffffffffffffffffffffffffffffffffffffffffffffffffffffffffffff82611574565b6115b98683611574565b95508019841693508086168417925050509392505050565b5f819050919050565b5f6115f46115ef6115ea84610e2d565b6115d1565b610e2d565b9050919050565b5f819050919050565b61160d836115da565b611621611619826115fb565b848454611580565b825550505050565b5f90565b611635611629565b611640818484611604565b505050565b5b81811015611663576116585f8261162d565b600181019050611646565b5050565b601f8211156116a85761167981611553565b61168284611565565b81016020851015611691578190505b6116a561169d85611565565b830182611645565b50505b505050565b5f82821c905092915050565b5f6116c85f19846008026116ad565b1980831691505092915050565b5f6116e083836116b9565b9150826002028217905092915050565b6116f982610ebc565b67ffffffffffffffff811115611712576117116111ca565b5b61171c82546114bb565b611727828285611667565b5f60209050601f831160018114611758575f8415611746578287015190505b61175085826116d5565b8655506117b7565b601f19841661176686611553565b5f5b8281101561178d57848901518255600182019150602085019450602081019050611768565b868310156117aa57848901516117a6601f8916826116b9565b8355505b6001600288020188555050505b505050505050565b5f6080820190506117d25f830187610e9e565b6117df6020830186610ead565b81810360408301526117f18185610ef4565b90506118006060830184610e9e565b95945050505050565b7f4e487b71000000000000000000000000000000000000000000000000000000005f52603260045260245ffd5b7f4e487b71000000000000000000000000000000000000000000000000000000005f52601160045260245ffd5b5f61186d82610e2d565b915061187883610e2d565b92508282019050808211156118905761188f611836565b5b92915050565b7f747765657420646f65736e6f74206578697374000000000000000000000000005f82015250565b5f6118ca601383610ec6565b91506118d582611896565b602082019050919050565b5f6020820190508181035f8301526118f7816118be565b9050919050565b7f63616e6e6f74206469736c696b650000000000000000000000000000000000005f82015250565b5f611932600e83610ec6565b915061193d826118fe565b602082019050919050565b5f6020820190508181035f83015261195f81611926565b9050919050565b5f61197082610e2d565b915061197b83610e2d565b925082820390508181111561199357611992611836565b5b92915050565b5f6080820190506119ac5f830187610ead565b6119b96020830186610ead565b6119c66040830185610e9e565b6119d36060830184610e9e565b9594505050505056fea264697066735822122023ebcc842453d8323f229575e39fbfba5962f1425affc5bdcefa75399e49f98f64736f6c634300081a0033",
					"opcodes": "PUSH1 0x80 PUSH1 0x40 MSTORE PUSH1 0x14 PUSH0 DUP1 PUSH2 0x100 EXP DUP2 SLOAD DUP2 PUSH2 0xFFFF MUL NOT AND SWAP1 DUP4 PUSH2 0xFFFF AND MUL OR SWAP1 SSTORE POP CALLVALUE DUP1 ISZERO PUSH1 0x2A JUMPI PUSH0 DUP1 REVERT JUMPDEST POP CALLER PUSH0 PUSH1 0x2 PUSH2 0x100 EXP DUP2 SLOAD DUP2 PUSH20 0xFFFFFFFFFFFFFFFFFFFFFFFFFFFFFFFFFFFFFFFF MUL NOT AND SWAP1 DUP4 PUSH20 0xFFFFFFFFFFFFFFFFFFFFFFFFFFFFFFFFFFFFFFFF AND MUL OR SWAP1 SSTORE POP PUSH2 0x1A12 DUP1 PUSH2 0x78 PUSH0 CODECOPY PUSH0 RETURN INVALID PUSH1 0x80 PUSH1 0x40 MSTORE CALLVALUE DUP1 ISZERO PUSH2 0xF JUMPI PUSH0 DUP1 REVERT JUMPDEST POP PUSH1 0x4 CALLDATASIZE LT PUSH2 0x9C JUMPI PUSH0 CALLDATALOAD PUSH1 0xE0 SHR DUP1 PUSH4 0x820785CC GT PUSH2 0x64 JUMPI DUP1 PUSH4 0x820785CC EQ PUSH2 0x148 JUMPI DUP1 PUSH4 0x8DA5CB5B EQ PUSH2 0x178 JUMPI DUP1 PUSH4 0xA1488F7C EQ PUSH2 0x196 JUMPI DUP1 PUSH4 0xD04DDAA0 EQ PUSH2 0x1B2 JUMPI DUP1 PUSH4 0xED9BB8D7 EQ PUSH2 0x1CE JUMPI PUSH2 0x9C JUMP JUMPDEST DUP1 PUSH4 0x5A1B4A9 EQ PUSH2 0xA0 JUMPI DUP1 PUSH4 0x53256135 EQ PUSH2 0xD4 JUMPI DUP1 PUSH4 0x58BFA4AB EQ PUSH2 0xF2 JUMPI DUP1 PUSH4 0x6EB10797 EQ PUSH2 0x10E JUMPI DUP1 PUSH4 0x7C9CD2BC EQ PUSH2 0x12C JUMPI JUMPDEST PUSH0 DUP1 REVERT JUMPDEST PUSH2 0xBA PUSH1 0x4 DUP1 CALLDATASIZE SUB DUP2 ADD SWAP1 PUSH2 0xB5 SWAP2 SWAP1 PUSH2 0xE60 JUMP JUMPDEST PUSH2 0x1FE JUMP JUMPDEST PUSH1 0x40 MLOAD PUSH2 0xCB SWAP6 SWAP5 SWAP4 SWAP3 SWAP2 SWAP1 PUSH2 0xF2C JUMP JUMPDEST PUSH1 0x40 MLOAD DUP1 SWAP2 SUB SWAP1 RETURN JUMPDEST PUSH2 0xDC PUSH2 0x2EF JUMP JUMPDEST PUSH1 0x40 MLOAD PUSH2 0xE9 SWAP2 SWAP1 PUSH2 0x1118 JUMP JUMPDEST PUSH1 0x40 MLOAD DUP1 SWAP2 SUB SWAP1 RETURN JUMPDEST PUSH2 0x10C PUSH1 0x4 DUP1 CALLDATASIZE SUB DUP2 ADD SWAP1 PUSH2 0x107 SWAP2 SWAP1 PUSH2 0x116F JUMP JUMPDEST PUSH2 0x488 JUMP JUMPDEST STOP JUMPDEST PUSH2 0x116 PUSH2 0x4FE JUMP JUMPDEST PUSH1 0x40 MLOAD PUSH2 0x123 SWAP2 SWAP1 PUSH2 0x11A9 JUMP JUMPDEST PUSH1 0x40 MLOAD DUP1 SWAP2 SUB SWAP1 RETURN JUMPDEST PUSH2 0x146 PUSH1 0x4 DUP1 CALLDATASIZE SUB DUP2 ADD SWAP1 PUSH2 0x141 SWAP2 SWAP1 PUSH2 0x12EE JUMP JUMPDEST PUSH2 0x50F JUMP JUMPDEST STOP JUMPDEST PUSH2 0x162 PUSH1 0x4 DUP1 CALLDATASIZE SUB DUP2 ADD SWAP1 PUSH2 0x15D SWAP2 SWAP1 PUSH2 0x1335 JUMP JUMPDEST PUSH2 0x712 JUMP JUMPDEST PUSH1 0x40 MLOAD PUSH2 0x16F SWAP2 SWAP1 PUSH2 0x1360 JUMP JUMPDEST PUSH1 0x40 MLOAD DUP1 SWAP2 SUB SWAP1 RETURN JUMPDEST PUSH2 0x180 PUSH2 0x7E1 JUMP JUMPDEST PUSH1 0x40 MLOAD PUSH2 0x18D SWAP2 SWAP1 PUSH2 0x1379 JUMP JUMPDEST PUSH1 0x40 MLOAD DUP1 SWAP2 SUB SWAP1 RETURN JUMPDEST PUSH2 0x1B0 PUSH1 0x4 DUP1 CALLDATASIZE SUB DUP2 ADD SWAP1 PUSH2 0x1AB SWAP2 SWAP1 PUSH2 0x1392 JUMP JUMPDEST PUSH2 0x806 JUMP JUMPDEST STOP JUMPDEST PUSH2 0x1CC PUSH1 0x4 DUP1 CALLDATASIZE SUB DUP2 ADD SWAP1 PUSH2 0x1C7 SWAP2 SWAP1 PUSH2 0x1392 JUMP JUMPDEST PUSH2 0xA58 JUMP JUMPDEST STOP JUMPDEST PUSH2 0x1E8 PUSH1 0x4 DUP1 CALLDATASIZE SUB DUP2 ADD SWAP1 PUSH2 0x1E3 SWAP2 SWAP1 PUSH2 0x13D0 JUMP JUMPDEST PUSH2 0xC0A JUMP JUMPDEST PUSH1 0x40 MLOAD PUSH2 0x1F5 SWAP2 SWAP1 PUSH2 0x146E JUMP JUMPDEST PUSH1 0x40 MLOAD DUP1 SWAP2 SUB SWAP1 RETURN JUMPDEST PUSH1 0x1 PUSH1 0x20 MSTORE DUP2 PUSH0 MSTORE PUSH1 0x40 PUSH0 KECCAK256 DUP2 DUP2 SLOAD DUP2 LT PUSH2 0x217 JUMPI PUSH0 DUP1 REVERT JUMPDEST SWAP1 PUSH0 MSTORE PUSH1 0x20 PUSH0 KECCAK256 SWAP1 PUSH1 0x5 MUL ADD PUSH0 SWAP2 POP SWAP2 POP POP DUP1 PUSH0 ADD SLOAD SWAP1 DUP1 PUSH1 0x1 ADD PUSH0 SWAP1 SLOAD SWAP1 PUSH2 0x100 EXP SWAP1 DIV PUSH20 0xFFFFFFFFFFFFFFFFFFFFFFFFFFFFFFFFFFFFFFFF AND SWAP1 DUP1 PUSH1 0x2 ADD DUP1 SLOAD PUSH2 0x262 SWAP1 PUSH2 0x14BB JUMP JUMPDEST DUP1 PUSH1 0x1F ADD PUSH1 0x20 DUP1 SWAP2 DIV MUL PUSH1 0x20 ADD PUSH1 0x40 MLOAD SWAP1 DUP2 ADD PUSH1 0x40 MSTORE DUP1 SWAP3 SWAP2 SWAP1 DUP2 DUP2 MSTORE PUSH1 0x20 ADD DUP3 DUP1 SLOAD PUSH2 0x28E SWAP1 PUSH2 0x14BB JUMP JUMPDEST DUP1 ISZERO PUSH2 0x2D9 JUMPI DUP1 PUSH1 0x1F LT PUSH2 0x2B0 JUMPI PUSH2 0x100 DUP1 DUP4 SLOAD DIV MUL DUP4 MSTORE SWAP2 PUSH1 0x20 ADD SWAP2 PUSH2 0x2D9 JUMP JUMPDEST DUP3 ADD SWAP2 SWAP1 PUSH0 MSTORE PUSH1 0x20 PUSH0 KECCAK256 SWAP1 JUMPDEST DUP2 SLOAD DUP2 MSTORE SWAP1 PUSH1 0x1 ADD SWAP1 PUSH1 0x20 ADD DUP1 DUP4 GT PUSH2 0x2BC JUMPI DUP3 SWAP1 SUB PUSH1 0x1F AND DUP3 ADD SWAP2 JUMPDEST POP POP POP POP POP SWAP1 DUP1 PUSH1 0x3 ADD SLOAD SWAP1 DUP1 PUSH1 0x4 ADD SLOAD SWAP1 POP DUP6 JUMP JUMPDEST PUSH1 0x60 PUSH1 0x1 PUSH0 CALLER PUSH20 0xFFFFFFFFFFFFFFFFFFFFFFFFFFFFFFFFFFFFFFFF AND PUSH20 0xFFFFFFFFFFFFFFFFFFFFFFFFFFFFFFFFFFFFFFFF AND DUP2 MSTORE PUSH1 0x20 ADD SWAP1 DUP2 MSTORE PUSH1 0x20 ADD PUSH0 KECCAK256 DUP1 SLOAD DUP1 PUSH1 0x20 MUL PUSH1 0x20 ADD PUSH1 0x40 MLOAD SWAP1 DUP2 ADD PUSH1 0x40 MSTORE DUP1 SWAP3 SWAP2 SWAP1 DUP2 DUP2 MSTORE PUSH1 0x20 ADD PUSH0 SWAP1 JUMPDEST DUP3 DUP3 LT ISZERO PUSH2 0x47F JUMPI DUP4 DUP3 SWAP1 PUSH0 MSTORE PUSH1 0x20 PUSH0 KECCAK256 SWAP1 PUSH1 0x5 MUL ADD PUSH1 0x40 MLOAD DUP1 PUSH1 0xA0 ADD PUSH1 0x40 MSTORE SWAP1 DUP2 PUSH0 DUP3 ADD SLOAD DUP2 MSTORE PUSH1 0x20 ADD PUSH1 0x1 DUP3 ADD PUSH0 SWAP1 SLOAD SWAP1 PUSH2 0x100 EXP SWAP1 DIV PUSH20 0xFFFFFFFFFFFFFFFFFFFFFFFFFFFFFFFFFFFFFFFF AND PUSH20 0xFFFFFFFFFFFFFFFFFFFFFFFFFFFFFFFFFFFFFFFF AND PUSH20 0xFFFFFFFFFFFFFFFFFFFFFFFFFFFFFFFFFFFFFFFF AND DUP2 MSTORE PUSH1 0x20 ADD PUSH1 0x2 DUP3 ADD DUP1 SLOAD PUSH2 0x3DC SWAP1 PUSH2 0x14BB JUMP JUMPDEST DUP1 PUSH1 0x1F ADD PUSH1 0x20 DUP1 SWAP2 DIV MUL PUSH1 0x20 ADD PUSH1 0x40 MLOAD SWAP1 DUP2 ADD PUSH1 0x40 MSTORE DUP1 SWAP3 SWAP2 SWAP1 DUP2 DUP2 MSTORE PUSH1 0x20 ADD DUP3 DUP1 SLOAD PUSH2 0x408 SWAP1 PUSH2 0x14BB JUMP JUMPDEST DUP1 ISZERO PUSH2 0x453 JUMPI DUP1 PUSH1 0x1F LT PUSH2 0x42A JUMPI PUSH2 0x100 DUP1 DUP4 SLOAD DIV MUL DUP4 MSTORE SWAP2 PUSH1 0x20 ADD SWAP2 PUSH2 0x453 JUMP JUMPDEST DUP3 ADD SWAP2 SWAP1 PUSH0 MSTORE PUSH1 0x20 PUSH0 KECCAK256 SWAP1 JUMPDEST DUP2 SLOAD DUP2 MSTORE SWAP1 PUSH1 0x1 ADD SWAP1 PUSH1 0x20 ADD DUP1 DUP4 GT PUSH2 0x436 JUMPI DUP3 SWAP1 SUB PUSH1 0x1F AND DUP3 ADD SWAP2 JUMPDEST POP POP POP POP POP DUP2 MSTORE PUSH1 0x20 ADD PUSH1 0x3 DUP3 ADD SLOAD DUP2 MSTORE PUSH1 0x20 ADD PUSH1 0x4 DUP3 ADD SLOAD DUP2 MSTORE POP POP DUP2 MSTORE PUSH1 0x20 ADD SWAP1 PUSH1 0x1 ADD SWAP1 PUSH2 0x34D JUMP JUMPDEST POP POP POP POP SWAP1 POP SWAP1 JUMP JUMPDEST PUSH0 PUSH1 0x2 SWAP1 SLOAD SWAP1 PUSH2 0x100 EXP SWAP1 DIV PUSH20 0xFFFFFFFFFFFFFFFFFFFFFFFFFFFFFFFFFFFFFFFF AND PUSH20 0xFFFFFFFFFFFFFFFFFFFFFFFFFFFFFFFFFFFFFFFF AND CALLER PUSH20 0xFFFFFFFFFFFFFFFFFFFFFFFFFFFFFFFFFFFFFFFF AND EQ PUSH2 0x4E0 JUMPI PUSH0 DUP1 REVERT JUMPDEST DUP1 PUSH0 DUP1 PUSH2 0x100 EXP DUP2 SLOAD DUP2 PUSH2 0xFFFF MUL NOT AND SWAP1 DUP4 PUSH2 0xFFFF AND MUL OR SWAP1 SSTORE POP POP JUMP JUMPDEST PUSH0 DUP1 SLOAD SWAP1 PUSH2 0x100 EXP SWAP1 DIV PUSH2 0xFFFF AND DUP2 JUMP JUMPDEST PUSH0 DUP1 SLOAD SWAP1 PUSH2 0x100 EXP SWAP1 DIV PUSH2 0xFFFF AND PUSH2 0xFFFF AND DUP2 MLOAD GT ISZERO PUSH2 0x564 JUMPI PUSH1 0x40 MLOAD PUSH32 0x8C379A000000000000000000000000000000000000000000000000000000000 DUP2 MSTORE PUSH1 0x4 ADD PUSH2 0x55B SWAP1 PUSH2 0x1535 JUMP JUMPDEST PUSH1 0x40 MLOAD DUP1 SWAP2 SUB SWAP1 REVERT JUMPDEST PUSH0 PUSH1 0x40 MLOAD DUP1 PUSH1 0xA0 ADD PUSH1 0x40 MSTORE DUP1 PUSH1 0x1 PUSH0 CALLER PUSH20 0xFFFFFFFFFFFFFFFFFFFFFFFFFFFFFFFFFFFFFFFF AND PUSH20 0xFFFFFFFFFFFFFFFFFFFFFFFFFFFFFFFFFFFFFFFF AND DUP2 MSTORE PUSH1 0x20 ADD SWAP1 DUP2 MSTORE PUSH1 0x20 ADD PUSH0 KECCAK256 DUP1 SLOAD SWAP1 POP DUP2 MSTORE PUSH1 0x20 ADD CALLER PUSH20 0xFFFFFFFFFFFFFFFFFFFFFFFFFFFFFFFFFFFFFFFF AND DUP2 MSTORE PUSH1 0x20 ADD DUP4 DUP2 MSTORE PUSH1 0x20 ADD TIMESTAMP DUP2 MSTORE PUSH1 0x20 ADD PUSH0 DUP2 MSTORE POP SWAP1 POP PUSH1 0x1 PUSH0 CALLER PUSH20 0xFFFFFFFFFFFFFFFFFFFFFFFFFFFFFFFFFFFFFFFF AND PUSH20 0xFFFFFFFFFFFFFFFFFFFFFFFFFFFFFFFFFFFFFFFF AND DUP2 MSTORE PUSH1 0x20 ADD SWAP1 DUP2 MSTORE PUSH1 0x20 ADD PUSH0 KECCAK256 DUP2 SWAP1 DUP1 PUSH1 0x1 DUP2 SLOAD ADD DUP1 DUP3 SSTORE DUP1 SWAP2 POP POP PUSH1 0x1 SWAP1 SUB SWAP1 PUSH0 MSTORE PUSH1 0x20 PUSH0 KECCAK256 SWAP1 PUSH1 0x5 MUL ADD PUSH0 SWAP1 SWAP2 SWAP1 SWAP2 SWAP1 SWAP2 POP PUSH0 DUP3 ADD MLOAD DUP2 PUSH0 ADD SSTORE PUSH1 0x20 DUP3 ADD MLOAD DUP2 PUSH1 0x1 ADD PUSH0 PUSH2 0x100 EXP DUP2 SLOAD DUP2 PUSH20 0xFFFFFFFFFFFFFFFFFFFFFFFFFFFFFFFFFFFFFFFF MUL NOT AND SWAP1 DUP4 PUSH20 0xFFFFFFFFFFFFFFFFFFFFFFFFFFFFFFFFFFFFFFFF AND MUL OR SWAP1 SSTORE POP PUSH1 0x40 DUP3 ADD MLOAD DUP2 PUSH1 0x2 ADD SWAP1 DUP2 PUSH2 0x6AB SWAP2 SWAP1 PUSH2 0x16F0 JUMP JUMPDEST POP PUSH1 0x60 DUP3 ADD MLOAD DUP2 PUSH1 0x3 ADD SSTORE PUSH1 0x80 DUP3 ADD MLOAD DUP2 PUSH1 0x4 ADD SSTORE POP POP PUSH32 0x16FD3C13E9D46923E0A8BCE11C7B473EC508A72E6C96CD2404B29CE972AFC29E DUP2 PUSH0 ADD MLOAD DUP3 PUSH1 0x20 ADD MLOAD DUP4 PUSH1 0x40 ADD MLOAD DUP5 PUSH1 0x60 ADD MLOAD PUSH1 0x40 MLOAD PUSH2 0x706 SWAP5 SWAP4 SWAP3 SWAP2 SWAP1 PUSH2 0x17BF JUMP JUMPDEST PUSH1 0x40 MLOAD DUP1 SWAP2 SUB SWAP1 LOG1 POP POP JUMP JUMPDEST PUSH0 DUP1 PUSH0 JUMPDEST PUSH1 0x1 PUSH0 DUP6 PUSH20 0xFFFFFFFFFFFFFFFFFFFFFFFFFFFFFFFFFFFFFFFF AND PUSH20 0xFFFFFFFFFFFFFFFFFFFFFFFFFFFFFFFFFFFFFFFF AND DUP2 MSTORE PUSH1 0x20 ADD SWAP1 DUP2 MSTORE PUSH1 0x20 ADD PUSH0 KECCAK256 DUP1 SLOAD SWAP1 POP DUP2 LT ISZERO PUSH2 0x7D7 JUMPI PUSH1 0x1 PUSH0 DUP6 PUSH20 0xFFFFFFFFFFFFFFFFFFFFFFFFFFFFFFFFFFFFFFFF AND PUSH20 0xFFFFFFFFFFFFFFFFFFFFFFFFFFFFFFFFFFFFFFFF AND DUP2 MSTORE PUSH1 0x20 ADD SWAP1 DUP2 MSTORE PUSH1 0x20 ADD PUSH0 KECCAK256 DUP2 DUP2 SLOAD DUP2 LT PUSH2 0x7AD JUMPI PUSH2 0x7AC PUSH2 0x1809 JUMP JUMPDEST JUMPDEST SWAP1 PUSH0 MSTORE PUSH1 0x20 PUSH0 KECCAK256 SWAP1 PUSH1 0x5 MUL ADD PUSH1 0x4 ADD SLOAD DUP3 PUSH2 0x7C8 SWAP2 SWAP1 PUSH2 0x1863 JUMP JUMPDEST SWAP2 POP DUP1 DUP1 PUSH1 0x1 ADD SWAP2 POP POP PUSH2 0x716 JUMP JUMPDEST POP DUP1 SWAP2 POP POP SWAP2 SWAP1 POP JUMP JUMPDEST PUSH0 PUSH1 0x2 SWAP1 SLOAD SWAP1 PUSH2 0x100 EXP SWAP1 DIV PUSH20 0xFFFFFFFFFFFFFFFFFFFFFFFFFFFFFFFFFFFFFFFF AND DUP2 JUMP JUMPDEST DUP2 PUSH1 0x1 PUSH0 DUP4 PUSH20 0xFFFFFFFFFFFFFFFFFFFFFFFFFFFFFFFFFFFFFFFF AND PUSH20 0xFFFFFFFFFFFFFFFFFFFFFFFFFFFFFFFFFFFFFFFF AND DUP2 MSTORE PUSH1 0x20 ADD SWAP1 DUP2 MSTORE PUSH1 0x20 ADD PUSH0 KECCAK256 DUP4 DUP2 SLOAD DUP2 LT PUSH2 0x856 JUMPI PUSH2 0x855 PUSH2 0x1809 JUMP JUMPDEST JUMPDEST SWAP1 PUSH0 MSTORE PUSH1 0x20 PUSH0 KECCAK256 SWAP1 PUSH1 0x5 MUL ADD PUSH0 ADD SLOAD EQ PUSH2 0x8A5 JUMPI PUSH1 0x40 MLOAD PUSH32 0x8C379A000000000000000000000000000000000000000000000000000000000 DUP2 MSTORE PUSH1 0x4 ADD PUSH2 0x89C SWAP1 PUSH2 0x18E0 JUMP JUMPDEST PUSH1 0x40 MLOAD DUP1 SWAP2 SUB SWAP1 REVERT JUMPDEST PUSH0 PUSH1 0x1 PUSH0 DUP4 PUSH20 0xFFFFFFFFFFFFFFFFFFFFFFFFFFFFFFFFFFFFFFFF AND PUSH20 0xFFFFFFFFFFFFFFFFFFFFFFFFFFFFFFFFFFFFFFFF AND DUP2 MSTORE PUSH1 0x20 ADD SWAP1 DUP2 MSTORE PUSH1 0x20 ADD PUSH0 KECCAK256 DUP4 DUP2 SLOAD DUP2 LT PUSH2 0x8F5 JUMPI PUSH2 0x8F4 PUSH2 0x1809 JUMP JUMPDEST JUMPDEST SWAP1 PUSH0 MSTORE PUSH1 0x20 PUSH0 KECCAK256 SWAP1 PUSH1 0x5 MUL ADD PUSH1 0x4 ADD SLOAD GT PUSH2 0x945 JUMPI PUSH1 0x40 MLOAD PUSH32 0x8C379A000000000000000000000000000000000000000000000000000000000 DUP2 MSTORE PUSH1 0x4 ADD PUSH2 0x93C SWAP1 PUSH2 0x1948 JUMP JUMPDEST PUSH1 0x40 MLOAD DUP1 SWAP2 SUB SWAP1 REVERT JUMPDEST PUSH1 0x1 DUP1 PUSH0 DUP4 PUSH20 0xFFFFFFFFFFFFFFFFFFFFFFFFFFFFFFFFFFFFFFFF AND PUSH20 0xFFFFFFFFFFFFFFFFFFFFFFFFFFFFFFFFFFFFFFFF AND DUP2 MSTORE PUSH1 0x20 ADD SWAP1 DUP2 MSTORE PUSH1 0x20 ADD PUSH0 KECCAK256 DUP4 DUP2 SLOAD DUP2 LT PUSH2 0x995 JUMPI PUSH2 0x994 PUSH2 0x1809 JUMP JUMPDEST JUMPDEST SWAP1 PUSH0 MSTORE PUSH1 0x20 PUSH0 KECCAK256 SWAP1 PUSH1 0x5 MUL ADD PUSH1 0x4 ADD PUSH0 DUP3 DUP3 SLOAD PUSH2 0x9B2 SWAP2 SWAP1 PUSH2 0x1966 JUMP JUMPDEST SWAP3 POP POP DUP2 SWAP1 SSTORE POP PUSH32 0x273883C252143C4ABCE776697615E41CA9BC1AAC5968C585D1C8BA8FFAA8B3C1 CALLER DUP3 DUP5 PUSH1 0x1 PUSH0 DUP7 PUSH20 0xFFFFFFFFFFFFFFFFFFFFFFFFFFFFFFFFFFFFFFFF AND PUSH20 0xFFFFFFFFFFFFFFFFFFFFFFFFFFFFFFFFFFFFFFFF AND DUP2 MSTORE PUSH1 0x20 ADD SWAP1 DUP2 MSTORE PUSH1 0x20 ADD PUSH0 KECCAK256 DUP7 DUP2 SLOAD DUP2 LT PUSH2 0xA2C JUMPI PUSH2 0xA2B PUSH2 0x1809 JUMP JUMPDEST JUMPDEST SWAP1 PUSH0 MSTORE PUSH1 0x20 PUSH0 KECCAK256 SWAP1 PUSH1 0x5 MUL ADD PUSH1 0x4 ADD SLOAD PUSH1 0x40 MLOAD PUSH2 0xA4C SWAP5 SWAP4 SWAP3 SWAP2 SWAP1 PUSH2 0x1999 JUMP JUMPDEST PUSH1 0x40 MLOAD DUP1 SWAP2 SUB SWAP1 LOG1 POP POP JUMP JUMPDEST DUP2 PUSH1 0x1 PUSH0 DUP4 PUSH20 0xFFFFFFFFFFFFFFFFFFFFFFFFFFFFFFFFFFFFFFFF AND PUSH20 0xFFFFFFFFFFFFFFFFFFFFFFFFFFFFFFFFFFFFFFFF AND DUP2 MSTORE PUSH1 0x20 ADD SWAP1 DUP2 MSTORE PUSH1 0x20 ADD PUSH0 KECCAK256 DUP4 DUP2 SLOAD DUP2 LT PUSH2 0xAA8 JUMPI PUSH2 0xAA7 PUSH2 0x1809 JUMP JUMPDEST JUMPDEST SWAP1 PUSH0 MSTORE PUSH1 0x20 PUSH0 KECCAK256 SWAP1 PUSH1 0x5 MUL ADD PUSH0 ADD SLOAD EQ PUSH2 0xAF7 JUMPI PUSH1 0x40 MLOAD PUSH32 0x8C379A000000000000000000000000000000000000000000000000000000000 DUP2 MSTORE PUSH1 0x4 ADD PUSH2 0xAEE SWAP1 PUSH2 0x18E0 JUMP JUMPDEST PUSH1 0x40 MLOAD DUP1 SWAP2 SUB SWAP1 REVERT JUMPDEST PUSH1 0x1 DUP1 PUSH0 DUP4 PUSH20 0xFFFFFFFFFFFFFFFFFFFFFFFFFFFFFFFFFFFFFFFF AND PUSH20 0xFFFFFFFFFFFFFFFFFFFFFFFFFFFFFFFFFFFFFFFF AND DUP2 MSTORE PUSH1 0x20 ADD SWAP1 DUP2 MSTORE PUSH1 0x20 ADD PUSH0 KECCAK256 DUP4 DUP2 SLOAD DUP2 LT PUSH2 0xB47 JUMPI PUSH2 0xB46 PUSH2 0x1809 JUMP JUMPDEST JUMPDEST SWAP1 PUSH0 MSTORE PUSH1 0x20 PUSH0 KECCAK256 SWAP1 PUSH1 0x5 MUL ADD PUSH1 0x4 ADD PUSH0 DUP3 DUP3 SLOAD PUSH2 0xB64 SWAP2 SWAP1 PUSH2 0x1863 JUMP JUMPDEST SWAP3 POP POP DUP2 SWAP1 SSTORE POP PUSH32 0xE8A76FC0F16D11A00D1E93B689B63D76CF60AF914DD3D915375DC41D01A0C3C8 CALLER DUP3 DUP5 PUSH1 0x1 PUSH0 DUP7 PUSH20 0xFFFFFFFFFFFFFFFFFFFFFFFFFFFFFFFFFFFFFFFF AND PUSH20 0xFFFFFFFFFFFFFFFFFFFFFFFFFFFFFFFFFFFFFFFF AND DUP2 MSTORE PUSH1 0x20 ADD SWAP1 DUP2 MSTORE PUSH1 0x20 ADD PUSH0 KECCAK256 DUP7 DUP2 SLOAD DUP2 LT PUSH2 0xBDE JUMPI PUSH2 0xBDD PUSH2 0x1809 JUMP JUMPDEST JUMPDEST SWAP1 PUSH0 MSTORE PUSH1 0x20 PUSH0 KECCAK256 SWAP1 PUSH1 0x5 MUL ADD PUSH1 0x4 ADD SLOAD PUSH1 0x40 MLOAD PUSH2 0xBFE SWAP5 SWAP4 SWAP3 SWAP2 SWAP1 PUSH2 0x1999 JUMP JUMPDEST PUSH1 0x40 MLOAD DUP1 SWAP2 SUB SWAP1 LOG1 POP POP JUMP JUMPDEST PUSH2 0xC12 PUSH2 0xD81 JUMP JUMPDEST PUSH1 0x1 PUSH0 CALLER PUSH20 0xFFFFFFFFFFFFFFFFFFFFFFFFFFFFFFFFFFFFFFFF AND PUSH20 0xFFFFFFFFFFFFFFFFFFFFFFFFFFFFFFFFFFFFFFFF AND DUP2 MSTORE PUSH1 0x20 ADD SWAP1 DUP2 MSTORE PUSH1 0x20 ADD PUSH0 KECCAK256 DUP3 DUP2 SLOAD DUP2 LT PUSH2 0xC61 JUMPI PUSH2 0xC60 PUSH2 0x1809 JUMP JUMPDEST JUMPDEST SWAP1 PUSH0 MSTORE PUSH1 0x20 PUSH0 KECCAK256 SWAP1 PUSH1 0x5 MUL ADD PUSH1 0x40 MLOAD DUP1 PUSH1 0xA0 ADD PUSH1 0x40 MSTORE SWAP1 DUP2 PUSH0 DUP3 ADD SLOAD DUP2 MSTORE PUSH1 0x20 ADD PUSH1 0x1 DUP3 ADD PUSH0 SWAP1 SLOAD SWAP1 PUSH2 0x100 EXP SWAP1 DIV PUSH20 0xFFFFFFFFFFFFFFFFFFFFFFFFFFFFFFFFFFFFFFFF AND PUSH20 0xFFFFFFFFFFFFFFFFFFFFFFFFFFFFFFFFFFFFFFFF AND PUSH20 0xFFFFFFFFFFFFFFFFFFFFFFFFFFFFFFFFFFFFFFFF AND DUP2 MSTORE PUSH1 0x20 ADD PUSH1 0x2 DUP3 ADD DUP1 SLOAD PUSH2 0xCE6 SWAP1 PUSH2 0x14BB JUMP JUMPDEST DUP1 PUSH1 0x1F ADD PUSH1 0x20 DUP1 SWAP2 DIV MUL PUSH1 0x20 ADD PUSH1 0x40 MLOAD SWAP1 DUP2 ADD PUSH1 0x40 MSTORE DUP1 SWAP3 SWAP2 SWAP1 DUP2 DUP2 MSTORE PUSH1 0x20 ADD DUP3 DUP1 SLOAD PUSH2 0xD12 SWAP1 PUSH2 0x14BB JUMP JUMPDEST DUP1 ISZERO PUSH2 0xD5D JUMPI DUP1 PUSH1 0x1F LT PUSH2 0xD34 JUMPI PUSH2 0x100 DUP1 DUP4 SLOAD DIV MUL DUP4 MSTORE SWAP2 PUSH1 0x20 ADD SWAP2 PUSH2 0xD5D JUMP JUMPDEST DUP3 ADD SWAP2 SWAP1 PUSH0 MSTORE PUSH1 0x20 PUSH0 KECCAK256 SWAP1 JUMPDEST DUP2 SLOAD DUP2 MSTORE SWAP1 PUSH1 0x1 ADD SWAP1 PUSH1 0x20 ADD DUP1 DUP4 GT PUSH2 0xD40 JUMPI DUP3 SWAP1 SUB PUSH1 0x1F AND DUP3 ADD SWAP2 JUMPDEST POP POP POP POP POP DUP2 MSTORE PUSH1 0x20 ADD PUSH1 0x3 DUP3 ADD SLOAD DUP2 MSTORE PUSH1 0x20 ADD PUSH1 0x4 DUP3 ADD SLOAD DUP2 MSTORE POP POP SWAP1 POP SWAP2 SWAP1 POP JUMP JUMPDEST PUSH1 0x40 MLOAD DUP1 PUSH1 0xA0 ADD PUSH1 0x40 MSTORE DUP1 PUSH0 DUP2 MSTORE PUSH1 0x20 ADD PUSH0 PUSH20 0xFFFFFFFFFFFFFFFFFFFFFFFFFFFFFFFFFFFFFFFF AND DUP2 MSTORE PUSH1 0x20 ADD PUSH1 0x60 DUP2 MSTORE PUSH1 0x20 ADD PUSH0 DUP2 MSTORE PUSH1 0x20 ADD PUSH0 DUP2 MSTORE POP SWAP1 JUMP JUMPDEST PUSH0 PUSH1 0x40 MLOAD SWAP1 POP SWAP1 JUMP JUMPDEST PUSH0 DUP1 REVERT JUMPDEST PUSH0 DUP1 REVERT JUMPDEST PUSH0 PUSH20 0xFFFFFFFFFFFFFFFFFFFFFFFFFFFFFFFFFFFFFFFF DUP3 AND SWAP1 POP SWAP2 SWAP1 POP JUMP JUMPDEST PUSH0 PUSH2 0xDFC DUP3 PUSH2 0xDD3 JUMP JUMPDEST SWAP1 POP SWAP2 SWAP1 POP JUMP JUMPDEST PUSH2 0xE0C DUP2 PUSH2 0xDF2 JUMP JUMPDEST DUP2 EQ PUSH2 0xE16 JUMPI PUSH0 DUP1 REVERT JUMPDEST POP JUMP JUMPDEST PUSH0 DUP2 CALLDATALOAD SWAP1 POP PUSH2 0xE27 DUP2 PUSH2 0xE03 JUMP JUMPDEST SWAP3 SWAP2 POP POP JUMP JUMPDEST PUSH0 DUP2 SWAP1 POP SWAP2 SWAP1 POP JUMP JUMPDEST PUSH2 0xE3F DUP2 PUSH2 0xE2D JUMP JUMPDEST DUP2 EQ PUSH2 0xE49 JUMPI PUSH0 DUP1 REVERT JUMPDEST POP JUMP JUMPDEST PUSH0 DUP2 CALLDATALOAD SWAP1 POP PUSH2 0xE5A DUP2 PUSH2 0xE36 JUMP JUMPDEST SWAP3 SWAP2 POP POP JUMP JUMPDEST PUSH0 DUP1 PUSH1 0x40 DUP4 DUP6 SUB SLT ISZERO PUSH2 0xE76 JUMPI PUSH2 0xE75 PUSH2 0xDCB JUMP JUMPDEST JUMPDEST PUSH0 PUSH2 0xE83 DUP6 DUP3 DUP7 ADD PUSH2 0xE19 JUMP JUMPDEST SWAP3 POP POP PUSH1 0x20 PUSH2 0xE94 DUP6 DUP3 DUP7 ADD PUSH2 0xE4C JUMP JUMPDEST SWAP2 POP POP SWAP3 POP SWAP3 SWAP1 POP JUMP JUMPDEST PUSH2 0xEA7 DUP2 PUSH2 0xE2D JUMP JUMPDEST DUP3 MSTORE POP POP JUMP JUMPDEST PUSH2 0xEB6 DUP2 PUSH2 0xDF2 JUMP JUMPDEST DUP3 MSTORE POP POP JUMP JUMPDEST PUSH0 DUP2 MLOAD SWAP1 POP SWAP2 SWAP1 POP JUMP JUMPDEST PUSH0 DUP3 DUP3 MSTORE PUSH1 0x20 DUP3 ADD SWAP1 POP SWAP3 SWAP2 POP POP JUMP JUMPDEST DUP3 DUP2 DUP4 MCOPY PUSH0 DUP4 DUP4 ADD MSTORE POP POP POP JUMP JUMPDEST PUSH0 PUSH1 0x1F NOT PUSH1 0x1F DUP4 ADD AND SWAP1 POP SWAP2 SWAP1 POP JUMP JUMPDEST PUSH0 PUSH2 0xEFE DUP3 PUSH2 0xEBC JUMP JUMPDEST PUSH2 0xF08 DUP2 DUP6 PUSH2 0xEC6 JUMP JUMPDEST SWAP4 POP PUSH2 0xF18 DUP2 DUP6 PUSH1 0x20 DUP7 ADD PUSH2 0xED6 JUMP JUMPDEST PUSH2 0xF21 DUP2 PUSH2 0xEE4 JUMP JUMPDEST DUP5 ADD SWAP2 POP POP SWAP3 SWAP2 POP POP JUMP JUMPDEST PUSH0 PUSH1 0xA0 DUP3 ADD SWAP1 POP PUSH2 0xF3F PUSH0 DUP4 ADD DUP9 PUSH2 0xE9E JUMP JUMPDEST PUSH2 0xF4C PUSH1 0x20 DUP4 ADD DUP8 PUSH2 0xEAD JUMP JUMPDEST DUP2 DUP2 SUB PUSH1 0x40 DUP4 ADD MSTORE PUSH2 0xF5E DUP2 DUP7 PUSH2 0xEF4 JUMP JUMPDEST SWAP1 POP PUSH2 0xF6D PUSH1 0x60 DUP4 ADD DUP6 PUSH2 0xE9E JUMP JUMPDEST PUSH2 0xF7A PUSH1 0x80 DUP4 ADD DUP5 PUSH2 0xE9E JUMP JUMPDEST SWAP7 SWAP6 POP POP POP POP POP POP JUMP JUMPDEST PUSH0 DUP2 MLOAD SWAP1 POP SWAP2 SWAP1 POP JUMP JUMPDEST PUSH0 DUP3 DUP3 MSTORE PUSH1 0x20 DUP3 ADD SWAP1 POP SWAP3 SWAP2 POP POP JUMP JUMPDEST PUSH0 DUP2 SWAP1 POP PUSH1 0x20 DUP3 ADD SWAP1 POP SWAP2 SWAP1 POP JUMP JUMPDEST PUSH2 0xFB6 DUP2 PUSH2 0xE2D JUMP JUMPDEST DUP3 MSTORE POP POP JUMP JUMPDEST PUSH2 0xFC5 DUP2 PUSH2 0xDF2 JUMP JUMPDEST DUP3 MSTORE POP POP JUMP JUMPDEST PUSH0 DUP3 DUP3 MSTORE PUSH1 0x20 DUP3 ADD SWAP1 POP SWAP3 SWAP2 POP POP JUMP JUMPDEST PUSH0 PUSH2 0xFE5 DUP3 PUSH2 0xEBC JUMP JUMPDEST PUSH2 0xFEF DUP2 DUP6 PUSH2 0xFCB JUMP JUMPDEST SWAP4 POP PUSH2 0xFFF DUP2 DUP6 PUSH1 0x20 DUP7 ADD PUSH2 0xED6 JUMP JUMPDEST PUSH2 0x1008 DUP2 PUSH2 0xEE4 JUMP JUMPDEST DUP5 ADD SWAP2 POP POP SWAP3 SWAP2 POP POP JUMP JUMPDEST PUSH0 PUSH1 0xA0 DUP4 ADD PUSH0 DUP4 ADD MLOAD PUSH2 0x1028 PUSH0 DUP7 ADD DUP3 PUSH2 0xFAD JUMP JUMPDEST POP PUSH1 0x20 DUP4 ADD MLOAD PUSH2 0x103B PUSH1 0x20 DUP7 ADD DUP3 PUSH2 0xFBC JUMP JUMPDEST POP PUSH1 0x40 DUP4 ADD MLOAD DUP5 DUP3 SUB PUSH1 0x40 DUP7 ADD MSTORE PUSH2 0x1053 DUP3 DUP3 PUSH2 0xFDB JUMP JUMPDEST SWAP2 POP POP PUSH1 0x60 DUP4 ADD MLOAD PUSH2 0x1068 PUSH1 0x60 DUP7 ADD DUP3 PUSH2 0xFAD JUMP JUMPDEST POP PUSH1 0x80 DUP4 ADD MLOAD PUSH2 0x107B PUSH1 0x80 DUP7 ADD DUP3 PUSH2 0xFAD JUMP JUMPDEST POP DUP1 SWAP2 POP POP SWAP3 SWAP2 POP POP JUMP JUMPDEST PUSH0 PUSH2 0x1091 DUP4 DUP4 PUSH2 0x1013 JUMP JUMPDEST SWAP1 POP SWAP3 SWAP2 POP POP JUMP JUMPDEST PUSH0 PUSH1 0x20 DUP3 ADD SWAP1 POP SWAP2 SWAP1 POP JUMP JUMPDEST PUSH0 PUSH2 0x10AF DUP3 PUSH2 0xF84 JUMP JUMPDEST PUSH2 0x10B9 DUP2 DUP6 PUSH2 0xF8E JUMP JUMPDEST SWAP4 POP DUP4 PUSH1 0x20 DUP3 MUL DUP6 ADD PUSH2 0x10CB DUP6 PUSH2 0xF9E JUMP JUMPDEST DUP1 PUSH0 JUMPDEST DUP6 DUP2 LT ISZERO PUSH2 0x1106 JUMPI DUP5 DUP5 SUB DUP10 MSTORE DUP2 MLOAD PUSH2 0x10E7 DUP6 DUP3 PUSH2 0x1086 JUMP JUMPDEST SWAP5 POP PUSH2 0x10F2 DUP4 PUSH2 0x1099 JUMP JUMPDEST SWAP3 POP PUSH1 0x20 DUP11 ADD SWAP10 POP POP PUSH1 0x1 DUP2 ADD SWAP1 POP PUSH2 0x10CE JUMP JUMPDEST POP DUP3 SWAP8 POP DUP8 SWAP6 POP POP POP POP POP POP SWAP3 SWAP2 POP POP JUMP JUMPDEST PUSH0 PUSH1 0x20 DUP3 ADD SWAP1 POP DUP2 DUP2 SUB PUSH0 DUP4 ADD MSTORE PUSH2 0x1130 DUP2 DUP5 PUSH2 0x10A5 JUMP JUMPDEST SWAP1 POP SWAP3 SWAP2 POP POP JUMP JUMPDEST PUSH0 PUSH2 0xFFFF DUP3 AND SWAP1 POP SWAP2 SWAP1 POP JUMP JUMPDEST PUSH2 0x114E DUP2 PUSH2 0x1138 JUMP JUMPDEST DUP2 EQ PUSH2 0x1158 JUMPI PUSH0 DUP1 REVERT JUMPDEST POP JUMP JUMPDEST PUSH0 DUP2 CALLDATALOAD SWAP1 POP PUSH2 0x1169 DUP2 PUSH2 0x1145 JUMP JUMPDEST SWAP3 SWAP2 POP POP JUMP JUMPDEST PUSH0 PUSH1 0x20 DUP3 DUP5 SUB SLT ISZERO PUSH2 0x1184 JUMPI PUSH2 0x1183 PUSH2 0xDCB JUMP JUMPDEST JUMPDEST PUSH0 PUSH2 0x1191 DUP5 DUP3 DUP6 ADD PUSH2 0x115B JUMP JUMPDEST SWAP2 POP POP SWAP3 SWAP2 POP POP JUMP JUMPDEST PUSH2 0x11A3 DUP2 PUSH2 0x1138 JUMP JUMPDEST DUP3 MSTORE POP POP JUMP JUMPDEST PUSH0 PUSH1 0x20 DUP3 ADD SWAP1 POP PUSH2 0x11BC PUSH0 DUP4 ADD DUP5 PUSH2 0x119A JUMP JUMPDEST SWAP3 SWAP2 POP POP JUMP JUMPDEST PUSH0 DUP1 REVERT JUMPDEST PUSH0 DUP1 REVERT JUMPDEST PUSH32 0x4E487B7100000000000000000000000000000000000000000000000000000000 PUSH0 MSTORE PUSH1 0x41 PUSH1 0x4 MSTORE PUSH1 0x24 PUSH0 REVERT JUMPDEST PUSH2 0x1200 DUP3 PUSH2 0xEE4 JUMP JUMPDEST DUP2 ADD DUP2 DUP2 LT PUSH8 0xFFFFFFFFFFFFFFFF DUP3 GT OR ISZERO PUSH2 0x121F JUMPI PUSH2 0x121E PUSH2 0x11CA JUMP JUMPDEST JUMPDEST DUP1 PUSH1 0x40 MSTORE POP POP POP JUMP JUMPDEST PUSH0 PUSH2 0x1231 PUSH2 0xDC2 JUMP JUMPDEST SWAP1 POP PUSH2 0x123D DUP3 DUP3 PUSH2 0x11F7 JUMP JUMPDEST SWAP2 SWAP1 POP JUMP JUMPDEST PUSH0 PUSH8 0xFFFFFFFFFFFFFFFF DUP3 GT ISZERO PUSH2 0x125C JUMPI PUSH2 0x125B PUSH2 0x11CA JUMP JUMPDEST JUMPDEST PUSH2 0x1265 DUP3 PUSH2 0xEE4 JUMP JUMPDEST SWAP1 POP PUSH1 0x20 DUP2 ADD SWAP1 POP SWAP2 SWAP1 POP JUMP JUMPDEST DUP3 DUP2 DUP4 CALLDATACOPY PUSH0 DUP4 DUP4 ADD MSTORE POP POP POP JUMP JUMPDEST PUSH0 PUSH2 0x1292 PUSH2 0x128D DUP5 PUSH2 0x1242 JUMP JUMPDEST PUSH2 0x1228 JUMP JUMPDEST SWAP1 POP DUP3 DUP2 MSTORE PUSH1 0x20 DUP2 ADD DUP5 DUP5 DUP5 ADD GT ISZERO PUSH2 0x12AE JUMPI PUSH2 0x12AD PUSH2 0x11C6 JUMP JUMPDEST JUMPDEST PUSH2 0x12B9 DUP5 DUP3 DUP6 PUSH2 0x1272 JUMP JUMPDEST POP SWAP4 SWAP3 POP POP POP JUMP JUMPDEST PUSH0 DUP3 PUSH1 0x1F DUP4 ADD SLT PUSH2 0x12D5 JUMPI PUSH2 0x12D4 PUSH2 0x11C2 JUMP JUMPDEST JUMPDEST DUP2 CALLDATALOAD PUSH2 0x12E5 DUP5 DUP3 PUSH1 0x20 DUP7 ADD PUSH2 0x1280 JUMP JUMPDEST SWAP2 POP POP SWAP3 SWAP2 POP POP JUMP JUMPDEST PUSH0 PUSH1 0x20 DUP3 DUP5 SUB SLT ISZERO PUSH2 0x1303 JUMPI PUSH2 0x1302 PUSH2 0xDCB JUMP JUMPDEST JUMPDEST PUSH0 DUP3 ADD CALLDATALOAD PUSH8 0xFFFFFFFFFFFFFFFF DUP2 GT ISZERO PUSH2 0x1320 JUMPI PUSH2 0x131F PUSH2 0xDCF JUMP JUMPDEST JUMPDEST PUSH2 0x132C DUP5 DUP3 DUP6 ADD PUSH2 0x12C1 JUMP JUMPDEST SWAP2 POP POP SWAP3 SWAP2 POP POP JUMP JUMPDEST PUSH0 PUSH1 0x20 DUP3 DUP5 SUB SLT ISZERO PUSH2 0x134A JUMPI PUSH2 0x1349 PUSH2 0xDCB JUMP JUMPDEST JUMPDEST PUSH0 PUSH2 0x1357 DUP5 DUP3 DUP6 ADD PUSH2 0xE19 JUMP JUMPDEST SWAP2 POP POP SWAP3 SWAP2 POP POP JUMP JUMPDEST PUSH0 PUSH1 0x20 DUP3 ADD SWAP1 POP PUSH2 0x1373 PUSH0 DUP4 ADD DUP5 PUSH2 0xE9E JUMP JUMPDEST SWAP3 SWAP2 POP POP JUMP JUMPDEST PUSH0 PUSH1 0x20 DUP3 ADD SWAP1 POP PUSH2 0x138C PUSH0 DUP4 ADD DUP5 PUSH2 0xEAD JUMP JUMPDEST SWAP3 SWAP2 POP POP JUMP JUMPDEST PUSH0 DUP1 PUSH1 0x40 DUP4 DUP6 SUB SLT ISZERO PUSH2 0x13A8 JUMPI PUSH2 0x13A7 PUSH2 0xDCB JUMP JUMPDEST JUMPDEST PUSH0 PUSH2 0x13B5 DUP6 DUP3 DUP7 ADD PUSH2 0xE4C JUMP JUMPDEST SWAP3 POP POP PUSH1 0x20 PUSH2 0x13C6 DUP6 DUP3 DUP7 ADD PUSH2 0xE19 JUMP JUMPDEST SWAP2 POP POP SWAP3 POP SWAP3 SWAP1 POP JUMP JUMPDEST PUSH0 PUSH1 0x20 DUP3 DUP5 SUB SLT ISZERO PUSH2 0x13E5 JUMPI PUSH2 0x13E4 PUSH2 0xDCB JUMP JUMPDEST JUMPDEST PUSH0 PUSH2 0x13F2 DUP5 DUP3 DUP6 ADD PUSH2 0xE4C JUMP JUMPDEST SWAP2 POP POP SWAP3 SWAP2 POP POP JUMP JUMPDEST PUSH0 PUSH1 0xA0 DUP4 ADD PUSH0 DUP4 ADD MLOAD PUSH2 0x1410 PUSH0 DUP7 ADD DUP3 PUSH2 0xFAD JUMP JUMPDEST POP PUSH1 0x20 DUP4 ADD MLOAD PUSH2 0x1423 PUSH1 0x20 DUP7 ADD DUP3 PUSH2 0xFBC JUMP JUMPDEST POP PUSH1 0x40 DUP4 ADD MLOAD DUP5 DUP3 SUB PUSH1 0x40 DUP7 ADD MSTORE PUSH2 0x143B DUP3 DUP3 PUSH2 0xFDB JUMP JUMPDEST SWAP2 POP POP PUSH1 0x60 DUP4 ADD MLOAD PUSH2 0x1450 PUSH1 0x60 DUP7 ADD DUP3 PUSH2 0xFAD JUMP JUMPDEST POP PUSH1 0x80 DUP4 ADD MLOAD PUSH2 0x1463 PUSH1 0x80 DUP7 ADD DUP3 PUSH2 0xFAD JUMP JUMPDEST POP DUP1 SWAP2 POP POP SWAP3 SWAP2 POP POP JUMP JUMPDEST PUSH0 PUSH1 0x20 DUP3 ADD SWAP1 POP DUP2 DUP2 SUB PUSH0 DUP4 ADD MSTORE PUSH2 0x1486 DUP2 DUP5 PUSH2 0x13FB JUMP JUMPDEST SWAP1 POP SWAP3 SWAP2 POP POP JUMP JUMPDEST PUSH32 0x4E487B7100000000000000000000000000000000000000000000000000000000 PUSH0 MSTORE PUSH1 0x22 PUSH1 0x4 MSTORE PUSH1 0x24 PUSH0 REVERT JUMPDEST PUSH0 PUSH1 0x2 DUP3 DIV SWAP1 POP PUSH1 0x1 DUP3 AND DUP1 PUSH2 0x14D2 JUMPI PUSH1 0x7F DUP3 AND SWAP2 POP JUMPDEST PUSH1 0x20 DUP3 LT DUP2 SUB PUSH2 0x14E5 JUMPI PUSH2 0x14E4 PUSH2 0x148E JUMP JUMPDEST JUMPDEST POP SWAP2 SWAP1 POP JUMP JUMPDEST PUSH32 0x747765657420697320746F6F206C6F6E67210000000000000000000000000000 PUSH0 DUP3 ADD MSTORE POP JUMP JUMPDEST PUSH0 PUSH2 0x151F PUSH1 0x12 DUP4 PUSH2 0xEC6 JUMP JUMPDEST SWAP2 POP PUSH2 0x152A DUP3 PUSH2 0x14EB JUMP JUMPDEST PUSH1 0x20 DUP3 ADD SWAP1 POP SWAP2 SWAP1 POP JUMP JUMPDEST PUSH0 PUSH1 0x20 DUP3 ADD SWAP1 POP DUP2 DUP2 SUB PUSH0 DUP4 ADD MSTORE PUSH2 0x154C DUP2 PUSH2 0x1513 JUMP JUMPDEST SWAP1 POP SWAP2 SWAP1 POP JUMP JUMPDEST PUSH0 DUP2 SWAP1 POP DUP2 PUSH0 MSTORE PUSH1 0x20 PUSH0 KECCAK256 SWAP1 POP SWAP2 SWAP1 POP JUMP JUMPDEST PUSH0 PUSH1 0x20 PUSH1 0x1F DUP4 ADD DIV SWAP1 POP SWAP2 SWAP1 POP JUMP JUMPDEST PUSH0 DUP3 DUP3 SHL SWAP1 POP SWAP3 SWAP2 POP POP JUMP JUMPDEST PUSH0 PUSH1 0x8 DUP4 MUL PUSH2 0x15AF PUSH32 0xFFFFFFFFFFFFFFFFFFFFFFFFFFFFFFFFFFFFFFFFFFFFFFFFFFFFFFFFFFFFFFFF DUP3 PUSH2 0x1574 JUMP JUMPDEST PUSH2 0x15B9 DUP7 DUP4 PUSH2 0x1574 JUMP JUMPDEST SWAP6 POP DUP1 NOT DUP5 AND SWAP4 POP DUP1 DUP7 AND DUP5 OR SWAP3 POP POP POP SWAP4 SWAP3 POP POP POP JUMP JUMPDEST PUSH0 DUP2 SWAP1 POP SWAP2 SWAP1 POP JUMP JUMPDEST PUSH0 PUSH2 0x15F4 PUSH2 0x15EF PUSH2 0x15EA DUP5 PUSH2 0xE2D JUMP JUMPDEST PUSH2 0x15D1 JUMP JUMPDEST PUSH2 0xE2D JUMP JUMPDEST SWAP1 POP SWAP2 SWAP1 POP JUMP JUMPDEST PUSH0 DUP2 SWAP1 POP SWAP2 SWAP1 POP JUMP JUMPDEST PUSH2 0x160D DUP4 PUSH2 0x15DA JUMP JUMPDEST PUSH2 0x1621 PUSH2 0x1619 DUP3 PUSH2 0x15FB JUMP JUMPDEST DUP5 DUP5 SLOAD PUSH2 0x1580 JUMP JUMPDEST DUP3 SSTORE POP POP POP POP JUMP JUMPDEST PUSH0 SWAP1 JUMP JUMPDEST PUSH2 0x1635 PUSH2 0x1629 JUMP JUMPDEST PUSH2 0x1640 DUP2 DUP5 DUP5 PUSH2 0x1604 JUMP JUMPDEST POP POP POP JUMP JUMPDEST JUMPDEST DUP2 DUP2 LT ISZERO PUSH2 0x1663 JUMPI PUSH2 0x1658 PUSH0 DUP3 PUSH2 0x162D JUMP JUMPDEST PUSH1 0x1 DUP2 ADD SWAP1 POP PUSH2 0x1646 JUMP JUMPDEST POP POP JUMP JUMPDEST PUSH1 0x1F DUP3 GT ISZERO PUSH2 0x16A8 JUMPI PUSH2 0x1679 DUP2 PUSH2 0x1553 JUMP JUMPDEST PUSH2 0x1682 DUP5 PUSH2 0x1565 JUMP JUMPDEST DUP2 ADD PUSH1 0x20 DUP6 LT ISZERO PUSH2 0x1691 JUMPI DUP2 SWAP1 POP JUMPDEST PUSH2 0x16A5 PUSH2 0x169D DUP6 PUSH2 0x1565 JUMP JUMPDEST DUP4 ADD DUP3 PUSH2 0x1645 JUMP JUMPDEST POP POP JUMPDEST POP POP POP JUMP JUMPDEST PUSH0 DUP3 DUP3 SHR SWAP1 POP SWAP3 SWAP2 POP POP JUMP JUMPDEST PUSH0 PUSH2 0x16C8 PUSH0 NOT DUP5 PUSH1 0x8 MUL PUSH2 0x16AD JUMP JUMPDEST NOT DUP1 DUP4 AND SWAP2 POP POP SWAP3 SWAP2 POP POP JUMP JUMPDEST PUSH0 PUSH2 0x16E0 DUP4 DUP4 PUSH2 0x16B9 JUMP JUMPDEST SWAP2 POP DUP3 PUSH1 0x2 MUL DUP3 OR SWAP1 POP SWAP3 SWAP2 POP POP JUMP JUMPDEST PUSH2 0x16F9 DUP3 PUSH2 0xEBC JUMP JUMPDEST PUSH8 0xFFFFFFFFFFFFFFFF DUP2 GT ISZERO PUSH2 0x1712 JUMPI PUSH2 0x1711 PUSH2 0x11CA JUMP JUMPDEST JUMPDEST PUSH2 0x171C DUP3 SLOAD PUSH2 0x14BB JUMP JUMPDEST PUSH2 0x1727 DUP3 DUP3 DUP6 PUSH2 0x1667 JUMP JUMPDEST PUSH0 PUSH1 0x20 SWAP1 POP PUSH1 0x1F DUP4 GT PUSH1 0x1 DUP2 EQ PUSH2 0x1758 JUMPI PUSH0 DUP5 ISZERO PUSH2 0x1746 JUMPI DUP3 DUP8 ADD MLOAD SWAP1 POP JUMPDEST PUSH2 0x1750 DUP6 DUP3 PUSH2 0x16D5 JUMP JUMPDEST DUP7 SSTORE POP PUSH2 0x17B7 JUMP JUMPDEST PUSH1 0x1F NOT DUP5 AND PUSH2 0x1766 DUP7 PUSH2 0x1553 JUMP JUMPDEST PUSH0 JUMPDEST DUP3 DUP2 LT ISZERO PUSH2 0x178D JUMPI DUP5 DUP10 ADD MLOAD DUP3 SSTORE PUSH1 0x1 DUP3 ADD SWAP2 POP PUSH1 0x20 DUP6 ADD SWAP5 POP PUSH1 0x20 DUP2 ADD SWAP1 POP PUSH2 0x1768 JUMP JUMPDEST DUP7 DUP4 LT ISZERO PUSH2 0x17AA JUMPI DUP5 DUP10 ADD MLOAD PUSH2 0x17A6 PUSH1 0x1F DUP10 AND DUP3 PUSH2 0x16B9 JUMP JUMPDEST DUP4 SSTORE POP JUMPDEST PUSH1 0x1 PUSH1 0x2 DUP9 MUL ADD DUP9 SSTORE POP POP POP JUMPDEST POP POP POP POP POP POP JUMP JUMPDEST PUSH0 PUSH1 0x80 DUP3 ADD SWAP1 POP PUSH2 0x17D2 PUSH0 DUP4 ADD DUP8 PUSH2 0xE9E JUMP JUMPDEST PUSH2 0x17DF PUSH1 0x20 DUP4 ADD DUP7 PUSH2 0xEAD JUMP JUMPDEST DUP2 DUP2 SUB PUSH1 0x40 DUP4 ADD MSTORE PUSH2 0x17F1 DUP2 DUP6 PUSH2 0xEF4 JUMP JUMPDEST SWAP1 POP PUSH2 0x1800 PUSH1 0x60 DUP4 ADD DUP5 PUSH2 0xE9E JUMP JUMPDEST SWAP6 SWAP5 POP POP POP POP POP JUMP JUMPDEST PUSH32 0x4E487B7100000000000000000000000000000000000000000000000000000000 PUSH0 MSTORE PUSH1 0x32 PUSH1 0x4 MSTORE PUSH1 0x24 PUSH0 REVERT JUMPDEST PUSH32 0x4E487B7100000000000000000000000000000000000000000000000000000000 PUSH0 MSTORE PUSH1 0x11 PUSH1 0x4 MSTORE PUSH1 0x24 PUSH0 REVERT JUMPDEST PUSH0 PUSH2 0x186D DUP3 PUSH2 0xE2D JUMP JUMPDEST SWAP2 POP PUSH2 0x1878 DUP4 PUSH2 0xE2D JUMP JUMPDEST SWAP3 POP DUP3 DUP3 ADD SWAP1 POP DUP1 DUP3 GT ISZERO PUSH2 0x1890 JUMPI PUSH2 0x188F PUSH2 0x1836 JUMP JUMPDEST JUMPDEST SWAP3 SWAP2 POP POP JUMP JUMPDEST PUSH32 0x747765657420646F65736E6F7420657869737400000000000000000000000000 PUSH0 DUP3 ADD MSTORE POP JUMP JUMPDEST PUSH0 PUSH2 0x18CA PUSH1 0x13 DUP4 PUSH2 0xEC6 JUMP JUMPDEST SWAP2 POP PUSH2 0x18D5 DUP3 PUSH2 0x1896 JUMP JUMPDEST PUSH1 0x20 DUP3 ADD SWAP1 POP SWAP2 SWAP1 POP JUMP JUMPDEST PUSH0 PUSH1 0x20 DUP3 ADD SWAP1 POP DUP2 DUP2 SUB PUSH0 DUP4 ADD MSTORE PUSH2 0x18F7 DUP2 PUSH2 0x18BE JUMP JUMPDEST SWAP1 POP SWAP2 SWAP1 POP JUMP JUMPDEST PUSH32 0x63616E6E6F74206469736C696B65000000000000000000000000000000000000 PUSH0 DUP3 ADD MSTORE POP JUMP JUMPDEST PUSH0 PUSH2 0x1932 PUSH1 0xE DUP4 PUSH2 0xEC6 JUMP JUMPDEST SWAP2 POP PUSH2 0x193D DUP3 PUSH2 0x18FE JUMP JUMPDEST PUSH1 0x20 DUP3 ADD SWAP1 POP SWAP2 SWAP1 POP JUMP JUMPDEST PUSH0 PUSH1 0x20 DUP3 ADD SWAP1 POP DUP2 DUP2 SUB PUSH0 DUP4 ADD MSTORE PUSH2 0x195F DUP2 PUSH2 0x1926 JUMP JUMPDEST SWAP1 POP SWAP2 SWAP1 POP JUMP JUMPDEST PUSH0 PUSH2 0x1970 DUP3 PUSH2 0xE2D JUMP JUMPDEST SWAP2 POP PUSH2 0x197B DUP4 PUSH2 0xE2D JUMP JUMPDEST SWAP3 POP DUP3 DUP3 SUB SWAP1 POP DUP2 DUP2 GT ISZERO PUSH2 0x1993 JUMPI PUSH2 0x1992 PUSH2 0x1836 JUMP JUMPDEST JUMPDEST SWAP3 SWAP2 POP POP JUMP JUMPDEST PUSH0 PUSH1 0x80 DUP3 ADD SWAP1 POP PUSH2 0x19AC PUSH0 DUP4 ADD DUP8 PUSH2 0xEAD JUMP JUMPDEST PUSH2 0x19B9 PUSH1 0x20 DUP4 ADD DUP7 PUSH2 0xEAD JUMP JUMPDEST PUSH2 0x19C6 PUSH1 0x40 DUP4 ADD DUP6 PUSH2 0xE9E JUMP JUMPDEST PUSH2 0x19D3 PUSH1 0x60 DUP4 ADD DUP5 PUSH2 0xE9E JUMP JUMPDEST SWAP6 SWAP5 POP POP POP POP POP JUMP INVALID LOG2 PUSH5 0x6970667358 0x22 SLT KECCAK256 0x23 0xEB 0xCC DUP5 0x24 MSTORE8 0xD8 ORIGIN EXTCODEHASH 0x22 SWAP6 PUSH22 0xE39FBFBA5962F1425AFFC5BDCEFA75399E49F98F6473 PUSH16 0x6C634300081A00330000000000000000 "
				},
				"gasEstimates": {
					"creation": {
						"codeDepositCost": "1334800",
						"executionCost": "49969",
						"totalCost": "1384769"
					},
					"external": {
						"MAX_TWEET_LENGTH()": "2530",
						"changeTweetLength(uint16)": "26937",
						"createTweet(string)": "infinite",
						"getAllTweets()": "infinite",
						"getTotalLikes(address)": "infinite",
						"getTweets(uint256)": "infinite",
						"likeTweet(uint256,address)": "infinite",
						"owner()": "2580",
						"tweets(address,uint256)": "infinite",
						"unlikeTweet(uint256,address)": "infinite"
					}
				},
				"methodIdentifiers": {
					"MAX_TWEET_LENGTH()": "6eb10797",
					"changeTweetLength(uint16)": "58bfa4ab",
					"createTweet(string)": "7c9cd2bc",
					"getAllTweets()": "53256135",
					"getTotalLikes(address)": "820785cc",
					"getTweets(uint256)": "ed9bb8d7",
					"likeTweet(uint256,address)": "d04ddaa0",
					"owner()": "8da5cb5b",
					"tweets(address,uint256)": "05a1b4a9",
					"unlikeTweet(uint256,address)": "a1488f7c"
				}
			},
			"storageLayout": {
				"storage": [
					{
						"astId": 4,
						"contract": "contracts/Twitter.sol:Twitter",
						"label": "MAX_TWEET_LENGTH",
						"offset": 0,
						"slot": "0",
						"type": "t_uint16"
					},
					{
						"astId": 6,
						"contract": "contracts/Twitter.sol:Twitter",
						"label": "owner",
						"offset": 2,
						"slot": "0",
						"type": "t_address"
					},
					{
						"astId": 32,
						"contract": "contracts/Twitter.sol:Twitter",
						"label": "tweets",
						"offset": 0,
						"slot": "1",
						"type": "t_mapping(t_address,t_array(t_struct(Tweet)17_storage)dyn_storage)"
					}
				],
				"types": {
					"t_address": {
						"encoding": "inplace",
						"label": "address",
						"numberOfBytes": "20"
					},
					"t_array(t_struct(Tweet)17_storage)dyn_storage": {
						"base": "t_struct(Tweet)17_storage",
						"encoding": "dynamic_array",
						"label": "struct Twitter.Tweet[]",
						"numberOfBytes": "32"
					},
					"t_mapping(t_address,t_array(t_struct(Tweet)17_storage)dyn_storage)": {
						"encoding": "mapping",
						"key": "t_address",
						"label": "mapping(address => struct Twitter.Tweet[])",
						"numberOfBytes": "32",
						"value": "t_array(t_struct(Tweet)17_storage)dyn_storage"
					},
					"t_string_storage": {
						"encoding": "bytes",
						"label": "string",
						"numberOfBytes": "32"
					},
					"t_struct(Tweet)17_storage": {
						"encoding": "inplace",
						"label": "struct Twitter.Tweet",
						"members": [
							{
								"astId": 8,
								"contract": "contracts/Twitter.sol:Twitter",
								"label": "id",
								"offset": 0,
								"slot": "0",
								"type": "t_uint256"
							},
							{
								"astId": 10,
								"contract": "contracts/Twitter.sol:Twitter",
								"label": "author",
								"offset": 0,
								"slot": "1",
								"type": "t_address"
							},
							{
								"astId": 12,
								"contract": "contracts/Twitter.sol:Twitter",
								"label": "content",
								"offset": 0,
								"slot": "2",
								"type": "t_string_storage"
							},
							{
								"astId": 14,
								"contract": "contracts/Twitter.sol:Twitter",
								"label": "timestamp",
								"offset": 0,
								"slot": "3",
								"type": "t_uint256"
							},
							{
								"astId": 16,
								"contract": "contracts/Twitter.sol:Twitter",
								"label": "likes",
								"offset": 0,
								"slot": "4",
								"type": "t_uint256"
							}
						],
						"numberOfBytes": "160"
					},
					"t_uint16": {
						"encoding": "inplace",
						"label": "uint16",
						"numberOfBytes": "2"
					},
					"t_uint256": {
						"encoding": "inplace",
						"label": "uint256",
						"numberOfBytes": "32"
					}
				}
			},
			"userdoc": {
				"kind": "user",
				"methods": {},
				"version": 1
			}
		}
	}
}